:100000000C94E9000C9411010C9411010C94C10B97
:100010000C94C10B0C94C10B0C9411010C940B0BA0
:100020000C9411010C9411010C9411010C941506FF
:100030000C9411010C9411010C9411010C941101F8
:100040000C94EC040C9411010C94A5020C947F0206
:100050000C9411010C9411010C9411010C941101D8
:100060000C94510C0C9411018517D614F2149E15A2
:100070009E15B31558189E15581858185818581822
:10008000581858185818EB155818001658185818BA
:1000900058182E163D186B1637175A175818581837
:1000A00058185818C117CD175818581858185818F4
:1000B000F017DB17581858185818581858185818A7
:1000C00058185818581858185818581821182C1813
:1000D00007634236B79BD8A71A39685618AEBAAB31
:1000E000558C1D3CB7CC5763BD6DEDFD753EF617C5
:1000F0007231BF000000803F08000000BE9224491A
:10010000123EABAAAA2ABECDCCCC4C3E0000008049
:10011000BEABAAAAAA3E00000000BF000000803FBC
:100120000000000000084178D3BB4387D1133D197C
:100130000E3CC3BD4282AD2B3E68EC8276BED98FA9
:10014000E1A93E4C80EFFFBE01C4FF7F3F000000ED
:10015000000000000000240027002A000000000822
:10016000000201000003040700000000000000007E
:100170003F065B4F666D7D077F6F777C395E7971D7
:10018000BF86DBCFE6EDFD87FFEFF7FCB9DEF9F1C7
:10019000004000000000250028002B0000000000A7
:1001A00023002600290004040404040404040202B9
:1001B00002020202030303030303010204081020E6
:1001C0004080010204081020010204081020A61F2C
:1001D000831F11241FBECFEFD8E0DEBFCDBF11E0DB
:1001E000A0E0B1E0ECE3F2E502C005900D92A03D85
:1001F000B107D9F727E0A0EDB1E001C01D92A5310C
:10020000B207E1F710E0C8EED0E004C02197FE018C
:100210000E94B121C73ED107C9F70E948D120C94EC
:1002200011290C940000CF92DF92EF92FF920F936E
:100230001F93CF93DF936C017A018B01C0E0D0E074
:10024000CE15DF0589F0D8016D918D01D601ED91B4
:10025000FC910190F081E02DC6010995892B11F4E4
:100260007E0102C02196ECCFC701DF91CF911F9193
:100270000F91FF90EF90DF90CF900895FC01918D4A
:10028000828D981761F0828DDF01A80FB11D5D96F8
:100290008C91928D9F5F9F73928F90E008958FEF66
:1002A0009FEF0895FC01918D828D981731F0828D1A
:1002B000E80FF11D858D90E008958FEF9FEF089571
:1002C000FC01918D228D892F90E0805C9F4F821BD5
:1002D00091098F739927089582EA93E00E94600143
:1002E00021E0892B09F420E0822F0895FC01848D00
:1002F000DF01A80FB11DA35ABF4F2C91848D90E050
:1003000001968F739927848FA689B7892C93A0892A
:10031000B1898C9180648C93938D848D981306C0E1
:100320000288F389E02D80818F7D80830895EF928C
:10033000FF920F931F93CF93DF93EC0181E0888F9F
:100340009B8D8C8D981305C0E889F989808185FD86
:1003500024C0F62E0B8D10E00F5F1F4F0F73112777
:10036000E02E8C8DE8120CC00FB607FCFACFE8899E
:10037000F989808185FFF5CFCE010E947601F1CF0A
:100380008B8DFE01E80FF11DE35AFF4FF0820B8FBA
:10039000EA89FB898081806207C0EE89FF896083DA
:1003A000E889F98980818064808381E090E0DF9131
:1003B000CF911F910F91FF90EF900895CF93DF930E
:1003C000EC01888D8823C9F0EA89FB89808185FD4D
:1003D00005C0A889B9898C9186FD0FC00FB607FCAE
:1003E000F5CF808185FFF2CFA889B9898C9185FFEF
:1003F000EDCFCE010E947601E7CFDF91CF91089536
:1004000080E090E0892B29F00E946C0181110C940E
:1004100000000895833081F028F4813099F0823013
:10042000A1F008958730A9F08830B9F08430D1F474
:10043000809180008F7D03C0809180008F778093B2
:100440008000089584B58F7702C084B58F7D84BD08
:1004500008958091B0008F7703C08091B0008F7DA8
:100460008093B00008950E94B226FC0123A12223AC
:1004700021F082EA93E00C9497010C94150AEF9214
:10048000FF920F931F93CF93DF93EC017B018A01BF
:1004900088819981009729F02A813B8124173507AB
:1004A000F8F4B8016F5F7F4F0E94E825009759F07C
:1004B000998388831B830A832C813D81232B81F4BC
:1004C000FC0110820DC088819981009711F00E9473
:1004D0005025198218821D821C821B821A8207C035
:1004E0001D830C83B701888199810E94C026CE01AB
:1004F000DF91CF911F910F91FF90EF9008951F9280
:100500000F920FB60F9211242F933F934F935F9347
:100510006F937F938F939F93AF93BF93EF93FF93CB
:1005200082EA93E00E947601FF91EF91BF91AF9133
:100530009F918F917F916F915F914F913F912F91FB
:100540000F900FBE0F901F9018951F920F920FB62D
:100550000F9211242F938F939F93EF93FF93E0912A
:10056000B203F091B3038081E091B803F091B90335
:1005700082FD12C090818091BB038F5F8F732091A9
:10058000BC03821751F0E091BB03F0E0EE55FC4F45
:10059000958F8093BB0301C08081FF91EF919F9164
:1005A0008F912F910F900FBE0F901F901895CF93A2
:1005B000DF93282F30E0F901E45AFE4F8491F901CE
:1005C000E654FE4FD491F901EA55FE4FC491CC2375
:1005D00091F081110E940A02EC2FF0E0EE0FFF1F54
:1005E000E456FE4FA591B491EC91ED2381E090E0AB
:1005F00021F480E002C080E090E0DF91CF91089587
:100600001F93CF93DF93282F30E0F901E45AFE4F78
:100610008491F901E654FE4FD491F901EA55FE4F59
:10062000C491CC23C9F0162F81110E940A02EC2F2D
:10063000F0E0EE0FFF1FEE56FE4FA591B4918FB77D
:10064000F894111105C09C91ED2FE095E92302C0AB
:10065000EC91ED2BEC938FBFDF91CF911F9108951B
:10066000CF93DF93EC018E81813011F460E001C003
:1006700061E08A810E94000361E08B810E94000397
:1006800060E08B81DF91CF910C940003CF93DF93D7
:1006900090E0FC01E654FE4F2491FC01EA55FE4F28
:1006A0008491882361F190E0880F991FFC01EE5A34
:1006B000FE4FC591D491FC01EE56FE4FA591B49129
:1006C000611109C09FB7F89488812095822388839F
:1006D000EC912E230BC0623061F49FB7F8943881FF
:1006E000822F809583238883EC912E2B2C939FBFA0
:1006F00006C08FB7F894E8812E2B28838FBFDF9137
:10070000CF9108951F93CF93DF93182FEB0161E0F2
:100710000E944603209711F460E004C0CF3FD1054A
:1007200039F461E0812FDF91CF911F910C94000388
:10073000E12FF0E0E45AFE4FE491E330F9F048F4A1
:10074000E130B9F0E230A1F584B5806284BDC8BD66
:1007500034C0E730E9F0E83019F1E43049F5809130
:100760008000806280938000D0938B00C0938A00C9
:1007700024C084B5806884BDC7BD1FC0809180003F
:10078000806880938000D0938900C093880015C052
:100790008091B00080688093B000C093B3000DC01A
:1007A0008091B00080628093B000C093B40005C017
:1007B000C038D1050CF0B5CFAFCFDF91CF911F91ED
:1007C00008958E3008F08E508770806480937C008E
:1007D00080917A00806480937A0080917A0086FD0F
:1007E000FCCF809178002091790090E0922B0895C1
:1007F0008230910538F0880F991F880F991F05974F
:100800000197F1F70895CF92DF92EF92FF920F9345
:100810001F93CF93DF93FC01C6A0D7A0F3E0CF1ABC
:10082000D1088C010A581F4FF80180810E94D7021D
:10083000892B01F5E12CF12CC0E0D0E0C6010E942B
:10084000F803F80180810E94D7020E2C02C0880FA5
:10085000991F0A94E2F7C82BD92BFFEFEF1AFF0A72
:1008600028E0E216F10451F7C6010E94F803CE0118
:10087000992702C08FEF9FEFDF91CF911F910F91CA
:10088000FF90EF90DF90CF900895CF93DF93FC011E
:1008900024A1222371F0EC010E94030488A799A7E8
:1008A0009095991F9927991F892F90E0DF91CF91FB
:1008B0000895FC0123A1222331F082EA93E0DF9125
:1008C000CF910C946001DF91CF910C94690AFC01E7
:1008D00024A1222351F020A531A54FEF5FEF51A7AE
:1008E00040A737FF0CC00C940304FC0123A1222372
:1008F00021F082EA93E00C943E010C94810AC90134
:1009000008953FB7F8948091700290917102A09180
:100910007202B091730226B5A89B05C02F3F19F053
:100920000196A11DB11D3FBFBA2FA92F982F88276F
:10093000820F911DA11DB11DBC01CD0142E0660FCA
:10094000771F881F991F4A95D1F708958F929F921C
:10095000AF92BF92CF92DF92EF92FF926B017C0138
:100960000E9481044B015C01C114D104E104F10433
:10097000F1F00E948104DC01CB0188199909AA09D0
:10098000BB09883E9340A105B10570F321E0C21A6E
:10099000D108E108F10888EE880E83E0981EA11CBA
:1009A000B11CC114D104E104F10419F7DDCFFF90AB
:1009B000EF90DF90CF90BF90AF909F908F90089571
:1009C0002FB7F89460916C0270916D0280916E0265
:1009D00090916F022FBF08951F920F920FB60F9242
:1009E00011242F933F938F939F93AF93BF93809145
:1009F0006C0290916D02A0916E02B0916F023091E5
:100A00006B0223E0230F2D3720F40196A11DB11DA9
:100A100005C026E8230F0296A11DB11D20936B028D
:100A200080936C0290936D02A0936E02B0936F025C
:100A30008091700290917102A0917202B091730244
:100A40000196A11DB11D8093700290937102A09335
:100A50007202B0937302BF91AF919F918F913F91BA
:100A60002F910F900FBE0F901F901895CF92DF928D
:100A7000EF92FF92CF93DF93EC01603282E0780730
:100A80000CF03DC077FD06C0653B71052CF064EBB2
:100A900070E002C060E070E0898128E830E0690120
:100AA000C81AD10887FDD394CC0CDD1CCC0CDD1CFE
:100AB0000D2C000CEE08FF088A8128E532E0281B87
:100AC000310987FD3395220F331F220F331FC901D0
:100AD000330FAA0BBB0B9C01AD012C193D094E092C
:100AE0005F09DB010E94A12824EB30E040E050E0E8
:100AF0000E947728C20ED31EE41EF51EB60188811F
:100B00008C3080F5998148E850E0491B510997FDE8
:100B10005395440F551F440F551F6417750784F0F4
:100B20009A8128E532E0291B310997FD3395220F80
:100B3000331F220F331FAB01261737070CF4A9010F
:100B400042505109440F551F2FB7F89490E0FC0113
:100B5000EE0FFF1F8E0F9F1FFC01E05CFB4F5283C7
:100B600041832FBFDF91CF91FF90EF90DF90CF9027
:100B700008951F93CF93DF93EC01162F88818C305B
:100B800008F04EC061E0812F0E9446038881E82F63
:100B9000F0E09F01220F331FE20FF31FE05CFB4FD9
:100BA0001F7790819078192B108319821A826CE03C
:100BB0000E9491219CE0899FB001112440E050E007
:100BC0009A01260F371FF901EE0FFF1F2E0F3F1F4F
:100BD000F901E05CFB4F908197FD16C04F5F5F4FBE
:100BE0004C30510569F781110FC01092800082E0EE
:100BF000809381001092850010928400B19A8091B8
:100C00006F00826080936F00E881F0E0CF01880F71
:100C1000991FE80FF91FE05CFB4F8081806880839B
:100C20008881DF91CF911F9108951F920F920FB687
:100C30000F9211242F933F934F935F936F937F9362
:100C40008F939F93AF93BF93EF93FF9380916A022B
:100C500087FF05C010928500109284001BC0209170
:100C60006A02022E000C330B8091640490E0281776
:100C7000390784F480916A02082E000C990BFC015C
:100C8000EE0FFF1F8E0F9F1FFC01E05CFB4F80816A
:100C900087FD15C080916A028F5F80936A02209160
:100CA0006A02022E000C330B8091640490E0281736
:100CB0003907C4F480916A028C3064F113C08091CA
:100CC0006A02082E000C990BFC01EE0FFF1F8E0F1D
:100CD0009F1FFC01E05CFB4F808160E08F770E94EA
:100CE0000003D8CF809184009091850004968034D1
:100CF0009C4918F480E49CE905C08091840090919F
:100D00008500049690938900809388008FEF8093EC
:100D10006A023BC0209184003091850080916A0274
:100D2000082E000C990BFC01EE0FFF1F8E0F9F1F6A
:100D3000FC01E05CFB4F81819281820F931F9093B5
:100D400089008093880080916A02082E000C990B1C
:100D5000FC01EE0FFF1F8E0F9F1FFC01E05CFB4F9D
:100D6000808187FF12C080916A02082E000C990BC7
:100D7000FC01EE0FFF1F8E0F9F1FFC01E05CFB4F7D
:100D8000808161E08F770E940003FF91EF91BF9116
:100D9000AF919F918F917F916F915F914F913F9113
:100DA0002F910F900FBE0F901F9018950F931F93C8
:100DB000CF93DF93EC014B855C856D857E858F81BC
:100DC0009885A985BA85481759076A077B0711F4E2
:100DD00080E046C084179507A607B7071CF481E09A
:100DE0008E8301C01E828B8D9C8DAD8DBE8D892B17
:100DF0008A2B8B2B69F30E9481040F8D18A129A1E6
:100E00003AA1DC01CB01801B910BA20BB30B0B8D24
:100E10001C8D2D8D3E8D081719072A073B07C0F63C
:100E20002E818F819885A985BA85213021F401967C
:100E3000A11DB11D03C00197A109B1098F83988736
:100E4000A987BA87E881F9810190F081E02DCE0170
:100E500009950E9481046F8F78A389A39AA381E0EA
:100E6000DF91CF911F910F9108954F925F926F92F2
:100E70007F92AF92BF92CF92DF92EF92FF920F9349
:100E80001F93CF93DF93EC015A018B012F85388993
:100E900049895A89B501C8010E945327882309F45A
:100EA0004CC0CB88DC88ED88FE882601370177FAB4
:100EB000709477F87094A3019201B501C8010E9463
:100EC000532787FD0BC0A7019601B501C8010E94F9
:100ED0003F2318162CF06501780102C073016201EE
:100EE00020E030E0A901C701B6010E94532781111B
:100EF00005C01B8E1C8E1D8E1E8E1BC0A701960169
:100F000060E074E284E799E40E943F229F770E94A8
:100F1000B8226B8F7C8F8D8F9E8F11E020E030E0A8
:100F2000A901C701B6010E943F2318160CF010E07A
:100F30001E83CF86D88AE98AFA8ADF91CF911F91E2
:100F40000F91FF90EF90DF90CF90BF90AF907F9088
:100F50006F905F904F9008952F923F924F925F92C3
:100F60006F927F928F929F92AF92BF92CF92DF92B9
:100F7000EF92FF920F931F93CF93DF9300D000D097
:100F8000CDB7DEB71C01FC01C384D484E584F684AC
:100F900087819085A185B285C81AD90AEA0AFB0A19
:100FA00067857089818992899B01AC010E94B9276C
:100FB0004B015C01F1016789708D818D928D9B01E0
:100FC000AC010E94D3219B01AC01C501B4010E9478
:100FD0003F220E94B122C114D104E104F104A1F422
:100FE00062307105810591050CF07CC0F101138E12
:100FF000148E158E168E1786108A118A128A13A2E5
:1010000014A215A216A2FDC0F10103A114A125A1ED
:1010100036A11C141D041E041F0404F5101611062D
:10102000120613064CF46C157D058E059F055CF5C4
:101030002681211157C027C0011511052105310551
:1010400009F450C06C157D058E059F050CF04AC053
:10105000F1018681813009F045C039C010161106B2
:1010600012061306FCF40027112798010C191D091C
:101070002E093F09601771078207930724F4F101D5
:101080002681213079F59B01AC0188279927DC0165
:10109000821B930BA40BB50BF10183A394A3A5A30F
:1010A000B6A320C00115110521053105D9F088240A
:1010B000992454018C189D08AE08BF08681579055D
:1010C0008A059B057CF4F101868181110BC0309566
:1010D0002095109501951F4F2F4F3F4F03A314A349
:1010E00025A336A3F10183A094A0A5A0B6A08114E6
:1010F0009104A104B10491F487A190A5A1A5B2A582
:1011000083A794A7A5A7B6A781E01C141D041E04FD
:101110001F040CF080E0F10186833FC0F101C3A4FD
:10112000D4A4E5A4F6A4A7019601C701B6010E94C4
:10113000D3212B013C01C501B4010E945A2720E0B4
:1011400030E040E850E40E94B92720E030E040E879
:101150005FE30E94D3219B01AC01C301B2010E9455
:101160003F229B01AC01C701B6010E94D2217B0145
:101170008C01F10167A470A8C1A8D2A89301A601AF
:101180000E943F23181614F073018601A701B801CD
:10119000F10143A754A765A776A7FFEF8F1A9F0A0F
:1011A000AF0ABF0AF10183A294A2A5A2B6A223A509
:1011B00034A545A556A5CA01B90129833A834B83B5
:1011C0005C830E94B822F101638F748F858F968FA4
:1011D00029813A814B815C8160E074E284E799E483
:1011E0000E943F22F1016787708B818B928B268151
:1011F000211107C0DC01CB01B0588787908BA18BF0
:10120000B28B0F900F900F900F90DF91CF911F91A5
:101210000F91FF90EF90DF90CF90BF90AF909F9095
:101220008F907F906F905F904F903F902F90089598
:10123000CF92DF92EF92FF92CF93DF93EC016A019E
:101240007B019A01AB016B897C898D899E890E9403
:101250005327882309F440C0CB8ADC8AED8AFE8AB2
:10126000A701960160E074E284E799E40E943F22BE
:101270006FA778AB89AB9AAB8BA19CA1ADA1BEA1A6
:10128000181619061A061B063CF56F857889898998
:101290009A899B01AC010E94B9276B017C016F897F
:1012A000788D898D9A8D9B01AC010E94D3219B0181
:1012B000AC01C701B6010E943F220E94B1226BA37C
:1012C0007CA38DA39EA3CE01DF91CF91FF90EF90E1
:1012D000DF90CF900C94AC07DF91CF91FF90EF900F
:1012E000DF90CF900895DC01E62FF0E0EE0FFF1FB6
:1012F000E55BFE4F80818C93818111968C931197D1
:1013000012966C930895CF93DF93EC0160E089818E
:101310000E9446038981DF91CF910C94E103CF9322
:10132000DF93EC0160E088810E9446038881DF91B1
:10133000CF910C94E1031F93CF93DF93EC01162F11
:1013400061E089810E944603612F8981DF91CF91FD
:101350001F910C940003DC01E62FF0E0EE0FFF1F5D
:10136000E55BFE4F80818C93818111968C93119760
:1013700012966C930895CF93DF93EC0102960E942E
:10138000AB0989E491E0998388831F8218861986C6
:101390001A861B861C861D861E861F8A188E198E2D
:1013A0001A8E0E9481046F8F78A389A39AA31F8647
:1013B000188A198A1A8A81E08E831F8218861986F4
:1013C0001A861B861C861D861E861BA21CA21DA2B9
:1013D0001EA21B8E1C8E1D8E1E8E61E08A810E94B5
:1013E000460361E08B81DF91CF910C944603FC01B1
:1013F00010821182128208952091A0033091A103DE
:101400002817390771F490919E0380919F039817D4
:1014100041F0E0919E03F0E0EF50FD4F808190E0BD
:1014200008958FEF9FEF089508951F93CF93DF9353
:10143000DC015C962D913C915D972115310539F4C5
:1014400081E090E013969C938E9312973DC0519645
:10145000ED91FC91529750969C915097892F8095D1
:101460001FB75E964C915E9741FB772770F941FD5F
:101470006095F8944081772311F0492B01C04823EF
:101480004083E9012197F1F748E0508160FF02C0F5
:10149000592B01C058235083E9012197F1F7669534
:1014A000415099F7772321F090818923808303C0ED
:1014B0008081982B90831FBF5C968D919C915D9746
:1014C0000197F1F721E030E0C901DF91CF911F9141
:1014D00008952091A0033091A1032817390771F4D2
:1014E00080919F0320919E0390E0805C9F4F821B20
:1014F000910960E470E00E949D21089580E090E0F1
:1015000008952091A0033091A10328173907B9F459
:1015100090919E0380919F03981789F0E0919E031C
:10152000F0E0EF50FD4F808120919E0330E02F5F6F
:101530003F4F2F73332720939E0390E008958FEF42
:101540009FEF089585ED8093BC008091BC0084FDE1
:10155000FCCF1092CB0208954091A502262F30E0D7
:10156000240F311D21323105DCF42091CB022430CF
:10157000C9F4FC0180E090E0861758F43091A50290
:101580002191DC01AD57BD4FA30FB11D2C930196E6
:10159000F3CF8091A502680F6093A50280E00895C3
:1015A00081E0089582E0089508958FEF9FEF0895F8
:1015B0008FEF9FEF08958091820290E09195819541
:1015C00091090895CF93DF9300D0CDB7DEB7CB015B
:1015D000642F49835A830E94AC0A4981842F5A811F
:1015E000952F0F900F90DF91CF910895CF93DF93B8
:1015F0001F92CDB7DEB7698361E0CE0101960E94EC
:10160000AC0A81E090E00F90DF91CF9108950E94A5
:101610006704992708951F920F920FB60F92112415
:101620000F931F932F933F934F935F936F937F93EA
:101630008F939F93AF93BF93CF93EF93FF9382E0EA
:101640000E94D702C82F80913703909138030196EA
:10165000909338038093370380919D03843618F06C
:1016600085E08093320390913203933079F018F43F
:10167000923039F072C0943011F1953009F44AC0BB
:101680006CC0C1116AC010929D0329C0C13009F01D
:1016900064C0E0919D0381E08E0F80939D03F0E094
:1016A0008091370390913803EF5CFC4F8087109254
:1016B00038031092370384E0809332034EC0C11187
:1016C00014C0E0919D0381E08E0F80939D03F0E0B4
:1016D0008091370390913803EF5CFC4F8087109224
:1016E00038031092370383E0E7CF8091370390915E
:1016F00038038536910588F185E0809332030E9496
:10170000E004609333037093340380933503909324
:10171000360323C00E94E004009133031091340388
:101720002091350330913603DC01CB01801B910BF6
:10173000A20BB30B893C9105A105B10540F01092B5
:101740009D03109238031092370382E0B5CFC11188
:1017500004C01092380310923703FF91EF91CF919C
:10176000BF91AF919F918F917F916F915F914F91B9
:101770003F912F911F910F910F900FBE0F901F90CF
:1017800018951F920F920FB60F9211242F933F932B
:101790004F935F936F937F938F939F93AF93BF9379
:1017A000EF93FF93E091A003F091A103309709F428
:1017B00051C0968DA685B785858591FF04C09C9103
:1017C000892329F447C09C91892309F043C0A38948
:1017D000B4899C918589809589238C938689978982
:1017E0000197F1F7608D718DA685B785558538E035
:1017F00020E0CB010197F1F7822F90E09595879536
:10180000282F4C91452309F02068315091F7868D9F
:1018100081FD209580919F0390E001968F73992719
:1018200030919E03381749F0A0919F03B0E0AF506C
:10183000BD4F2C9380939F0303C0868D8160868F5C
:10184000828D938D0197F1F7A389B4899C91858945
:10185000892B8C93FF91EF91BF91AF919F918F91C5
:101860007F916F915F914F913F912F910F900FBE9C
:101870000F901F901895E091A003F091A103E81735
:10188000F90769F4A389B4899C9185898095892396
:101890008C931092A1031092A00381E0089580E040
:1018A00008951F920F920FB60F9211242F933F931A
:1018B0004F935F936F937F938F939F93AF93BF9358
:1018C000EF93FF938091B900887F803609F49CC024
:1018D00068F5883209F45BC090F4803109F454C093
:1018E00038F4882309F4F6C0883009F44DC0F6C0F6
:1018F000883109F44CC0803209F45DC0EFC08034F7
:1019000009F468C048F4803309F455C0883309F0FD
:10191000E5C08093CA02D8C0803509F44FC088352D
:1019200009F45DC0883409F0D9C0D6C0883909F4FB
:10193000C7C0A8F4883709F467C038F4883609F4BA
:1019400063C0803709F460C0C9C0883809F4B8C0E2
:10195000803909F45FC0803809F0C0C05BC0803BAB
:1019600009F486C038F4803A09F466C0883A09F46C
:101970007FC0B4C0803C09F4A7C0883C09F4A4C06F
:10198000883B09F48AC0AAC08091F00210C09091EF
:10199000EF028091EE02981770F5E091EF0281E07E
:1019A0008E0F8093EF02F0E0E253FD4F8081809331
:1019B000BB0085EC86C08093CA028EC0E091EF0226
:1019C00081E08E0F8093EF028091BB00F0E0E25344
:1019D000FD4F80839091EF028091EE026EC0E09106
:1019E000EF0281E08E0F8093EF028091BB00F0E068
:1019F000E253FD4F80838091CD0281116DC081E063
:101A00008093CC0284EA61C083E08093CB02109281
:101A1000C902CFCF8091C902803208F051C0E09155
:101A2000C90281E08E0F8093C9028091BB00F0E073
:101A3000E755FD4F8083BDCF85EC8093BC001092AD
:101A4000CB028091C902803230F4E091C902F0E00B
:101A5000E755FD4F10826091C90270E0E091A70246
:101A6000F091A80289EA92E009951092C90236C065
:101A700084E08093CB021092A6021092A502E0911E
:101A8000A302F091A40209958091A502811105C0DD
:101A900081E08093A50210928302E091A60281E08A
:101AA0008E0F8093A602F0E0ED57FD4F808180936A
:101AB000BB009091A6028091A502981708F479CFF7
:101AC00085E88093BC000AC085EC8093BC0010922E
:101AD000CB0204C01092CA020E94A20AFF91EF91A9
:101AE000BF91AF919F918F917F916F915F914F9136
:101AF0003F912F910F900FBE0F901F901895682F58
:101B000082EA93E00C949701CF92DF92EF92FF92DA
:101B10006B017C0183E00E947F0DC701B6010E942A
:101B2000B122862F262F372F3093810220938002F7
:101B30000E947F0D80918102FF90EF90DF90CF9007
:101B40000C947F0DCF92DF92FF920F931F93CF9350
:101B5000DF931F92CDB7DEB7162FF72E082F82E046
:101B600099830E947F0D89E3C82E82E0D82E412FF1
:101B70005F2D602F9981792FF60140835183628315
:101B80007383812F0E947F0DF60181810E947F0D5A
:101B9000F60182810E947F0DF60183810F90DF9113
:101BA000CF911F910F91FF90DF90CF900C947F0DFC
:101BB0008FEF0E947F0D85E50E947F0D87EA91E0FF
:101BC0000C94780F20913802FC01222319F0EC5F6D
:101BD000FD4F02C0E053FE4F808108950F931F9385
:101BE000CF93DF938C010E94E20DC0E8D2E088839E
:101BF000C80101960E94E20D898380918002909134
:101C00008102DF91CF911F910F91089589E00E9489
:101C10003C1280E090E00E9407128AE00E943C1291
:101C200080E090E00C94071289E00E943C128091C1
:101C30000101909102019195819591090E940712ED
:101C40008AE00E943C1280910101909102019195DD
:101C5000819591090C94071289E00E943C128091B1
:101C60000101909102010E9407128AE00E943C1239
:101C700080910101909102010C94071289E00E9469
:101C80003C128091010190910201919581959109F9
:101C90000E9407128AE00E943C12809101019091FB
:101CA00002010C940712CF93DF93C1E1D5E060E00D
:101CB00088850E94000360E089850E94000361E03E
:101CC00088850E94000361E08985DF91CF910C94A3
:101CD0000003CF93DF93C1E1D5E061E088850E94E6
:101CE000000361E089850E94000360E089850E940D
:101CF000000360E08885DF91CF910C940003CF93BF
:101D0000DF93D82FC8E060E0809119050E9400039E
:101D1000D0FF02C061E001C060E080911A050E941E
:101D20000003D69561E0809119050E940003C1501F
:101D300051F760E0809119050E94000361E08091F5
:101D40001A050E94000361E0809119050E940003BA
:101D500060E080911A050E944603C8EC80911A0544
:101D60000E94D702892B69F0C150C1F761E08091D0
:101D70001A050E94460360E080911A050E94000344
:101D8000ECCF61E080911A05DF91CF910C9446036E
:101D90000F931F9390E0FC01E654FE4FA491FC01C9
:101DA000EA55FE4FE491F0E0EE0FFF1FE456FE4FC0
:101DB000859194918A019B013F704A2F6A2F0E945E
:101DC0004812611571058105910549F0DC01CB01CF
:101DD0000196A11DB11DBC01CD019F7003C060E043
:101DE00070E0CB011F910F910895CF92DF92EF9297
:101DF000FF920E94E004C0902105D0902205E0905F
:101E00002305F0902405DC01CB018C199D09AE0956
:101E1000BF094897A105B10518F081E0809320051E
:101E200080912005882309F43DC00E94E00460935E
:101E30002105709322058093230590932405109229
:101E4000200560E08BE195E00E949B0983E090E033
:101E50000197F1F761E08BE195E00E949B0983E235
:101E600090E00197F1F760E08BE195E00E949B091B
:101E700060E080911C050E94460348EB56E560E057
:101E800070E080911C050E94C80E6B017C010E94CD
:101E90005A27609325057093260580932705909314
:101EA00028050CC0609125057091260580912705B5
:101EB000909128050E94B1226B017C01C114D104CC
:101EC000E104F10431F480EAC82E8AE5D82EE12C31
:101ED000F12CC701B6010E945A2720E030E048E605
:101EE00052E40E943F22FF90EF90DF90CF90089540
:101EF000009769F0FC0101900020E9F73197AF01EC
:101F0000481B590BBC0182EA93E00C94130180E05A
:101F100090E00895CF93DF9300D000D0CDB7DEB727
:101F20009C01DE011196AD0194E09A0FF9018191B7
:101F30009F01FA018193AF019E13F8CF80E22C91AB
:101F4000223208F08C93EC91F0E0E059FE4FE491DE
:101F5000ED939A13F4CF0E94690E80E40E947F0EE5
:101F60000E94530E0E94690E809116050E947F0EFA
:101F700089810E947F0E8A810E947F0E8B810E9440
:101F80007F0E8C810E947F0E0E94530E0E94690E6C
:101F9000809117050E947F0E0F900F900F900F9069
:101FA000DF91CF910C94530E88E690E090937805E2
:101FB0008093770580917405882339F060E875E295
:101FC00080E090E00E94951198C010926C051092EC
:101FD0006B0510926A0510926905109268051092BF
:101FE00067058DE991E090936E0580936D05909162
:101FF0005D05963108F057C02DEB30E03093680551
:10200000209367052BE931E030936A052093690539
:102010002CE231E030936C0520936B052091680031
:10202000983050F031E09E3008F430E081E001C09B
:10203000880F3A95EAF701C084E0822B809368000C
:10204000983038F09E3040F0963148F020E030E093
:1020500008C02DE630E005C02BE630E002C02CE6DB
:1020600030E03093650520936405983030F481E0CA
:1020700001C0880F9A95EAF70EC0292F30E09E30F4
:1020800018F42850310902C02E50310981E001C0F6
:10209000880F2A95EAF78093660580916D059091E7
:1020A0006E050197F1F780916B0590916C05892B76
:1020B00021F18091A0039091A10325E08135920741
:1020C000E1F0009711F00E943B0C80916F058E7F2C
:1020D00080936F0510929F0310929E0381E595E017
:1020E0009093A1038093A003E0916405F0916505AE
:1020F000908180916605892B808360E080917005D6
:102100000C944603CF93DF9380917405882321F1CB
:1021100082EA93E00E94DE01E091B403F091B503FE
:1021200080818F7E8083E091B403F091B50380813C
:10213000877F8083E091B403F091B50380818F772E
:102140008083E091B403F091B50380818F7D80831B
:102150008091BC038093BB0360E0809170050E9476
:102160004603809170050E94D702EC0180917405AE
:1021700081110E94D40F81E0CD2B09F080E0DF9126
:10218000CF9108950E948210882389F081E595E01F
:102190000E9445041816190664F481E595E00E9432
:1021A000070B8F3F91052CF48093CB050895109277
:1021B000CB050895CF93DF93EC0160E089810E9405
:1021C000460389810E94D70221E0892B09F420E08F
:1021D000822FDF91CF910895CF92DF92EF92FF92FD
:1021E0000F931F93CF93DF9328E030E041E06FEF30
:1021F00070E09FE0C92ED12CC3E2D0E007ED10E0E3
:1022000090913A05E0913B05F0913C05592F50958E
:10221000F42EF82281F0F894F2805F2152835181EC
:10222000592B5183DE011197F1F75281952B92833F
:102230007894F8010FC0F894F2805F2152835181A5
:10224000592B5183DB011197F1F75281952B928322
:102250007894F6013197F1F7440F2150310981F656
:10226000F894E0913B05F0913C05918180913A050D
:10227000809589238183E0913B05F0913C05928113
:1022800080913A05892B8283E0913B05F0913C05D2
:10229000928180913A058095892382837894DF9199
:1022A000CF911F910F91FF90EF90DF90CF90089505
:1022B00090913A05E0913B05F0913C05F8948181BD
:1022C000292F2095822381838281892B8283789490
:1022D0008DE743E050E0815039F1DA011197F1F7D1
:1022E00030813923C1F3F8948281822382838181F2
:1022F000892B81837894ABE7B7E01197F1F7F894D5
:102300008181282321838281892B8283A3E1B1E00B
:102310001197F1F78081982381E009F080E07894AB
:10232000E3E6F6E03197F1F70895CF92DF92EF926E
:10233000FF926B017C01E091B203F091B30382E064
:102340008083C11481EED806E104F104B1F060E0AD
:1023500079E08DE390E0A70196010E94E028DA0180
:10236000C9010197A109B109B695A79597958795D8
:102370009C01211580E13807B8F0E091B203F0919B
:10238000B303108260E874E88EE190E0A701960143
:102390000E94E028DA01C9010197A109B109B695A7
:1023A000A795979587959C01E091AE03F091AF03B7
:1023B0003083E091B003F091B10320831092BA030F
:1023C000E091B603F091B70386E08083E091B40317
:1023D000F091B503808180618083E091B403F09136
:1023E000B503808188608083E091B403F091B503E8
:1023F000808180688083E091B403F091B50380818F
:102400008F7D8083FF90EF90DF90CF900895CF93E2
:10241000DF938F3F910519F014F08FEF90E0EC01FE
:10242000C1308FEFD80714F4C1E0DFEF80914F0582
:10243000909150058C179D07E1F0D0935005C09303
:102440004F05D7FD07C061E089E495E00E949B0934
:10245000BE0109C060E089E495E00E949B096627FF
:1024600077276C1B7D0B80914905DF91CF910C94F0
:102470008203DF91CF910895682F89E495E00E944F
:10248000730984EF91E09093500580934F05089570
:10249000CF92DF92EF92FF920F931F93E82FF92FC5
:1024A00005C0015011092109310961F1908196237C
:1024B0009417B9F305C0015011092109310911F12F
:1024C000908196239413F7CFC12CD12CE12CF12CC1
:1024D0000AC08FEFC81AD80AE80AF80A0C151D05B9
:1024E0002E053F0579F080818623841791F36C2DAA
:1024F0007D2D8E2D9F2D1F910F91FF90EF90DF90DE
:10250000CF90089560E070E080E090E01F910F911F
:10251000FF90EF90DF90CF900895CF93DF93CDB7EA
:10252000DEB7EF970FB6F894DEBF0FBECDBF78943D
:1025300084B5826084BD84B5816084BD85B58260C8
:1025400085BD85B5816085BD80916E008160809379
:102550006E001092810080918100826080938100E2
:1025600080918100816080938100809180008160F2
:10257000809380008091B10084608093B10080914D
:10258000B00081608093B00080917A008460809375
:102590007A0080917A00826080937A0080917A003C
:1025A000816080937A0080917A00806880937A00BD
:1025B0001092C10061E08DE00E94460361E08DE071
:1025C0000E9400036CE271E080E090E00E94A604AB
:1025D00060E08DE00E94000360E072EC81E090E03A
:1025E0000E94951164EF71E080E090E00E94A604E3
:1025F00061E083E10E94460361E083E10E94000301
:1026000064E670E080E090E00E94A60461E083E16F
:102610000E94460360E083E10E94000364EF71E0E2
:1026200080E090E00E94A60480E00E94E103BC01EB
:10263000990F880B990B611571058105910511F0B2
:102640000E944A270E94060E0E94D40F8DE991E055
:102650000E94780F4091690450916A04609165046A
:102660007091660482EA93E00E94130187EA91E088
:102670000E94780F8E010F5F1F4F25E0200F2EAFB5
:10268000E0907F04F09080040E94E00480906F044A
:1026900090907004A0907104B09072049B01AC0102
:1026A000281939094A095B0949015A0139E0831699
:1026B0009104A104B10408F45CC060936F047093AA
:1026C000700480937104909372048BE694E00E94EE
:1026D0008309409173045091740460917504709162
:1026E0007604452B462B472B69F4AC01092E000CD0
:1026F000660B770B40937B0450937C0460937D04BE
:1027000070937E0440917B0450917C0460917D0421
:1027100070917E04841B950B97FF03C09195819562
:10272000910944979CF48091770490917804A0914A
:102730007904B0917A040196A11DB11D80937704AC
:1027400090937804A0937904B0937A0480917304F1
:1027500090917404A0917504B09176040196A11D26
:10276000B11D8093730490937404A0937504B09387
:1027700076048091730490917404A0917504B091D3
:1027800076040597A105B10571F5109273041092B6
:1027900074041092750410927604809177049091DD
:1027A0007804A0917904B0917A040397A105B1054A
:1027B00070F080917B0490917C04A0917D04B09195
:1027C0007E047C019093800480937F0404C0E09099
:1027D0007F04F09080041092770410927804109295
:1027E000790410927A04C70164E670E00E949D218A
:1027F0006830710528F4FB01E35FFE4F808101C062
:1028000080E0809369020E94E0040E94582720E043
:1028100030E04AE754E40E943F2220916502309163
:10282000660240916702509168020E94D221609333
:10283000610270936202809363029093640210922B
:10284000600282EA93E00E946001181619065CF4A7
:1028500081E0809360021092380282EA93E00E9445
:102860003E0180935F028FE994E00E94D60684EDDA
:1028700094E00E94D60680916002882311F40C94A3
:10288000F61D20915F0280915E02253561F4811171
:102890000AC080915D028F3F21F581E080935C0248
:1028A00080935E021EC020935D028823D1F0809148
:1028B0005C02823019F420935B0207C0833028F059
:1028C00090915B02915090935B0290E030913802BE
:1028D000FC01332319F0EC5FFD4F02C0E053FE4FC3
:1028E000208380915C028F5F843318F480935C02B4
:1028F00004C010925C0210925E0280915E028823F6
:1029000011F40C94F61D80915B0281110C94F61D5C
:1029100080915C02843010F40C94F61D10925E02DB
:1029200083E090E00E94E20DF82E8093510284E053
:1029300090E00E94E20D382F85E090E03FAF0E94CA
:10294000E20D282F3FAD323009F4B7C320F4313007
:1029500061F00C94F41D343011F40C94D61D353014
:1029600011F40C94F21D0C94F41D813059F08FEF8A
:102970002FAF0E947F0D85E50E947F0D8F2D0E9455
:102980007F0D2FAD86E090E02FAF0E94E20DC82EA4
:10299000E82EF12C2FAD822F90E08433910508F0C2
:1029A00087C3FC01EC5CFF4F0C94B12180911D05A5
:1029B00090E08E159F0529F06C2D8BE195E00E942B
:1029C00073090E94F50E6B017C018FEF0E947F0D51
:1029D00085E50E947F0D809151020E947F0DC70105
:1029E000B60137C387E090E00E94E20D20913805E0
:1029F00030E02E153F0541F42091390530E0482F95
:102A000050E02417350749F1F701EE0FFF1FE55B92
:102A1000FE4F908190933605E181E0933705C09297
:102A2000380580933905823009F0E92F8E2F90E028
:102A3000FC01E654FE4FE491E0933A05FC01EA55AF
:102A4000FE4FE491F0E0EE0FFF1FE456FE4F85913C
:102A5000949190933C0580933B050E9458118CEC17
:102A60000E94EC1084E40E94EC100E94E0046B01D0
:102A70007C0120913A05E0913B05F0913C05818174
:102A8000922F9095892381838281822B828383E296
:102A900090E00197F1F78081282311F40C94481FEE
:102AA0000E9458118CEC0E94EC108EEB0E94EC10EE
:102AB000D80128E030E051E040E060913A05E09133
:102AC0003B05F0913C05F8948181862B81838281BE
:102AD000762F70958723828387E090E00197F1F746
:102AE0008181782371838281862B828383E290E0C7
:102AF0000197F1F780817894EFECF0E03197F1F7EE
:102B0000862309F0452B550F21503109B1F64D931D
:102B10004EAD4A13CECF6A8170E0762F6627898149
:102B2000682B072E000C880B990B0E945A2720E077
:102B300030E040E85DE30E94B9278BC280910F0529
:102B400090E08E159F0551F06C2D8DE095E00E9470
:102B5000730960E080910E050E9446038DE095E0C8
:102B60000E94830915C287E090E00E94E20D482F81
:102B700020910B0530E02E153F0539F06C2D89E0D2
:102B800095E04FAF0E9473094FAD413059F489E091
:102B900095E00E948F0920913D0230913E028A5EAD
:102BA00091400CC0423071F489E095E00E948309A5
:102BB0008A5E914020913F0230914002BC01620F39
:102BC000731F02C060E070E0072E000C880B990BA9
:102BD0000E945A273EC280910F0590E08E159F05F6
:102BE00051F06C2D8DE095E00E94730960E08091BA
:102BF0000E050E9446038DE095E00E94DA1064C045
:102C000080910F0590E08E159F0579F06C2D8DE079
:102C100095E00E94730960E080910D050E944603D3
:102C200060E080910E050E94460360E080910D05F2
:102C30000E94460380910D050E94D7027C018DE021
:102C400095E00E94DA1061E070E0EF2811F460E096
:102C500070E0660F771F680F711DB6CF87E090E0B8
:102C60000E94E20D282F30E040910F0550E04E15F4
:102C70005F0511F00C94591F4091100550E0421768
:102C8000530711F00C94591F62E02130310591F483
:102C900080910D050E94460360E080910D050E9421
:102CA000460380910D050E94D70261E0892B69F0EF
:102CB00060E00BC080910E050E9446038DE095E018
:102CC0000E94DA1061E08627682F70E080E090E0D3
:102CD0000E945827BEC187E090E00E94E20DD82EE6
:102CE0008091960490E08E159F0529F06C2D84E963
:102CF00094E00E94730985E0F80111928A95E9F742
:102D000060E084E994E00E949B0964E170E080E067
:102D100090E00E94A60461E084E994E00E949B098F
:102D20008BE990E00197F1F760E084E994E00E947C
:102D30009B090E94E0044B015C0184E994E00E943D
:102D4000DA10811110C00E94E004DC01CB01881967
:102D50009909AA09BB090397A105B10570F310925F
:102D60009804109299040E94E0044B015C0184E9EC
:102D700094E00E94DA10882361F00E94E004DC01F4
:102D8000CB0188199909AA09BB090397A105B105C7
:102D900070F3E12CF12C0E94E0044B015C0184E90A
:102DA00094E00E94DA1081110CC00E94E004DC0162
:102DB000CB0188199909AA09BB090397A105B10597
:102DC00070F30E9481044B015C010E94E0042B011E
:102DD0003C0184E994E00E94DA10882361F00E94AB
:102DE000E004DC01CB0184199509A609B709039712
:102DF000A105B10570F30E948104DC01CB018819A3
:102E00009909AA09BB09F70123E0F595E7952A95E9
:102E1000E1F78997A105B10530F0E00FF11F80813E
:102E2000880F816004C0E00FF11F8081880F8083CC
:102E3000FFEFEF1AFF0A28E2E216F10409F0ABCF28
:102E400059814B81242F30E0250F311D8D8190E079
:102E50002817390721F45093980440939904D1100E
:102E600003C0F09098041EC1F09099041BC180919A
:102E7000900490E08E159F05D1F06C2D8EE894E0C3
:102E80000E94730980918E0490918F049093920414
:102E9000809393048091920460E00E9446038091A5
:102EA000930480938E048091920480938F048EE823
:102EB00094E022C080918A0490E08E159F05D1F0A5
:102EC0006C2D88E894E00E947309809188049091A9
:102ED000890490938C0480938D0480918C0460E02D
:102EE0000E94460380918D048093880480918C0415
:102EF0008093890488E894E00E948F09BC01990FAF
:102F0000880B990B0E945A2768C01A8219821C826A
:102F10001B821E821D82609165047091660461159A
:102F2000710539F04091690450916A04C8010E940A
:102F30003F02DD80ED2CFE8084E00E947F0D8D2D10
:102F40000E947F0DC12CD12CCE14DF04ACF48D81F6
:102F50009E81C816D90648F489819A81009729F084
:102F6000FC01EC0DFD1D808101C080E00E947F0D01
:102F70003FEFC31AD30AE8CF89819A810E94502576
:102F800097C060E08C2D0E9446038C2D0E94D702D2
:102F9000BC01990F880B990B1BCEF701EE0FFF1F99
:102FA000EB5EFE4FF08060E08F2D0E9446038F2D78
:102FB0000E94E103EDCF87E090E00E94EE0D7C01DE
:102FC00060E08C2D0E944603A701FF0C660B770B77
:102FD0008C2D0E94C80E0E9458270E94840D68C044
:102FE00087E090E00E94E20DF82E61E08C2D0E94B7
:102FF000460360E08C2D0E94000383E090E001977F
:10300000F1F761E08C2D0E94000383E290E00197CC
:10301000F1F760E08C2D0E94000360E08F2D0E948C
:10302000460340E355E760E070E08F2D0E94C80E34
:103030000E94582720E030E048E652E40E943F22F8
:1030400008C0609161027091620280916302909168
:1030500064020E94A20D2CC08091840490E08E1521
:103060009F0529F06C2D82E894E00E94730982E8A4
:1030700094E00E94DA10F82E15C080916D0490E063
:103080008E159F0529F06C2D8BE694E00E94730944
:10309000E090690287E090E00E94E20DFF24F39443
:1030A000E812F12C81E00E947F0D8F2D0E947F0D90
:1030B00087EA91E00E94780F97C586E090E02FAFF5
:1030C0000E94E20DD82E882E912C2FAD243109F4C8
:1030D0007BC430F5283009F402C2D0F4233009F45F
:1030E00059C4253009F07EC51092000186E090E0B9
:1030F0000E94EE0D7C0189E00E943C12C7010E94F3
:10310000071288E090E00E94EE0D7C018AE030C05A
:103110002A3031F108F433C32B3009F4DCC262C524
:10312000223209F485C490F4203209F474C408F002
:10313000E2C42E3109F056C561E00E94460387E0E3
:1031400090E00E94E20D682F8D2DD2C4223309F445
:103150001AC52C3309F4A2C2283209F043C50CC0A9
:103160001092000187E090E00E94EE0D7C018D2D11
:103170000E943C12C70134C587E090E00E94EE0D2A
:103180007C0189E090E00E94E20D809339028AE0A0
:1031900090E00E94E20D80933A028BE090E00E9462
:1031A000E20D80933B028CE090E00E94E20D809360
:1031B0003C024090390250903A0260903B0270907D
:1031C0003C0241E08416910409F0C1C061E0C801ED
:1031D0000E94BB098B819C81AD81BE818093A1043B
:1031E0009093A204A093A304B093A4048F8180932E
:1031F000A50488859985AA85BB858093A6049093AC
:10320000A704A093A804B093A9048C859D85AE85DE
:10321000BF858093AA049093AB04A093AC04B093B1
:10322000AD04488959896A897B894093AE045093DB
:10323000AF046093B0047093B1044C895D896E89CA
:103240007F894093B2045093B3046093B4047093A5
:10325000B504488D598D6A8D7B8D4093B60450938B
:10326000B7046093B8047093B9044C8D5D8D6E8D76
:103270007F8D4093BA045093BB046093BC04709359
:10328000BD0448A159A16AA17BA14093BE045093FB
:10329000BF046093C0047093C1044CA15DA16EA1F2
:1032A0007FA14093C2045093C3046093C4047093FD
:1032B000C50448A559A56AA57BA54093C6045093AB
:1032C000C7046093C8047093C9044CA55DA56EA59E
:1032D0007FA54093CA045093CB046093CC047093B1
:1032E000CD0448A959A96AA97BA94093CE0450935B
:1032F000CF046093D0047093D1042CA92093D204FE
:103300002DA92093D30484159505A605B70561F072
:103310004092AA045092AB046092AC047092AD0447
:103320008FE994E00E94AC07B701FF0C880B990B62
:103330000E945A276B017C01AB01BC018FE994E02C
:103340000E941809B701A6018FE994E0C5C052E0B8
:103350008516910409F046C462E0C8010E94BB09C9
:103360008B819C81AD81BE818093D6049093D704DC
:10337000A093D804B093D9048F818093DA04888510
:103380009985AA85BB858093DB049093DC04A09388
:10339000DD04B093DE048C859D85AE85BF8580936A
:1033A000DF049093E004A093E104B093E204488921
:1033B00059896A897B894093E3045093E4046093BC
:1033C000E5047093E6044C895D896E897F8940939A
:1033D000E7045093E8046093E9047093EA04488D8D
:1033E000598D6A8D7B8D4093EB045093EC04609370
:1033F000ED047093EE044C8D5D8D6E8D7F8D40934A
:10340000EF045093F0046093F1047093F20448A128
:1034100059A16AA17BA14093F3045093F4046093F3
:10342000F5047093F6044CA15DA16EA17FA14093B9
:10343000F7045093F8046093F9047093FA0448A5D4
:1034400059A56AA57BA54093FB045093FC046093A7
:10345000FD047093FE044CA55DA56EA57FA5409369
:10346000FF0450930005609301057093020548A97D
:1034700059A96AA97BA94093030550930405609359
:103480000505709306052CA9209307052DA9209307
:10349000080584159505A605B70561F04092DF047F
:1034A0005092E0046092E1047092E20484ED94E0B2
:1034B0000E94AC07B701FF0C880B990B0E945A279A
:1034C0006B017C01AB01BC0184ED94E00E94180902
:1034D000B701A60184ED94E00E94350783C387E01D
:1034E00090E00E94E20DA82E88E090E00E94E20D9C
:1034F000F82E89E090E00E94E20DE82E8AE090E04C
:103500000E94E20DC82E8BE090E00E94E20DB82EE2
:1035100080912B0590E08815990541F480912C0548
:1035200090E02A2D30E08217930759F1D0922B05B5
:10353000F401EE0FFF1FE55BFE4F918190932A058A
:1035400080818093290522E0A212C4C4292F30E093
:10355000F901E654FE4FE491E0933505F901EA558F
:10356000FE4FE491F0E0EE0FFF1FEE56FE4F259167
:103570003491309332052093310561E0892F0E9408
:103580004603FF2039F1FA942F2D30E080912D056C
:1035900090912E052817390708F047C08F2D880F06
:1035A000F80E8F2D90E0E0912F05F0913005E80F97
:1035B000F91FC082E0912F05F0913005E80FF91F47
:1035C000E18220912F0530913005F901E80FF91FB4
:1035D000B2822BC020E030E080912D0590912E0525
:1035E0002817390710F5A901552748175907D0F4AE
:1035F000E22FEE0FE20F8E2F90E0E0912F05F09179
:103600003005E80FF91FC082E0912F05F0913005D9
:10361000E80FF91FE182E0912F05F0913005E80FE6
:10362000F91FB2822F5F3F4FD7CFA0913105B091E4
:1036300032058091350520912D0530912E05A90187
:10364000440F551F240F351F70912F0560913005D1
:103650005FB7F8944C91982F90959423842BE72F83
:10366000F62F2E0F3F1FE217F30781F0419168E01C
:103670008C9300C047FF9C93440F00C000C000C063
:1036800008F49C9300C06A9599F7EDCF5FBF61E0A5
:1036900070E080E090E00E94A604A4C288E090E080
:1036A0000E94E20DE82E89E090E00E94E20D90E198
:1036B000E91298C28FAF0E94060E8FAD823030F4AF
:1036C00090E090935A02809359028CC210925A0251
:1036D0001092590287C287E090E00E94E20DB40187
:1036E000660F771FFB01E55BFE4F813011F4E08030
:1036F00001C0E180F12C88E090E00E94E20DD82E1C
:10370000E1E4F2E020E030E0419151914E155F0597
:1037100089F0452B41F4F901EE0FFF1FEF5BFD4FE0
:10372000F182E08207C02F5F3F4F2830310561F7FB
:1037300020E030E0F901EE0FFF1F2E0F3F1FF901CF
:10374000E453FA4F80819181A28189839A83AB836C
:10375000E4EBED1508F446C2898190E0FC01EE0F20
:10376000FF1F8E0F9F1FFC01E05CFB4F808187FDD8
:1037700004C0B701C8010E94B9056D2DFFC1809139
:10378000130590E08815990551F1D0921305F401C5
:10379000EE0FFF1FE55BFE4F818180931205908144
:1037A000909311058093190590931A0561E00E948A
:1037B000460361E080911A050E94460380E48093ED
:1037C000150580EC809316058AE88093170580E242
:1037D00089838A838B838C83C8010E948A0F87E048
:1037E00090E00E94E20D8093390288E090E00E9410
:1037F000E20D80933A0289E090E00E94E20D80930E
:103800003B028AE090E00E94E20D80933C024090EF
:10381000390250903A0260903B0270903C0219824B
:103820001A821B821C8220E030E0A901C301B20190
:103830000E94532787FF09C077FA709477F8709435
:1038400081E289838824839401C0812CFDEFAF2E0F
:10385000BB24BA94A3E02A2E312C912C37FC4CC007
:10386000B1016F5F7F4F072E000C880B990B0E94F0
:103870005A279B01AC0160E070E080E291E40E9475
:1038800044236B017C019B01AC01C301B2010E9486
:103890003F220E94E7226EAB7FAB88AF99AFB101A8
:1038A000032C000C880B990B0E945A279B01AC013A
:1038B00060E070E080E291E40E9444236AAF7BAF55
:1038C0008CAF9DAFA70196016EA97FA988AD99AD78
:1038D0000E94B9279B01AC01C301B2010E94D22111
:1038E0002AAD3BAD4CAD5DAD0E943F220E94E72268
:1038F0000E94B122CB0123C020E030E040E251E43D
:10390000C301B2010E94B927F2E0AF16B10484F0FE
:1039100020E030E040E251E40E94B92722E0A21604
:10392000B10431F020E030E040E251E40E94B927D8
:103930000E94B122CB016AE070E00E949D2118161E
:1039400019062CF0222019F0992089F009C02110C5
:1039500007C0F801E80DF11D60E1680F608304C045
:10396000F801E80DF11D808383949924939433E04A
:10397000381560F041E0241A31085FEFA51AB50A46
:103980008CEF28168FEF380609F068CFC8010E9427
:103990008A0F28C180910F0590E08815990529F0BC
:1039A0006D2D8DE095E00E94730987E090E00E9404
:1039B000E20DF82E61E080910D050E94460361E062
:1039C000F1101DC060E01BC080910F0590E08815CC
:1039D000990529F06D2D8DE095E00E94730987E02F
:1039E00090E00E94E20DF82E282F30E061E02230B6
:1039F000310544F480910D050E9446036F2D80919E
:103A00000D0576C02230310509F460E08DE095E0C7
:103A10000E949B09E7C061E00E94460387E090E0B6
:103A20000E94E20D682F70E08D2D0E948203DAC0A3
:103A300061E00E94460387E090E00E94EE0D7C0169
:103A400089E090E00E94EE0D3C01D0923F041816F0
:103A500019060CF046C0970140E050E060E472E4C3
:103A60008FE090E00E94772849015A01790137FFE1
:103A700003C09FEFE91AF90A17013594279461E012
:103A80008D2D0E94460328EE33E0D3010E94B7211A
:103A90002B013C01092C000CAA08BB0880E090E037
:103AA000DC016C017D01C80CD91CEA1CFB1C8415CF
:103AB0009505A605B70508F095C061E080913F0423
:103AC0000E940003C1010E94F80360E080913F045E
:103AD0000E940003C1010E94F803A895D701C60106
:103AE000E0CF61E08D2D0E94460360E080913F04AD
:103AF0000E94000377C087E090E00E94E20DF82E5C
:103B0000E1E4F2E020E030E041915191481559059F
:103B100089F0452B41F4F901EE0FFF1FEF5BFD4FDC
:103B20009182808207C02F5F3F4F2830310561F7B7
:103B300020E030E0F901EE0FFF1F2E0F3F1FF901CB
:103B4000E453FA4F80819181A28189839A83AB8368
:103B5000E4EBEF1508F446C0898190E0FC01EE0F1C
:103B6000FF1F8E0F9F1FFC01E05CFB4F808187FDD4
:103B700004C0B401C8010E94B9056F2D70E0C801EE
:103B80000E9436052FC00E94E0040E94582720E0C2
:103B900030E04AE754E40E943F226093650270934C
:103BA000660280936702909368021CC089E00E94BD
:103BB0003C1280E090E00E9407128AE00E943C12D2
:103BC00080E090E00E94071281E00E943C1280E0B9
:103BD00090E00E94071282E00E943C1280E090E098
:103BE0000E9407120E94D80D10925C020E94C2101F
:103BF0008091CB0580935202843409F491C02091C6
:103C0000590230915A02232B09F0ABC08C3109F4D0
:103C100071C0F0F4893009F455C060F4873009F4BC
:103C200057C0883009F097C081E08093000189E88F
:103C300090E071C0883109F469C0893161F18C303C
:103C400009F089C081E08093000184E490E063C0C2
:103C50008A3409F443C058F48034B9F0823409F04E
:103C60007AC081E0809300018EEC90E054C08A35E8
:103C7000D9F18E3509F444C0823509F06CC081E079
:103C80008093000185EE90E046C081E080930001C2
:103C90000E943E0E66C081E08093000189E00E9490
:103CA0003C12E0900101F0900201C7010E9407124E
:103CB0008AE00E943C12882799278E199F090E944A
:103CC00007124FC081E0809300010E94140E49C08A
:103CD00081E0809300010E942C0E43C081E080931C
:103CE00000018CEF90E017C081E08093000187EB2A
:103CF00090E011C081E08093000180EA90E00BC069
:103D000081E08093000182E790E005C081E080932C
:103D100000018BE590E0909302018093010121C0A6
:103D20000E94060E0E948210882319F00E94C21081
:103D3000F9CF8091590290915A02019682309105F3
:103D400029F090935A02809359020BC010925A02A4
:103D50001092590206C080910001813011F40E9436
:103D6000060E8091590290915A02019709F08CC079
:103D70000E94F50E0E94B122709358026093570280
:103D800082E10E94E103BC01990F880B990B611538
:103D900071058105910511F00E944A278091570213
:103DA000909158029C012B5031092D31310508F5B5
:103DB0000E9445272CE231E040E050E00E94772845
:103DC00070935602609355026F3B71058105910512
:103DD00054F080915302811106C081E08093540217
:103DE0000E942C0E51C081E0809353020E94140E59
:103DF0004BC00A970CF042C00E9445272CE231E0EC
:103E000040E050E00E94772870935602609355027C
:103E10006F3B710581059105B4F089E00E943C1269
:103E2000E0900101F0900201C701F7FC0196959521
:103E300087950E9407128AE00E943C1288279927E2
:103E40008E199F0918C089E00E943C12E090010180
:103E5000F0900201C7010E9407128AE00E943C1202
:103E6000970137FF02C02F5F3F4FC9019595879596
:103E70009195819591090E94071206C010925402F3
:103E8000109253020E943E0E0E9400020C944013B6
:103E90000E94E004DC01CB018C199D09AE09BF0929
:103EA0008E3E9240A105B10510F40C9439150C9486
:103EB0005015F701EE0FFF1FE55BFE4F90819093C9
:103EC0000D05918190930E05C0920F05809310050A
:103ED0000C944416282F30E0F901E654FE4FE4918B
:103EE000E0933505F901EA55FE4FE491F0E0EE0F5D
:103EF000FF1FEE56FE4F25913491309332052093EB
:103F0000310561E03CCBCF93DF93809165049091C4
:103F100066040E94502580912F05909130050E94E3
:103F20005025C1E5D5E081E891E0998388838091AF
:103F3000BF059091C0050E94502581E791E09983CB
:103F40008883CE01DF91CF910C943B0CCF93DF930C
:103F50001092A5031092A40388EE93E0A0E0B0E0D5
:103F60008093A6039093A703A093A803B093A903FB
:103F700029E231E03093A3032093A20325EC30E043
:103F80003093AF032093AE0324EC30E03093B103C1
:103F90002093B00320EC30E03093B3032093B203BE
:103FA00021EC30E03093B5032093B40322EC30E0F1
:103FB0003093B7032093B60326EC30E03093B90377
:103FC0002093B8031092BB031092BC031092BD0360
:103FD0001092BE0321E030E03093F1052093F0050C
:103FE0001092F2061092F3061092F4061092F50663
:103FF0001092F6061092F7061092F8061092F90643
:104000001092FA061092FB061092FC061092FD0622
:104010001092FE061092FF06109201071092000700
:1040200010920207109203071092040710920507DE
:1040300010920607109207071092080710920907BE
:1040400010920A071092E7051092E6058093E805A2
:104050009093E905A093EA05B093EB0589E391E01D
:104060009093E5058093E40580916404ACECB5E0A1
:104070009FEF48EB5BE08C3078F48C93282F30E096
:10408000F901EE0FFF1F2E0F3F1FF901E05CFB4F00
:10409000528341838F5F01C09C93139625E0A43E19
:1040A000B20749F78093640466E080E795E00E94D8
:1040B000AB09109254051092530588EE93E0A0E0EE
:1040C000B0E08093550590935605A0935705B093A3
:1040D000580581E791E09093520580935105109225
:1040E00068051092670510926A0510926905109292
:1040F0006C0510926B0510926E0510926D05609123
:104100006F056E7F6D7F60936F056695617081E0CE
:10411000682780E10E94000361E080E10E9446037D
:10412000EAECF1E0E491E0936105E6EBF1E0E49183
:10413000F0E0EE0FFF1FEE56FE4F859194919093A5
:1041400063058093620560E081E10E9446038091EF
:104150006F0581FD04C061E081E10E94000381E1FF
:1041600080935D05EBECF1E0E491E0935E05E7EB15
:10417000F1E0E491F0E0EE0FFF1FE456FE4F859171
:1041800094919093600580935F0581E891E090930E
:104190005205809351051092C0051092BF051092F0
:1041A000C2051092C1051092C4051092C30540E0EB
:1041B00050E069EA71E08FEB95E00E943F021092B7
:1041C000760510927505909171059093C7058091C1
:1041D00070058093C80521E030917205353009F0F3
:1041E00020E02093740521E931E0309352052093BB
:1041F00051059093C9058093CA0560E089E495E074
:104200000E94AB0986E395E00E94F70989E295E0F8
:104210000E94F70980E290E090932E0580932D058F
:1042200080E690E00E94BB249093300580932F0598
:10423000892B21F48AEA91E00E94C72620E030E031
:1042400080912D0590912E05AC01440F551F840FD0
:10425000951F2817390750F4E0912F05F09130058C
:10426000E20FF31F10822F5F3F4FEACF63E08BE135
:1042700095E00E94AB0981E195E00E94F7098DE08D
:1042800095E00E94F70960E089E095E00E94AB09A3
:1042900060E081EA94E00E94AB09C9E4D1E0D093E8
:1042A000A004C0939F0460E086ED94E00E94AB09F7
:1042B000D093D504C093D4048BE994E00E94F7090D
:1042C00088E080933F0460E084E994E00E94AB09B9
:1042D00060E08EE894E00E94AB0960E088E894E03A
:1042E0000E94AB0960E082E894E00E94AB098BE693
:1042F00094E00E94F70910926604109265041092EF
:1043000068041092670410926A041092690449E0EC
:1043100050E066EC71E085E694E0DF91CF910C947B
:104320003F02991B79E004C0991F961708F0961B6D
:10433000881F7A95C9F78095089597FB072E16F484
:10434000009407D077FD09D00E94BE2107FC05D05C
:104350003EF4909581959F4F0895709561957F4F9C
:104360000895EE0FFF1F0590F491E02D09940E942F
:104370000229B7FF0895821B930B0895AA1BBB1B4C
:1043800051E107C0AA1FBB1FA617B70710F0A61B55
:10439000B70B881F991F5A95A9F780959095BC0176
:1043A000CD0108955058BB27AA270E94EA210C94FA
:1043B0003D280E942F2838F00E94362820F039F43A
:1043C0009F3F19F426F40C942C280EF4E095E7FB9B
:1043D0000C942628E92F0E944E2858F3BA1762073A
:1043E00073078407950720F079F4A6F50C947028DC
:1043F0000EF4E0950B2EBA2FA02D0B01B901900100
:104400000C01CA01A0011124FF27591B99F0593F43
:1044100050F4503E68F11A16F040A22F232F342F8B
:104420004427585FF3CF469537952795A795F040D9
:104430005395C9F77EF41F16BA0B620B730B840BEE
:10444000BAF09150A1F0FF0FBB1F661F771F881FA6
:10445000C2F70EC0BA0F621F731F841F48F48795FE
:1044600077956795B795F7959E3F08F0B0CF9395F0
:10447000880F08F09927EE0F9795879508950E9469
:1044800053220C943D280E94362858F00E942F2871
:1044900040F029F45F3F29F00C94262851110C9428
:1044A00071280C942C280E944E2868F39923B1F3AC
:1044B000552391F3951B550BBB27AA27621773074A
:1044C000840738F09F5F5F4F220F331F441FAA1FDE
:1044D000A9F335D00E2E3AF0E0E832D0915050409A
:1044E000E695001CCAF72BD0FE2F29D0660F771F48
:1044F000881FBB1F261737074807AB07B0E809F02E
:10450000BB0B802DBF01FF2793585F4F3AF09E3FB2
:10451000510578F00C9426280C9471285F3FE4F341
:10452000983ED4F3869577956795B795F7959F5FF5
:10453000C9F7880F911D9695879597F90895E1E041
:10454000660F771F881FBB1F621773078407BA07A0
:1045500020F0621B730B840BBA0BEE1F88F7E095FB
:1045600008950E94B8226894B1110C94712808959E
:104570000E94562888F09F5798F0B92F9927B75175
:10458000B0F0E1F0660F771F881F991F1AF0BA95F7
:10459000C9F714C0B13091F00E947028B1E00895BD
:1045A0000C947028672F782F8827B85F39F0B93FAF
:1045B000CCF3869577956795B395D9F73EF49095AA
:1045C0008095709561957F4F8F4F9F4F08950E9402
:1045D000272390F09F3748F4911116F00C9471281E
:1045E00060E070E080E89FEB089526F41B16611DE3
:1045F000711D811D0C94FE220C941923882371F4E3
:10460000772321F09850872B762F07C0662311F46B
:1046100099270DC09051862B70E060E02AF09A95A2
:10462000660F771F881FDAF7880F9695879597F999
:1046300008959F3F31F0915020F4879577956795C5
:10464000B795880F911D9695879597F908950E94C3
:104650005628A0F0BEE7B91788F4BB279F3860F44E
:104660001616B11D672F782F8827985FF7CF86958C
:1046700077956795B11D93959639C8F308950E9473
:10468000952708F48FEF0895FA01EE0FFF1F30967B
:1046900021053105A1F16115710561F48038BFE391
:1046A0009B0749F168949038810561F08038BFEF2D
:1046B0009B0741F099234AF5FF3FE10531052105AC
:1046C00019F1E8940894E795D901AA2329F4AB2FAE
:1046D000BE2FF85FD0F310C0FF5F70F4A695E0F72F
:1046E000F73950F019F0FF3A38F49F779F930DD0C7
:1046F0000F9007FC9058089546F00C942C2860E029
:1047000070E080E89FE308954FE79F775F934F93B2
:104710003F932F930E943F242F913F914F915F91A0
:104720000E94B9270C949C2329F416F00C94262897
:104730000C9470280C942C280E945628A8F39638C4
:10474000A0F707F80F92E8942BE33AEA48EB5FE70B
:104750000E94CF270F920F920F924DB75EB70F9224
:104760000E948724E0EDF0E00E94CE234F915F91FC
:10477000EF91FF91E595EE1FFF1F49F0FE57E068AE
:104780004427EE0F441FFA95E1F74195550B0E941F
:1047900001240F9007FE0C94F5230895DF93CF9327
:1047A0001F930F93FF92EF92DF927B018C0168942D
:1047B00006C0DA2EEF010E94CC27FE01E894A591F5
:1047C0002591359145915591A6F3EF010E94EA217B
:1047D000FE019701A801DA9469F7DF90EF90FF904E
:1047E0000F911F91CF91DF9108959B01AC0160E083
:1047F00070E080E89FE30C943F220C9426280C94F0
:1048000019230E945628D8F39923C9F3940F511DF8
:10481000A3F39150504094F059F0882332F0660F82
:10482000771F881F91505040C1F79E3F51052CF7CC
:10483000880F911D9695879597F908955F3FACF085
:10484000983E9CF0BB27869577956795B79508F4B9
:10485000B1609395C1F7BB0F58F711F460FFE8CF33
:104860006F5F7F4F8F4F9F4FE3CF0C94712816F0EF
:104870000C9419230C942C2868940C9426280E94DC
:104880005628A8F39923C1F3AEF3DF93CF931F9378
:104890000F93FF92C92FDD2788232AF02197660FF7
:1048A000771F881FDAF720E030E040E85FEB9FE3F6
:1048B000883920F0803E38F021968F770E94D321EE
:1048C000E8EFF0E004C00E94D321E5E2F1E00E94AD
:1048D000CE238B01BE01EC01FB2E6F57710975953C
:1048E000771F880B990B0E945A2728E132E741E392
:1048F0005FE30E94CC27AF2D9801AE01FF900F918E
:104900001F91CF91DF910E94EA210C943D28FA017A
:10491000DC01AA0FBB1F9B01AC01BF5728F4222763
:1049200033274427507820C0B75190F4AB2F002490
:10493000469537952795011CA395D2F3002071F079
:10494000220F331F441FB395DAF30ED00C94D221FB
:1049500061307105A0E88A07B94630F49B01AC01CB
:104960006627772788279078309621F02083318337
:10497000428353830895CF93DF938230910510F4DF
:1049800082E090E0E0910D07F0910E0720E030E02A
:10499000C0E0D0E0309711F14081518148175907AC
:1049A000C0F04817590761F482819381209719F06C
:1049B0009B838A832BC090930E0780930D0726C09C
:1049C0002115310519F04217530718F49A01BE0159
:1049D000DF01EF010280F381E02DDCCF21153105ED
:1049E00009F1281B390B2430310590F412968D9172
:1049F0009C9113976115710521F0FB0193838283CC
:104A000004C090930E0780930D07FD01329644C0B9
:104A1000FD01E20FF31F81939193225031092D93F1
:104A20003C933AC020910B0730910C07232B41F4A3
:104A3000209105013091060130930C0720930B075C
:104A400020910301309104012115310541F42DB766
:104A50003EB74091070150910801241B350BE091AE
:104A60000B07F0910C07E217F307A0F42E1B3F0B86
:104A70002817390778F0AC014E5F5F4F24173507D0
:104A800048F04E0F5F1F50930C0740930B07819324
:104A9000919302C0E0E0F0E0CF01DF91CF91089563
:104AA0000F931F93CF93DF93009709F48CC0FC0101
:104AB00032971382128200910D0710910E07011593
:104AC000110581F420813181820F931F20910B0702
:104AD00030910C072817390779F5F0930C07E0930C
:104AE0000B0771C0D80140E050E0AE17BF0750F48B
:104AF00012962D913C911397AD012115310509F1C5
:104B0000D901F3CF9D01DA01338322836081718162
:104B1000860F971F8217930769F4EC01288139816A
:104B2000260F371F2E5F3F4F318320838A819B8161
:104B300093838283452B29F4F0930E07E0930D07AE
:104B400042C01396FC93EE931297ED01499159914F
:104B50009E01240F351FE217F30771F480819181C4
:104B6000840F951F029611969C938E938281938158
:104B700013969C938E931297E0E0F0E0D801129682
:104B80008D919C911397009719F0F8018C01F6CF45
:104B90008D919C9198012E5F3F4F820F931F209122
:104BA0000B0730910C072817390769F4309729F45F
:104BB00010920E0710920D0702C0138212821093FA
:104BC0000C0700930B07DF91CF911F910F91089570
:104BD000A0E0B0E0EEEEF5E20C94AD28EC01009719
:104BE00021F4CB010E94BB24B8C0FC01E60FF71FE3
:104BF0009C0122503109E217F30708F4ACC0D90137
:104C00000D911C91119706171707B0F0053011058B
:104C100008F49FC0C80104978617970708F499C045
:104C200002501109061B170B019311936D937C938E
:104C3000CF010E9450258DC05B01A01AB10A4C0122
:104C4000800E911EA0910D07B0910E0740E050E03C
:104C5000E12CF12C109709F44AC0A815B905D1F53B
:104C60006D907C901197630182E0C80ED11CCA142C
:104C7000DB0480F1A3014A195B096A0182E0C80ED6
:104C8000D11C1296BC9012971396AC91B5E0CB163E
:104C9000D10440F0B282A38351834083D9016D9344
:104CA0007C930AC00E5F1F4FC301800F911FF90153
:104CB00091838083EB2DFA2FE114F10431F0D701B9
:104CC0001396FC93EE93129744C0F0930E07E09373
:104CD0000D073FC08D919C9111974817590708F413
:104CE000AC017D0112960D90BC91A02DB3CF8091A7
:104CF0000B0790910C0788159905E1F446175707A3
:104D0000C8F48091030190910401009741F48DB79C
:104D10009EB74091070150910801841B950BE8173D
:104D2000F907C8F4F0930C07E0930B07F9017183BE
:104D300060830FC0CB010E94BB247C01009759F017
:104D4000A801BE010E94B726CE010E945025C701CE
:104D500004C0CE0102C080E090E0CDB7DEB7EEE047
:104D60000C94C92881E090E0F8940C941129FB017F
:104D7000DC0102C001900D9241505040D8F70895D7
:104D8000FB01DC0101900D920020E1F708950F93E3
:104D90001F93CF93DF93E0911107F09112072381C6
:104DA00021FF1BC08C01D0E0C0E0F80181918F0190
:104DB0006091110770911207DB011896ED91FC913B
:104DC0001997882331F00995892B79F3DFEFCFEF1D
:104DD000ECCF8AE00995892B19F08FEF9FEF02C085
:104DE0008D2F9C2FDF91CF911F910F9108958F925E
:104DF0009F92AF92BF92CF92DF92EF92FF92CF93AA
:104E0000DF93EC01688179818A819B81611571054D
:104E10008105910521F464E279ED8BE597E02DE1C0
:104E200033EF41E050E00E94772849015A019B018D
:104E3000AC01A7EAB1E40E9496286B017C01ACEEBC
:104E4000B4EFA50194010E94A428DC01CB018C0DD4
:104E50009D1DAE1DBF1DB7FF03C00197A109B0483E
:104E600088839983AA83BB83BC01CD019F77DF919F
:104E7000CF91FF90EF90DF90CF90BF90AF909F9039
:104E80008F9008950E94F726089589E091E00E948E
:104E9000F72608956093090170930A0180930B012E
:104EA00090930C0108950E94952708F481E00895DD
:104EB000E89409C097FB3EF49095809570956195B4
:104EC0007F4F8F4F9F4F9923A9F0F92F96E9BB276A
:104ED0009395F695879577956795B795F111F8CFE6
:104EE000FAF4BB0F11F460FF1BC06F5F7F4F8F4F51
:104EF0009F4F16C0882311F096E911C0772321F047
:104F00009EE8872F762F05C0662371F096E8862FDE
:104F100070E060E02AF09A95660F771F881FDAF735
:104F2000880F9695879597F90895990F0008550F62
:104F3000AA0BE0E8FEEF16161706E807F907C0F01F
:104F400012161306E407F50798F0621B730B840B27
:104F5000950B39F40A2661F0232B242B252B21F401
:104F600008950A2609F4A140A6958FEF811D811DA1
:104F700008950E94CC270C943D280E942F2838F0D9
:104F80000E94362820F0952311F00C9426280C94CA
:104F90002C2811240C9471280E944E2870F3959FA0
:104FA000C1F3950F50E0551F629FF001729FBB2720
:104FB000F00DB11D639FAA27F00DB11DAA1F649FBC
:104FC0006627B00DA11D661F829F2227B00DA11D6F
:104FD000621F739FB00DA11D621F839FA00D611DF5
:104FE000221F749F3327A00D611D231F849F600D16
:104FF000211D822F762F6A2F11249F5750409AF03F
:10500000F1F088234AF0EE0FFF1FBB1F661F771FCA
:10501000881F91505040A9F79E3F510580F00C9495
:1050200026280C9471285F3FE4F3983ED4F38695CC
:1050300077956795B795F795E7959F5FC1F7FE2B35
:10504000880F911D9695879597F9089597F99F6711
:1050500080E870E060E008959FEF80EC0895002400
:105060000A941616170618060906089500240A94CD
:1050700012161306140605060895092E0394000C53
:1050800011F4882352F0BB0F40F4BF2B11F460FFE2
:1050900004C06F5F7F4F8F4F9F4F089557FD90580B
:1050A000440F551F59F05F3F71F04795880F97FBEC
:1050B000991F61F09F3F79F08795089512161306A6
:1050C0001406551FF2CF4695F1DF08C016161706D5
:1050D0001806991FF1CF869571056105089408950A
:1050E000E894BB2766277727CB0197F90895052E0B
:1050F00097FB1EF400940E948E2857FD07D00E9453
:10510000E02807FC03D04EF40C948E28509540956F
:10511000309521953F4F4F4F5F4F08959095809563
:10512000709561957F4F8F4F9F4F08950E94022980
:10513000A59F900DB49F900DA49F800D911D1124EB
:105140000895B7FF0C9496280E949628821B930B13
:1051500008952F923F924F925F926F927F928F921B
:105160009F92AF92BF92CF92DF92EF92FF920F93F6
:105170001F93CF93DF93CDB7DEB7CA1BDB0B0FB600
:10518000F894DEBF0FBECDBF09942A8839884888BD
:105190005F846E847D848C849B84AA84B984C88453
:1051A000DF80EE80FD800C811B81AA81B981CE0F4A
:1051B000D11D0FB6F894DEBF0FBECDBFED0108952F
:1051C000A1E21A2EAA1BBB1BFD010DC0AA1FBB1F0B
:1051D000EE1FFF1FA217B307E407F50720F0A21B7D
:1051E000B30BE40BF50B661F771F881F991F1A94EA
:1051F00069F760957095809590959B01AC01BD0114
:10520000CF010895A29FB001B39FC001A39F700D6D
:10521000811D1124911DB29F700D811D1124911DBE
:10522000089510E0C8EED0E004C0FE010E94B12154
:0C5230002196C93ED107C9F7F894FFCFC2
:10523C0001BE000000150780000100000001000005
:10524C0000020203040E000F0010001100120013E4
:10525C000014001500000000009701130160013ECE
:10526C00015201DE0100000000F60AE20ADB0AD856
:10527C000AD50AD40A00000000300300000B0A0310
:10528C00090C0D080200001011140F150E0607056D
:10529C0004000000000000000000000000000000FE
:1052AC0000150A1301690A810AFC09140A0000009E
:1052BC00003502130145046704FC09140A000000C0
:1052CC0000350213014504070BFC09140A566572DC
:1052DC0073696F6E3A20000D0A0054686572652080
:1052EC006973206E6F7420656E6F756768207370BC
:1052FC00616365210D0030612E30312E3030350068
:00000001FF
