:100000001BC300000C94C8600C94F9600C942A6126
:100010000C945B610C948C610C94BD610C94EE614A
:100020000C941F620C949E5E0C949E5E0C949E5EDB
:1000300034C300000C94EA3B30C300002EC3000020
:100040002CC300000C94AA5828C3000026C300004B
:1000500024C3000022C3000020C300000C9450629F
:100060001CC300000C94E5660C941B6716C30000CB
:1000700014C3000012C3000010C300000EC3000030
:100080000C94D7580AC3000008C3000006C3000040
:1000900004C3000002C3000000C300000C947F5C96
:1000A000FCC20000FAC200000C940459F6C2000021
:1000B000F4C20000F2C20000F0C200000C943159FA
:1000C000ECC20000EAC20000E8C200000C94906795
:1000D0000C94C667E2C200000C943B680C947168F3
:1000E000DCC20000FE1732165F1672167216A216D8
:1000F000EE177216031A031A031A031A031A031AC5
:10010000031AF916BC161717031A031A031A46170F
:1001100084189117AE17CE1771178916031A031A90
:100120000C181418031A031A031A031A3618231882
:10013000031A031A031A031A031A031A031A031AD7
:10014000031A031A031A031A6B187418031A031AF2
:10015000031A031A031A031A031A031ABD1898186C
:10016000031AC9186D19A2606C60746080608D609C
:10017000AE60BB60A463A963AE63B863C2633B6453
:10018000CC63D463DC63E663F063FA6309641364ED
:100190003B641D64276431645D6460644F64536430
:1001A00059649764646468646E64726476647C64A1
:1001B0008064846497648A648E649264084AD73B3E
:1001C0003BCE016E84BCBFFDC12F3D6C74319ABD26
:1001D00056833DDA3D00C77F11BED9E4BB4C3E914A
:1001E0006BAAAABE000000803F08000000BE922457
:1001F00049123EABAAAA2ABECDCCCC4C3E00000090
:1002000080BEABAAAAAA3E00000000BF000000808A
:100210003F0000000000084178D3BB4387D1133D65
:10022000190E3CC3BD4282AD2B3E68EC8276BED92E
:100230008FE1A93E4C80EFFFBE01C4FF7F3F00006D
:1002400000000007634236B79BD8A71A39685618D2
:10025000AEBAAB558C1D3CB7CC5763BD6DEDFD758B
:100260003EF6177231BF000000803F003F065B4F33
:10027000666D7D077F6F777C395E7971BF86DBCFD6
:10028000E6EDFD87FFEFF7FCB9DEF9F100407C44B5
:100290007C007C005C547454547C70107C74545CFE
:1002A0007C545C40407C7C547C74547C0004002072
:1002B00020200000002000000000000030007C82B0
:1002C000827C00310042FE0200003200468A9262C7
:1002D0000033004492926C0034001C64FE0400352C
:1002E00000F292928C0036007C92924C003700C053
:1002F0008E90E00038006C92926C0039006492920B
:100300007C006100042A2A1E006200FE12120C000A
:1003100063000C1212120064000C1212FE00650041
:100320001C2A2A18006600103E505000670008156D
:10033000151E006800FE101E00006900002E00005F
:10034000006A0002012E00006B00FE081412006C0F
:100350000000FE0200006D001E100E100E6E001E4A
:1003600010100E006F000C12120C0070001F121201
:100370000C0071000C12121F0072001E08101000F9
:10038000730012292512007400103E12000075003F
:100390001C02021E00761804020418007718061CBE
:1003A0000618007800120C0C120079001805051EC2
:1003B000007A0012161A120041007E88887E0042E0
:1003C00000FE92926C0043007C828244004400FE56
:1003D00082827C004500FE929282004600FE909050
:1003E000800047007C82925C004800FE1010FE00F6
:1003F000490082FE8200004A000C0202FC004B0011
:10040000FE1028C6004C00FE020202004D00FE4015
:100410003040FE4E00FE403008FE4F007C8282825B
:100420007C5000FE9090600051007C828A847A5259
:1004300000FE9894620053006492924C0054008035
:10044000FE8080005500FC0202FC005600F00C0209
:100450000CF05700FE043804FE5800C63838C600B9
:1004600059C0201E20C0005A00869AB2C2002C003B
:10047000010E0C00002E00000606000025725478C4
:100480001E2A4E2100007A0000003F00204A300062
:10049000002D0010101010002B08083E0808002F37
:1004A00000020C3040002A2214081422003A0000F6
:1004B000140000002200C000C000002328FE28FE17
:1004C00028002800007C820000290000827C0000B7
:1004D0003B0002240000007E0040804080003B0082
:1004E00002240000003D0028282828007C0000FE8F
:1004F0000000003E0082442810003C001028448286
:10050000004000000000000000000A0B02090C0D72
:100510000E080703040100000000000000000000B6
:1005200000000000000000000000000000000000CB
:100530000000000012111000000000000000000088
:1005400000000000000000000000000000000102A8
:1005500010202008081020401020408002010201D5
:10056000080402010102040810204080804020108D
:1005700008040201800402018040201008040201E6
:10058000080402010102040810204080010204084E
:100590001020408005050505070508080808020227
:1005A00002020A0A0808040404040101010101010D
:1005B00001010303030303030303040707070C0CF0
:1005C0000C0C0C0C0C0C02020202060606060606B7
:1005D00006060B0B0B0B0B0B0B0B00002000230074
:1005E000260029002C002F0032000001000003012A
:1005F0000601090100002200250028002B002E0022
:100600003100340002010000050108010B01000067
:100610002100240027002A002D00300033000101B2
:100620000000040107010A01F21407279E5B4D67D1
:10063000F867A3686B150B2711241FBECFEFD1E21B
:10064000DEBFCDBF00E00CBF13E0A0E0B2E0E2EB04
:10065000F4EE00E00BBF02C007900D92AA39B1077B
:10066000D9F72DE0AAE9B3E001C01D92AC35B2077D
:10067000E1F716E0C4E3D6E000E006C022970109E6
:10068000FE010BBF0E94906FC832D10780E00807BF
:10069000A9F70E94E7680C944872B2CCCF92DF921F
:1006A000EF92FF920F931F93E82FF92F05C001508F
:1006B00011092109310961F1908196239417B9F349
:1006C00005C0015011092109310911F190819623CA
:1006D0009413F7CFC12CD12CE12CF12C0AC08FEF51
:1006E000C81AD80AE80AF80A0C151D052E053F0598
:1006F00079F080818623841791F36C2D7D2D8E2DCA
:100700009F2D1F910F91FF90EF90DF90CF90089554
:1007100060E070E080E090E01F910F91FF90EF901B
:10072000DF90CF90089583E695E00E942D290E94E6
:100730000665892B21F483E695E00C94462983E62F
:1007400095E00C94382983EE94E00E942D290E94B4
:100750000665892B21F483EE94E00C94462983EE00
:1007600094E00C9438290C943A720C943272CF9223
:10077000DF92EF92FF920F931F93CF93DF931F921D
:100780001F92CDB7DEB76C018B017C0184E0E80ECF
:10079000F11CC60169837A830E943272F801819349
:1007A0008F01FFEFCF1ADF0A69817A81CE14DF044F
:1007B00081F7CB010F900F90DF91CF911F910F9197
:1007C000FF90EF90DF90CF900895EF92FF920F93FC
:1007D0001F93CF93DF931F92CDB7DEB77C01FC014F
:1007E00000811181C80169830E9432726981681792
:1007F00019F0C8010E943A72C7010F90DF91CF91A2
:100800001F910F91FF90EF900895BF92CF92DF92CA
:10081000EF92FF920F931F93CF93DF9300D0CDB74A
:10082000DEB78C01B62EE62EF72E6C0184E0C80EE2
:10083000D11CF70161917F011A830983CE010196D2
:100840007B83C3DF0F5F1F4F7B810C151D0589F76D
:100850008B2D972F0F900F900F90DF91CF911F91BD
:100860000F91FF90EF90DF90CF90BF900895CF92BF
:10087000DF92EF92FF920F931F93CF93DF931F921C
:100880001F92CDB7DEB76C018C0183E5E82EF12C09
:10089000F80161918F01FA82E982CE01019695DF1C
:1008A000FFEFEF1AFF0A87E5E816F10489F7C601A2
:1008B0000F900F90DF91CF911F910F91FF90EF90CC
:1008C000DF90CF9008956BEA80E590E04CDF6DEC0F
:1008D00081E590E048DF6BEA82E590E044DF8BE061
:1008E00092E0C5DF62E074E087E590E08EDF66E0CD
:1008F00074E08BE590E089DF6AE074E08FE590E0DA
:1009000084DF62EE73E083E690E07FDF66EE73E003
:1009100087E690E07ADF6AEE73E08BE690E075DFC1
:1009200062EC73E08FE690E070DF6FEE83E790E0BB
:100930001ADF6BEA82E890E016DF60919D0483E89D
:1009400090E011DF6FEE84E890E00DCF6BEA80E875
:1009500090E009DF6DEC81E890E005DF6BEA82E86A
:1009600090E001DF60919D0483E890E0FCDE6FEE93
:1009700084E890E0F8CE0F931F93CF93DF9380E548
:1009800090E0F3DE8B3A29F481E590E0EEDE8D3CD9
:1009900071F099DF80E890E0E8DE8B3A09F04BC017
:1009A00081E890E0E2DE8D3C09F045C049C082E577
:1009B00090E0DBDE8B3A09F037C083E790E0D5DECC
:1009C0008F3E91F50BE012E0C3E5D0E0CE010E942E
:1009D0003272F80181938F012196C735D105B1F7A5
:1009E00062E074E087E590E0C2DE66E074E08BE5EB
:1009F00090E0BDDE6AE074E08FE590E0B8DE62EE84
:100A000073E083E690E0B3DE66EE73E087E690E0A5
:100A1000AEDE6AEE73E08BE690E0A9DE62EC73E096
:100A20008FE690E0A4DEB6CF66E772E08BE79BE04E
:100A30000E945569AFCFDF91CF911F910F9186CF63
:100A400082E890E092DE8B3A81F484E890E08DDEDB
:100A50008F3E59F483E890E00E94327280939D04A7
:100A6000DF91CF911F910F9108956CE972E08BE7B0
:100A70009BE0DF91CF911F910F910C94556960918C
:100A800013027091140271956195710983E695E0E6
:100A90000E946E29609113027091140283EE94E01B
:100AA0000C946E29609113027091140283E695E014
:100AB0000E946E29609113027091140271956195E4
:100AC000710983EE94E00C946E2960911302709189
:100AD000140277FF02C06D5F7F4F7595679575951E
:100AE000679583E695E00E946E29609113027091EC
:100AF000140271956195710983EE94E00C946E294E
:100B0000609113027091140283E695E00E946E29B1
:100B1000609113027091140277FF02C06D5F7F4FE6
:100B2000759567957595679571956195710983EED2
:100B300094E00C946E2960911302709114027195E7
:100B40006195710983E695E00E946E296091130218
:100B50007091140277FF02C06F5F7F4F75956795A4
:100B600083EE94E00C946E2960911302709114024C
:100B700077FF02C06F5F7F4F75956795719561959F
:100B8000710983E695E00E946E29609113027091CD
:100B9000140283EE94E00C946E296091130270911C
:100BA000140271956195710983E695E00E946E29A2
:100BB000609113027091140271956195710983EE31
:100BC00094E00C946E29609113027091140283E6F4
:100BD00095E00E946E29609113027091140283EED9
:100BE00094E00C946E2960E070E083E695E00E944A
:100BF0006E2960E070E083EE94E00C946E298BE740
:100C00009BE00C944269FC01ED59FB4F808180937D
:100C1000BF0481818093C0048091BF049091C0047F
:100C20000895A1ECB4E0FC01ED59FB4F80818C9359
:100C300081818093C20482818093C30483818093E5
:100C4000C4046D917D918D919C910895FC01ED59A5
:100C5000FB4F80818093C10481818093C204828193
:100C60008093C30483818093C4046091C104709114
:100C7000C2048091C3049091C4040895EEEAF3E0A5
:100C800020E030E08D599B4F2617370744F4DC01F4
:100C9000A20FB31F4C9141932F5F3F4FF5CFFB0144
:100CA000E255FC4F10828EEA93E00895EEE9F3E0FE
:100CB00020E030E08D599B4F261737075CF4203138
:100CC000310541F0DC01A20FB31F4C9141932F5F1E
:100CD0003F4FF2CF8EE993E00895FC01DB011296BD
:100CE0004D915D916D917C911597428353836483FF
:100CF000758316968C911697868317964D915D9104
:100D00006D917C911A9747835087618772871B96F4
:100D10004D915D916D917C911E97438754876587B6
:100D200076871F964D915D916D917C915297478783
:100D3000508B618B728B53964D915D916D917C912F
:100D40005697438B548B658B768B57964D915D915F
:100D50006D917C915A97478B508F618F728F5B9604
:100D60004D915D916D917C915E97438F548F658F0E
:100D7000768F5F964D915D916D917C919297478FA3
:100D800050A361A372A393964D915D916D917C9157
:100D9000969743A354A365A376A397964D915D912F
:100DA0006D917C919A9747A350A761A772A79B96D4
:100DB0004D915D916D917C919E9743A754A765A736
:100DC00076A79F964D915D916D917C91D29747A7A3
:100DD00050AB61AB72ABD3968C91D39783ABD49667
:100DE0008C9184ABCF010895CF93DF93EC0186E41F
:100DF00093E099838883CE0182599F4F0E94CC69EA
:100E0000CE01DF91CF910C941C5FE7EAF4E020E083
:100E100030E0419151914817590791F0452B41F429
:100E2000F901EE0FFF1FE955FB4F9183808308C046
:100E30002F5F3F4F2C30310561F780E090E008953F
:100E4000C90108954F925F926F927F928F929F9205
:100E5000AF92BF92CF92DF92EF92FF920F931F93C8
:100E6000CF93DF93CDB7DEB7E9970FB6F894DEBF27
:100E70000FBECDBF70906904803209F46DC240F599
:100E80008A3009F445C078F4853009F455C020F45F
:100E9000833009F430C2E9C4883009F43FC1893095
:100EA00009F4B9C1E2C48C3009F402C108F48FC15D
:100EB000843109F432C28E3109F0D7C461E0872D44
:100EC0000E94986460916A04872D0E94D164CDC409
:100ED000823309F495C258F4823209F448C208F406
:100EE00066C28832D1F1893209F4AAC1BEC48D33F9
:100EF000F1F038F4843309F496C28C3309F448C114
:100F0000B4C48E3309F4D8C2803409F4D1C3ADC45B
:100F100087E090E078DE8C01672D8FEF97E00E94EC
:100F20002026B8018FEF97E00E942C269EC47110F6
:100F30009CC410916A041FC386E090E064DEBC018B
:100F400083E695E00E945A2988E090E05CDEBC01CF
:100F500083EE94E00E945A2988C487E090E053DE33
:100F60008C0189E090E072DE4B015C0181E0781237
:100F700025C061E0CE0101960E949253BE016F5FD1
:100F80007F4F87E196E0A9DEB501A40187E196E0F5
:100F90000E94A755B801882777FD8095982F0E9459
:100FA000DE6B4B015C01AB01BC0187E196E00E9466
:100FB000BD55B501A40187E196E027C0E2E07E12AD
:100FC00027C062E0CE0101960E949253BE016F5F7E
:100FD0007F4F8CE496E081DEB501A4018CE496E0BD
:100FE0000E94A755B801882777FD8095982F0E9409
:100FF000DE6B4B015C01AB01BC018CE496E00E940E
:10100000BD55B501A4018CE496E00E9417562DC48D
:10101000F3E07F1225C063E0CE0101960E94925357
:10102000BE016F5F7F4F81E896E057DEB501A401F6
:1010300081E896E00E94A755B801882777FD809542
:10104000982F0E94DE6B4B015C01AB01BC0181E873
:1010500096E00E94BD55B501A40181E896E0D5CF88
:1010600084E0781202C464E0CE0101960E9492539B
:10107000BE016F5F7F4F86EB96E02FDEB501A401C6
:1010800086EB96E00E94A755B801882777FD8095EA
:10109000982F0E94DE6B4B015C01AB01BC0186EB1B
:1010A00096E00E94BD55B501A40186EB96E0ADCF58
:1010B00020916A0488E090E028AFA5DD8C018AE0E9
:1010C00090E0AFDD4B015C0128AD213071F4B80137
:1010D000882777FD8095982F0E94DE6B8B019C01FD
:1010E000B501A40189EC94E010C0223009F0BDC321
:1010F000B801882777FD8095982F0E94DE6B8B01C1
:101100009C01B501A40183ED94E00E94682868E287
:1011100070E080E090E00E94C962A7C310916A0469
:1011200090906B04B0906C04A0906D0400916E04DC
:101130008FED97E0772059F00E943445871188C3DE
:101140008FED97E00E943745811382C30AC00E9449
:101150003445811184C38FED97E00E943745811398
:101160007EC3992049F06FEF690D2A2D4B2D8FED2D
:1011700097E00E94F54507C0202F4A2D6B2D8FED7B
:1011800097E00E94A7468FED97E00E94D3466DC37B
:1011900010916A04E1E17E1268C325DD153050F438
:1011A00010939D0483E890E0E0DA811709F45DC3B1
:1011B000612F09C010929D0483E890E0D6DA88235D
:1011C00009F453C360E083E890E0CDDA4EC3809128
:1011D0006A04E72DF0E0EE0FFF1FED5AFD4F81305E
:1011E00011F4008101C00181B0906B0410E0C801CE
:1011F0000CDEFC01EE0FFF1FE80FF91FE95FF74F50
:1012000020813181428129833A834B83F4EBFB15A2
:1012100008F42BC3E3C083ED97E00E9434458715A3
:1012200029F0672D83ED97E00E94911F87E090E001
:10123000F8DCAB01BC0183ED97E00E94B21F15C33F
:101240008EE997E00E943445871529F0672D8EE9D5
:1012500097E00E94703D80916A048130C1F4109142
:101260006B0440916C0460916D04772767FD709565
:101270008BE090E049AF02DD612F772767FD709525
:101280009C0149AD8EE997E00E948C3FEEC282300E
:1012900099F4B0906B0440916C0460E170E08AE0D6
:1012A00090E049AF03DD8C0120E149AD6B2D8EE963
:1012B00097E00E94973DD9C2833079F421E0809174
:1012C0006B04811101C020E040916D0460916C04B9
:1012D0008EE997E00E94C63FC8C2843009F0C5C2BB
:1012E00088E090E09EDCAB01BC0123E08EE997E052
:1012F0000E949640BAC28FEC97E00E943445871551
:1013000029F0672D8FEC97E00E94984561E080916D
:101310006A04811113C060E011C08FEC97E00E9455
:101320003445871529F0672D8FEC97E00E9498458A
:1013300080916A04823038F4682F61708FEC97E0F6
:101340000E945C4592C261E0823009F460E08FEC5B
:1013500097E00E946C4589C261E0872D0E949864E5
:1013600060916A0470E0872D0E9480637EC261E014
:10137000872D0E94986487E090E045DC5C0189E05D
:1013800090E041DC672D70E0181619065CF48C01C2
:10139000222717FD2095322FA50183E196E00E94B8
:1013A0002A2063C283E196E00E94F6205EC2B090DC
:1013B0006A0484EB8B1508F458C2072D10E0C801AD
:1013C00024DDFC01EE0FFF1FE80FF91FE95FF74F67
:1013D00020813181428129833A834B83CE0101965A
:1013E0000E94C55A811105C0B801CE0101960E9424
:1013F000295A6B2D70E0CE0101960E94615A35C2C8
:101400000E949A620E94DC6B20E030E04AE754E4DC
:101410000E94436B60935F04709360048093610447
:101420009093620422C2711020C287E090E0EBDB4F
:101430008C0189E090E0E7DBBC01882777FD80958F
:10144000982F0E94DE6B20E030E040E85EE30E94CF
:10145000566D4B015C016093EE037093EF03809334
:10146000F0039093F103B801882777FD8095982FBA
:101470000E94DE6B90582CEE31E548E35EE30E945B
:10148000566D6093CE037093CF038093D0039093F7
:10149000D103C501B4010E94AB6B9B0177FF04C06F
:1014A00022273327261B370B223031050CF4DDC1F0
:1014B00081E080932904D9C110916A04E1E07E1291
:1014C00032C088E090E0C2DB4B015C018CE090E030
:1014D0009ADB97FF03C0919581959109113091F4A2
:1014E000BC01882777FD8095982F0E94DE6B8B01C9
:1014F0009C01C12CD12CE12CF12CB501A40183E677
:1015000095E0D3C0123009F0B0C1BC01882777FD47
:101510008095982F0E94DE6B8B019C01C12CD12CF1
:10152000E12CF12CBEC0F2E07F1222C088E090E0F6
:101530006ADB113061F4BC01882777FD8095982F14
:101540000E94DE6BAB01BC0183E695E00EC0123059
:1015500009F08BC1BC01882777FD8095982F0E94E8
:10156000DE6BAB01BC0183EE94E00E945B2B7DC17E
:1015700083E078120DC088E090E045DBBC011130BB
:1015800021F0123009F071C1E3CC83E695E0E2CCA2
:10159000E4E07E1213C0113031F440E050E0BA01B3
:1015A00083E695E008C0123009F05FC140E050E0EA
:1015B000BA0183EE94E00E94322957C1F5E07F1210
:1015C00054C188E090E042DB4B015C018CE090E08C
:1015D0001ADB1130B9F4BC01882777FD8095982F6C
:1015E0000E94DE6B2B013C0144275527BA014819A4
:1015F00059096A097B09C12CD12CE12CF12C9301EA
:10160000820149C01230F9F4BC01882777FD80952A
:10161000982F0E94DE6B2B013C01C12CD12CE12CB8
:10162000F12C8B019C01B501A40183E695E00E9499
:101630009D2B44275527BA01481959096A097B0986
:101640009301820130C0133091F4BC01882777FDEB
:101650008095982F0E94DE6B2B013C01B094A094E2
:1016600090948094811C911CA11CB11C0CC014305E
:1016700009F0FBC0BC01882777FD8095982F0E9458
:10168000DE6B2B013C01C12CD12CE12CF12C930100
:101690008201B501A40183E695E00E949D2B930190
:1016A0008201B501A40183EE94E00E949D2BDDC070
:1016B000A0906A04B0906B048091C5049091C60418
:1016C0000097B1F04F960E9434458A15B1F1009110
:1016D000C5041091C6040115110551F080EF92E088
:1016E000F80191838083C8017FDBC8010E94F46800
:1016F00081E691E00E94F3688C016A2D0E94744893
:101700001093C6040093C50440E052EC61E070E021
:10171000C8010E94424765E070E080E090E00E94CE
:10172000C9628091C5049091C6040E94094B62E38E
:1017300070E080E090E00E94C962F1E07F120AC090
:1017400040916C046B2D8091C5049091C6040E9459
:10175000774D8BC082E078120EC000916E0420910C
:101760006D0440916C046B2D8091C5049091C6046A
:101770000E94054E7AC0E3E07E1208C06B2D809176
:10178000C5049091C6040E94B44E6FC0F4E07F126D
:101790001AC089E090E05ADA9B01AC018DE090E03C
:1017A00028AF3EAB49AF5FAB3CDA7B018C0128AD83
:1017B0003EA949AD5FA96B2D8091C5049091C604E7
:1017C0000E948B4B52C085E078121AC089E090E0ED
:1017D0003DDA9B01AC018DE090E028AF3EAB49AF14
:1017E0005FAB1FDA7B018C0128AD3EA949AD5FA933
:1017F0006B2D8091C5049091C6040E943F4C35C06A
:10180000E6E07E120CC089E090E0FDD9AC016B2DC2
:101810008091C5049091C6040E94384F26C0F7E01D
:101820007F1208C06B2D8091C5049091C6040E9460
:10183000F34C1BC088E0781218C028E230E040E08A
:101840006B2D8091C5049091C6040E94C54F0DC0B8
:10185000412F672D8FED97E00E94444682CC6CE2C9
:101860008FED97E00E947C467CCCE9960FB6F89409
:10187000DEBF0FBECDBFDF91CF911F910F91FF90C3
:10188000EF90DF90CF90BF90AF909F908F907F9020
:101890006F905F904F900895BC01882777FD8095E9
:1018A000982F0E94DE6B9B01AC0160E070EC8FE72B
:1018B00094E40E94436B20E030E040E85FE30E9444
:1018C000786A9B01AC0160E070E48CE196E40E94D0
:1018D000436B20E030E44CE156E40E94436B0E94ED
:1018E000166D20E030E443E555E40E94436B2FE0A1
:1018F0003FEC4BE55BE30E94796A9B01AC0160E041
:1019000070E080E89FE30E94436B23E333E948E8FB
:1019100053E40C94786A08958AE30E945B63909381
:10192000A2048093A104BC01882777FD8095982F9D
:101930000E94DE6B20E030E040E85AE30E94566DE2
:1019400020E030E040E751E40C94566D08954F924A
:101950005F926F927F928F929F92AF92BF92CF923F
:10196000DF92EF92FF920F931F93CF93DF9300D0FC
:101970001F92CDB7DEB786E197E00E949031905874
:1019800060935704709358048093590490935A04B9
:1019900020910E0430910F044091100450911104D5
:1019A0000E94786A6B017C01809016049090170465
:1019B000A0901804B09019040E94AB6B672B79F0CB
:1019C000A7019601C501B4010E94796A60931604CB
:1019D00070931704809318049093190408C0109210
:1019E0001604109217041092180410921904809093
:1019F000470490904804A0904904B0904A04809213
:101A00001A0490921B04A0921C04B0921D04209111
:101A10000204309103044091040450910504C7016D
:101A2000B6010E94566D6B017C0120911604309125
:101A300017044091180450911904609106047091A4
:101A4000070480910804909109040E94566D9B013F
:101A5000AC01C701B6010E94796A6B017C0120913B
:101A60000A0430910B0440910C0450910D04C501FF
:101A7000B4010E94566D9B01AC01C701B6010E94E2
:101A8000796A6B017C0120E030E0A9010E94066DBB
:101A900020E030E040EA50E418162CF4C701B6010B
:101AA0000E94796A04C0C701B6010E94786A6093F7
:101AB00012047093130480931404909315044090BF
:101AC0001204509013046090140470901504C09098
:101AD000D203D090D303E090D403F090D503A701B4
:101AE0009601C301B2010E94786A4B015C01C301F7
:101AF000B2019058A70196010E94786A6B017C019F
:101B000080912904882349F01092430410924404E0
:101B100010924504109246043DC083E695E00E9471
:101B2000542969837A838B839C8383EE94E00E949B
:101B300054292B013C0169817A818B819C810E940F
:101B4000AB6B8B0177FF04C000271127061B170B17
:101B5000C301B2010E94AB6B9B0177FF04C0222737
:101B60003327261B370BB801621B730B882777FDC1
:101B70008095982F0E94DE6B2DEC3CEC4CE85FE3E7
:101B80000E94566D6093430470934404809345040F
:101B90009093460440904304509044046090450460
:101BA0007090460420E030E0A901C301B2010E9418
:101BB000066D20E030E0A9011816D4F5C501B40186
:101BC0000E94066D1816CCF4C301B2010E94AB6BE3
:101BD0009B0177FF04C022273327261B370BB9014F
:101BE000882777FD8095982F0E94DE6B9B01AC01C2
:101BF000C701B6010E94786A18C0C301B2010E94F1
:101C0000AB6B9B0177FF04C022273327261B370BC2
:101C1000B901882777FD8095982F0E94DE6B9B0184
:101C2000AC01C701B6010E94796A6B017C0142C018
:101C3000C301B2010E943F6B87FF3CC020E030E04F
:101C4000A901C701B6010E94066D1816CCF4C301A4
:101C5000B2010E94AB6B9B0177FF04C022273327A0
:101C6000261B370BB901882777FD8095982F0E9496
:101C7000DE6B9B01AC01C501B4010E94786A18C0FB
:101C8000C301B2010E94AB6B9B0177FF04C0222706
:101C90003327261B370BB901882777FD8095982FAE
:101CA0000E94DE6B9B01AC01C501B4010E94796A00
:101CB0004B015C0120E030E04FE753ECC501B4017B
:101CC0000E943F6B87FD11C020E030E04FE753E4F6
:101CD000C501B4010E94066D18166CF4812C912C7C
:101CE0008FE7A82E83E4B82E06C0812C912C0FE735
:101CF000A02E03ECB02E20E030E04FE753ECC701FC
:101D0000B6010E943F6B87FD11C020E030E04FE735
:101D100053E4C701B6010E94066D18166CF4C12C7D
:101D2000D12C1FE7E12E13E4F12E06C0C12CD12CDB
:101D3000BFE7EB2EB3ECFB2EC501B4010E94AB6BE9
:101D400083E695E00E946E29C701B6010E94AB6B45
:101D500083EE94E00F900F900F900F90DF91CF9152
:101D60001F910F91FF90EF90DF90CF90BF90AF90B9
:101D70009F908F907F906F905F904F900C946E2902
:101D80004F925F926F927F928F929F92AF92BF928B
:101D9000CF92DF92EF92FF920F931F93CF93DF9337
:101DA00083EE94E00E9454296B017C0183E695E068
:101DB0000E9454299B01AC01C701B6010E94786AB8
:101DC00020E030E040E05FE30E94566D4B015C0193
:101DD000C090EE03D090EF03E090F003F090F10399
:101DE0002DEC3CEC4CE45FE360914F0470915004A7
:101DF00080915104909152040E94566D2B013C0138
:101E00002DEC3CEC4CE45EE3C701B6010E94566D3C
:101E10009B01AC01C301B2010E94796A60934F0437
:101E2000709350048093510490935204809129043C
:101E3000882361F1C501B4010E94AB6B695F7F4FDC
:101E40006F30710518F520E030E0A901C701B60137
:101E50000E943F6B81111AC01092290410924F0406
:101E600010925004109251041092520480914B042D
:101E700090914C04A0914D04B0914E048093F603D0
:101E80009093F703A093F803B093F90320914F04C4
:101E9000309150044091510450915204C501B40155
:101EA0000E94786A6B017C012091F6033091F70360
:101EB0004091F8035091F9030E94796A8B01D82F61
:101EC000C92F8091290420E030E84BEB54ECB80195
:101ED000882309F471C08D2F9C2F0E943F6B87FDD2
:101EE00010C020E030E84BEB54E4B8018D2F9C2F5C
:101EF0000E94066D18164CF400E010E8DBEBC4E419
:101F000004C000E010E8DBEBC4ECC801AD2FBC2F2F
:101F10008093F6039093F703A093F803B093F9032B
:101F20002091E2033091E3034091E4035091E503F3
:101F3000C701B6010E94566D4B015C012091E6037A
:101F40003091E7034091E8035091E903B8018D2FE8
:101F50009C2F0E94566D9B01AC01C501B4010E94EB
:101F6000796A8B01D82FC92F20E030E040E751EC8F
:101F70000E943F6B87FD10C020E030E040E751E455
:101F8000B8018D2F9C2F0E94066D18164CF400E0AE
:101F900010E0D0E7C1E404C000E010E0D0E7C1ECFD
:101FA000A8016D2F7C2F4093F2035093F3036093AD
:101FB000F4037093F50398C08D2F9C2F0E943F6B04
:101FC00087FD10C020E030E84BEB54E4B8018D2FC2
:101FD0009C2F0E94066D18164CF400E010E8DBEB15
:101FE000C4E404C000E010E8DBEBC4ECC801AD2F92
:101FF000BC2F8093F6039093F703A093F803B0935C
:10200000F9032091E2033091E3034091E4035091FE
:10201000E503C501B4010E94566D6B017C0120915E
:10202000E6033091E7034091E8035091E903B801DA
:102030008D2F9C2F0E94566D9B01AC01C701B601EC
:102040000E94796A6B017C0120E030E040E751ECAE
:102050000E943F6B87FD0FC020E030E040E751E475
:10206000B601C7010E94066D181654F4C12CD12C7C
:1020700090E781E407C0C12CD12C90E781EC02C02D
:102080009E2D8F2DA601692F782F4093F203509338
:10209000F3036093F4037093F5032DEC3CEC4CE4F4
:1020A0005FE360914B0470914C0480914D049091DA
:1020B0004E040E94566D4B015C012DEC3CEC4CE44F
:1020C0005EE3B8018D2F9C2F0E94566D9B01AC01E1
:1020D000C501B4010E94796A60934B0470934C046B
:1020E00080934D0490934E042091F2033091F303BA
:1020F0004091F4035091F50360910B0270910C0232
:1021000080910D0290910E020E94786A60930E04F5
:1021100070930F048093100490931104DF91CF917A
:102120001F910F91FF90EF90DF90CF90BF90AF90F5
:102130009F908F907F906F905F904F9008958091C7
:102140002A04811111C086E197E00E9490310E941B
:10215000AB6B9B0177FF04C022273327261B370B6D
:10216000253031050CF477C080912A04882309F4C6
:102170007CC086E197E00E9490310E94AB6B9B018E
:1021800077FF04C022273327261B370B2132310566
:102190000CF46BC010929D0310929C0360E070E001
:1021A00083E695E00E946E2960E070E083EE94E0A3
:1021B0000E946E291092F6031092F7031092F80312
:1021C0001092F90380910B0290910C02A0910D02E4
:1021D000B0910E0280930E0490930F04A09310040C
:1021E000B09311041092EE031092EF031092F003DB
:1021F0001092F1031092CE031092CF031092D003ED
:102200001092D10340E050E0BA0183E695E00E94CD
:10221000322940E050E0BA0183EE94E00E94322976
:102220001092F6031092F7031092F8031092F9033C
:1022300010922A0410924F041092500410925104EC
:1022400010925204109253041092540410925504A8
:1022500010925604089580919C0390919D030196DD
:1022600090939D0380939C037FCF80919C039091DA
:102270009D0345970CF44CC010929D0310929C0353
:102280001092F6031092F7031092F8031092F903DC
:1022900060E070E083E695E00E946E2960E070E007
:1022A00083EE94E00E946E2980910B0290910C02C3
:1022B000A0910D02B0910E0280930E0490930F0432
:1022C000A0931004B093110440E050E0BA0183E6FB
:1022D00095E00E94322940E050E0BA0183EE94E09C
:1022E0000E9432290E949A6260933F0470934004D6
:1022F000809341049093420460933B0470933C04A8
:1023000080933D0490933E0481E080932A040895D5
:102310000895CF92DF92EF92FF9211DF80912A040D
:10232000882309F472C00E949A62C0903F04D09042
:102330004004E0904104F09042046C197D098E093C
:102340009F096B3071058105910558F000DB0E94F3
:102350009A6260933F047093400480934104909389
:1023600042040E949A62C0903B04D0903C04E090EA
:102370003D04F0903E046C197D098E099F09653675
:1023800071058105910508F450C0FADC2DEC3CEC98
:102390004CE45FE3609153047091540480915504C0
:1023A000909156040E94566D6B017C012DEC3CEC23
:1023B0004CE45EE36091CE037091CF038091D00333
:1023C0009091D1030E94566D9B01AC01C701B601EB
:1023D0000E94796A60935304709354048093550467
:1023E000909356046093D2037093D3038093D403E5
:1023F0009093D5030E949A6260933B0470933C04CF
:1024000080933D0490933E0410C060E070E083E64A
:1024100095E00E946E2960E070E083EE94E0FF900A
:10242000EF90DF90CF900C946E29FF90EF90DF90AB
:10243000CF900895CF93DF9380919C0790919D0753
:10244000892B79F48BE790E00E94F368EC0168E057
:102450000E94823BD0939D07C0939C07CE010E94AF
:10246000973B80919C0790919D070E94C63B80916D
:102470009C0790919D070E94C13B80939A048434ED
:1024800009F48DC090919D04933009F0A7C0893163
:1024900009F447C008F5893009F447C078F487305B
:1024A00009F447C0883009F095C080910F029091DF
:1024B0001002880F991F880F991F66C0863109F492
:1024C00089C0883109F45AC08C3009F083C08091EA
:1024D0000F029091100258C08A3479F168F4803468
:1024E000E1F0823481F18C3109F074C020910F0247
:1024F0003091100245E032C08A3559F18E35A1F194
:10250000823509F067C080910F029091100263E05C
:10251000880F991F6A95E1F737C0DF91CF910C942E
:102520003F05DF91CF910C945205DF91CF910C9430
:10253000B405DF91CF910C949B0520910F0230914F
:10254000100249E00BC020910F023091100247E0C9
:1025500005C020910F023091100246E0429FC00159
:10256000439F900D112410C020910F023091100252
:10257000C901880F991F820F931F06C080910F0217
:1025800090911002880F991F209111023091120230
:10259000820F931F90931402809313021FC00E9416
:1025A000F30580919C0790919D070E94A63B88238C
:1025B00039F080919C0790919D070E94C63BF1CF16
:1025C00080919D048F5F80939D04853039F4109233
:1025D0009D0404C0DF91CF910C94F305DF91CF915E
:1025E00008958DED94E00E94A74228E730E03093F3
:1025F000140220931302813059F028F0823099F0B0
:10260000833001F108950E943F058AE090E015C0F3
:102610000E943F0580919F049091A0048230910513
:102620004CF101970AC00E943F0580919F04909150
:10263000A00484319105F4F401969093A004809352
:102640009F04089580919F049091A0040A9711F42B
:102650000E94520580919F049091A0040A9714F45F
:102660000E94CD0580919F049091A0040B9714F0D7
:102670000C94E3050895CF92DF92EF92FF920F93AF
:102680001F93CF93DF93CDB7DEB72A970FB6F89499
:10269000DEBF0FBECDBF65E070E080E090E00E943D
:1026A000C96226E040E052EC61E070E08BE79BE01D
:1026B0000E94676665E070E080E090E00E94C96279
:1026C00083E695E00E94282943E050E063E973E047
:1026D0000E94576083EE94E00E94282943E050E076
:1026E00063EA73E00E9457606CE28FED97E00E940E
:1026F0007C466DE270E083E196E00E94272000E0D6
:1027000020E040E060E08FED97E00E9418468FEDFA
:1027100097E00E94D34624E630E040E050E068EEC7
:1027200073E083E196E00E94922083E196E00E94AC
:10273000012168ED72E08BE79BE00E94416962E253
:1027400074E08BE79BE00E9445692FE088E190E010
:102750000FB6F894A895809360000FBE2093600098
:1027600065E070E080E090E00E94C96289E597E052
:102770000E94923765E070E080E090E00E94C962BC
:10278000A89586E197E00E94923765E070E080E0CE
:1027900090E00E94C96261E08DE00E94986461E06F
:1027A000CE0101960E94EB268AE0FE013196A9EC4B
:1027B000B4E001900D928A95E1F762E0CE010196B6
:1027C0000E94EB268AE0FE013196A3EDB4E0019071
:1027D0000D928A95E1F789EC94E00E94CA2783ED77
:1027E00094E00E94CA27A895A89540E050E0BA015D
:1027F00089EC94E00E94D52740E050E0BA0183EDD7
:1028000094E00E94D52781E0809380008AE0809345
:10281000810083E08093B00082E08093B10069E0A2
:1028200070E083E695E00E94FC2B69E070E083EEA7
:1028300094E00E94FC2B67E270E083E695E00E9442
:10284000002C67E270E083EE94E00E94002C7AE9AD
:10285000C72E79E9D72EED2C7FE3F72E00E010E0AC
:10286000980146E656E666EE7FE383E695E00E9431
:10287000DE2B00E010E0980146E656E666EE7FE3C8
:1028800083EE94E00E94DE2BC12CD12C76019701BF
:1028900086014CEE51E568E37EE383E695E00E9415
:1028A000C42B970186014CEE51E568E37EE383EE8D
:1028B00094E00E94C42B60E070E083E695E00E9403
:1028C000102C60E070E083EE94E00E94102C1092D7
:1028D0002C0410922B0480910B0290910C02A09179
:1028E0000D02B0910E0280930E0490930F04A093FA
:1028F0001004B093110480E090E0A8E8B1E4809364
:10290000020490930304A0930404B0930504C092BE
:102910000604D0920704E0920804F09209048DECBA
:102920009CECACE4BEEB80930A0490930B04A09360
:102930000C04B0930D048DEC9CECACECBDEB8093DF
:10294000E2039093E303A093E403B093E5038FE6DF
:1029500092E1A3E0BCEB8093E6039093E703A0939E
:10296000E803B093E9030E94BB040E949A6260935B
:102970003F04709340048093410490934204609319
:102980003B0470933C0480933D0490933E04609319
:102990003704709338048093390490933A040E946A
:1029A0009A62609333047093340480933504909357
:1029B00036040E949A6260932F04709330048093CF
:1029C0003104909332042A960FB6F894DEBF0FBEFE
:1029D000CDBFDF91CF911F910F91FF90EF90DF90CE
:1029E000CF900895CF93DF93C7E0D8E0CE010E9447
:1029F0005E59239688E0CB32D807C1F78FEF97E076
:102A00000E9410268CEE97E00E94B2568FED97E060
:102A10000E94EC4583ED97E00E94081E8FEC97E042
:102A20000E941B458EE997E00E941D3D48E660E04C
:102A300089E597E00E94753149E661E086E197E01B
:102A40000E9475318FEE96E00E940B218BEE96E08E
:102A50000E94A33CC7E1D6E0CE010E948453E596D4
:102A600086E0CB3ED807C1F783E196E00E942120A3
:102A70008CE096E00E949F3A86E096E00E944B31FF
:102A800080E096E00E9460318AEF95E00E943E5718
:102A900083EE95E00E94711D61E083E695E00E945F
:102AA000C02962E083EE94E00E94C02969E08DEDC8
:102AB00094E00E94A64289EC94E00E94FB2683EDFC
:102AC00094E00E94FB2662EE72E082E294E0DF91E5
:102AD000CF910C94336A82E294E00E94CC698FED2E
:102AE00097E00C94EB46682F8BE79BE00C94036611
:102AF0008FEFF9DF85E5F7CF8FEFF5DF85E5F3DFC2
:102B00000C94FF05CF93C82F81E0EDDF8C2FCF9180
:102B1000EACFEF92FF920F931F93CF93DF937C0145
:102B2000FC01C4810C2F158184E0DDDF8C2FDBDFFD
:102B3000C0E0D0E0C017D1073CF4BE01C7010E943D
:102B4000766AD1DF2196F6CFDF91CF911F910F9159
:102B5000FF90EF900895FF920F931F93CF93DF9311
:102B60001F92CDB7DEB78B01F82E82E09983BBDFD1
:102B7000A8016F2D9981792F4093C1045093C2040D
:102B80006093C3047093C404802FADDF8091C204AE
:102B9000AADF8091C304A7DF8091C4040F90DF9166
:102BA000CF911F910F91FF909ECF1F93CF93DF93F3
:102BB00000D0CDB7DEB7182F86E069837A839B8378
:102BC00092DF69816093C1047A817093C20410938B
:102BD000C3049B819093C404862F85DF8091C20437
:102BE00082DF8091C3047FDF8091C4040F900F9037
:102BF0000F90DF91CF911F9176CF1F93CF93DF93EB
:102C00001F92CDB7DEB7182F83E099836CDF109346
:102C1000BF0499819093C004812F65DF8091C00427
:102C20000F90DF91CF911F915ECFCF92DF92EF9205
:102C3000FF920F931F93CF93DF93CDB7DEB7279704
:102C40000FB6F894DEBF0FBECDBF10916904482FB8
:102C500050E04134510508F0D6C3FA01EE58FF4F59
:102C60000C946B6F8091DD079091DE07009751F017
:102C70000E943445811791F08091DD079091DE0725
:102C80000E94F4688EE090E00E94F3687C01612F5E
:102C90000E944457F092DE07E092DD0760E971E0A0
:102CA0008091DD079091DE070E94C3576B017C0184
:102CB0001FDF80919E0417DFC701B601A3C30091F7
:102CC0006A048CEE97E00E94344581137FC38CEE3A
:102CD00097E00E943745801379C38CEE97E00E94FD
:102CE000D05690C38FEC97E00E943445811761F075
:102CF000612F8FEC97E00E9498458FEC97E00E943F
:102D0000BE4560E00E9498648FEC97E00E94884581
:102D10002BC08FEC97E00E943445811761F0612F42
:102D20008FEC97E00E9498458FEC97E00E94BE459B
:102D300060E00E9498648FEC97E00E9488450E94B2
:102D40004C0C60C300916A048BEE96E00E943445FF
:102D5000811729F0612F8BEE96E00E949845602F35
:102D60008BEE96E00E94A63CBC01882777FD8095FB
:102D7000982F0E94DE6B46C380919C0790919D071F
:102D80000097B9F04F960E943445811709F1E09001
:102D90009C07F0909D07E114F10459F088E193E05D
:102DA000F70191838083C7010E94F406C7010E9446
:102DB000F4688BE790E00E94F3687C01612F0E9429
:102DC000823BF0929D07E0929C07C7010E94973BCF
:102DD00080919C0790919D070E94C13B682F809332
:102DE0009A048FEF860F8E3FE0F060E070E0CB0139
:102DF00009C38FEC97E00E943445811761F0612F81
:102E00008FEC97E00E9498458FEC97E00E94BE45BA
:102E100060E00E94986460E08FEC97E00E944B4570
:102E2000682F70E080E090E00E94DC6BEBC28FECDA
:102E300097E00E943445811799F0612F8FEC97E05D
:102E40000E9498458FEC97E00E94BB4560E00E948D
:102E500098648FEC97E00E94BE4560E00E94986401
:102E600060E08FEC97E00E943A45182F60E08FEC0D
:102E700097E00E944B45612F70E0660F771F680F47
:102E8000711D882777FD8095982F73CF00916A0474
:102E90008FEC97E00E94344581139FC28FEC97E03E
:102EA0000E943745801399C28FEC97E0013061F49E
:102EB0000E94BB4562E00E94986460E08FEC97E05E
:102EC0000E943A458027ACCF0E94BE4562E00E9436
:102ED000986460E08FEC97E00E944B4561E06827C2
:102EE000A0CF8FEE96E00E9434458117A9F0612FA4
:102EF0008FEE96E00E9498458FEE96E00E94BE45C8
:102F0000482F8FEE96E04F830E94BB454F81682F7C
:102F10008FEE96E00E94F8248FEE96E00E94002546
:102F200071C200916A048CE096E00E9434458117DA
:102F300029F0612F8CE096E00E9498458CE096E0A5
:102F40000E94A23A602F8CE096E00E947B3B182FF3
:102F5000CFDD80919E04C7DD812F19C186E096E008
:102F60000E9434458117A9F0612F86E096E00E9407
:102F7000984586E096E00E94BB45482F86E096E0A3
:102F80004F830E94BE454F81682F86E096E00E94E5
:102F90004E3186E096E00E945E319DC180E096E071
:102FA0000E9434458117A9F0612F80E096E00E94CD
:102FB000984580E096E00E94BB45482F80E096E06F
:102FC0004F830E94BE454F81682F80E096E00E94AB
:102FD000633180E096E00E9473317DC160916A04A4
:102FE000111102C289E597E06F830E948B316F81D6
:102FF000883609F008C289E597E002C262E274E00F
:10300000CE0101960E945D6ACE01019682DDCE015D
:1030100001960E94CC69F7C160E0812F0E949864FC
:10302000812F0E940665A0CEE12FF0E0EE0FFF1F7A
:10303000EB5EFD4F108160E0812F0E949864812F2C
:103040000E945B6391CE87E090E00E9403067C01C2
:1030500060E0812F0E9498649701442737FD4095D6
:10306000542F61E0812F0E942E65AEC100916A0449
:1030700061E0812F0E94986460E0812F0E94D164FA
:1030800082E090E00E94EE6261E0812F0E94D164B4
:103090008AE090E00E94EE6260E0812F0E94D1649D
:1030A00060E0802F0E94986420E335E740E050E024
:1030B00061E0802F0E942E656B017C0165E070E06D
:1030C00080E090E00E94C96213DD80919E040BDDD8
:1030D000C701B6014ECE60915B0470915C04809193
:1030E0005D0490915E048EC18AEF95E00E943445A4
:1030F000811729F0612F8AEF95E00E9498458AEFA9
:1031000095E00E94415743C083EE95E00E9434450C
:10311000811729F0612F83EE95E00E94984581E0A8
:103120002091980490916A04291789F180E02FC0BA
:10313000111169C190916A0480916B04913059F426
:10314000813019F483E695E00DC0823009F05BC14F
:1031500083E695E00FC0923009F055C1813029F423
:1031600083EE94E00E94552B2FC1823009F04BC1B1
:1031700083EE94E00E94542945C1103719F40E944F
:103180008C0C40C1113709F03EC180919D04BADC1E
:103190003AC100916A048091C7049091C8040097D5
:1031A00051F589EB90E00E94F3687C01612F0E9449
:1031B000F743F092C804E092C70440E855E260E0AB
:1031C00070E0C7010E94424763E070E08091C7044D
:1031D0009091C8040E943E446AE070E080E090E074
:1031E0000E94C96263E070E08091C7049091C804B6
:1031F0000E943E4443C04F960E9434458117F1F12E
:10320000E090C704F090C804E114F10459F080E0A4
:1032100093E0F70191838083C7010E94F406C70100
:103220000E94F46889EB90E00E94F3687C01612FB2
:103230000E94F743F092C804E092C70440E855E2C8
:1032400060E070E0C7010E94424763E070E0809157
:10325000C7049091C8040E943E446AE070E080E098
:1032600090E00E94C96263E070E08091C704909191
:10327000C8040E943E4410920A0203C081E0809379
:103280000A0280910A02882311F1013039F48091F9
:10329000C7049091C8040E94174414C0023039F446
:1032A0008091C7049091C8040E9424440BC003304D
:1032B00039F48091C7049091C8040E94314402C03F
:1032C00080E090E090939B0380939A0304C08091E8
:1032D0009A0390919B0391DC96C000916A04D09070
:1032E0006B048091C5049091C6040097B9F04F9685
:1032F0000E9434458017B9F1E090C504F090C604EF
:10330000E114F10459F080EF92E0F701918380839A
:10331000C7010E94F406C7010E94F46881E691E0AB
:103320000E94F3687C01602F0E947448F092C604EA
:10333000E092C50440E052EC61E070E0C7010E94F9
:10334000424765E070E080E090E00E94C9628091B1
:10335000C5049091C6040E94094B62E370E080E0CE
:1033600090E00E94C962193041F46D2D8091C5042E
:103370009091C6040E94105145C01A3041F46D2D41
:103380008091C5049091C6040E9439523BC01B3005
:1033900041F46D2D8091C5049091C6040E94D152D4
:1033A00031C01C3041F46D2D8091C5049091C6044C
:1033B0000E94A85127C01D3031F56D2D8091C504A4
:1033C0009091C6040E947850F0DB1DC0402F612F01
:1033D0008CEE97E00E94BD5680CC402F612F8FEC81
:1033E00097E00E94A84560CD113069F486E197E02E
:1033F0006F830E948B316F81893629F486E197E0D3
:103400000E942034A8DB27960FB6F894DEBF0FBECB
:10341000CDBFDF91CF911F910F91FF90EF90DF9083
:10342000CF900895CF92DF92EF92FF920F931F9368
:10343000CF93DF931F92CDB7DEB710922E04809109
:103440006604909167041091680480939E04923002
:1034500009F118F4913039F0EEC09430F9F095305C
:1034600009F4DFC0E8C0113041F0173131F01432F7
:1034700021F089833DDB898136DB812FD6DB0F90FC
:10348000DF91CF911F910F91FF90EF90DF90CF9040
:103490000C94FF05812F0E942207C3C06DE270E0EB
:1034A00083E196E0D4D500E020E040E060E08FEDDD
:1034B00097E00E9418468FED97E00E94D34640E0C7
:1034C00050E0BA0183E695E00E94322940E050E0E6
:1034D000BA0183EE94E00E943229C12CD12CE12C58
:1034E000F12C00E010E020E231E440E050E0BA01CD
:1034F00083E695E00E94672B00E010E020E231E4D3
:1035000040E050E0BA0183EE94E00E94672B60E057
:1035100070E083E695E00E946E2960E070E083EE43
:1035200094E00E946E2960E070E083E695E00E94DE
:10353000102C60E070E083EE94E00E94102C61E0BB
:103540008FEF97E00E94202660E070E08FEF97E019
:103550000E942C2662E08FEF97E00E94202660E018
:1035600070E08FEF97E00E942C2663E08FEF97E0EA
:103570000E94202660E070E08FEF97E00E942C26EA
:1035800064E08FEF97E00E94202660E070E08FEF0C
:1035900097E00E942C2640E050E0BA0189EC94E0CC
:1035A0000E94D52740E050E0BA0183ED94E00E94EC
:1035B000D52740E050E0BA0187E196E00E94175419
:1035C00040E050E0BA018CE496E00E94175440E0DD
:1035D00050E0BA0181E896E00E94175440E050E0C4
:1035E000BA0186EB96E00E94175440E050E0BA0121
:1035F00087E196E00E94A75540E050E0BA018CE4D4
:1036000096E00E94A75540E050E0BA0181E896E0BC
:103610000E94A75540E050E0BA0186EB96E00E9478
:10362000A7550F90DF91CF911F910F91FF90EF90D1
:10363000DF90CF9061CA0F90DF91CF911F910F91D2
:10364000FF90EF90DF90CF90089510922D048BE7BC
:103650009BE00E945A65181619064CF481E080938D
:103660002D048BE79BE00E94736580939704089577
:10367000ECDF80912D04882309F447C080919704E2
:1036800090912E04853561F491110AC080919904BE
:103690008F3FE1F481E080939C0480932E0416C058
:1036A00080939904992391F0E0919C04E23019F4FD
:1036B00080939B0407C0E33028F090919B049150C5
:1036C00090939B04F0E0ED59FB4F808380919C0424
:1036D0008F5F843318F480939C0404C010929C0480
:1036E00010922E0480912E04882369F080919B040F
:1036F000811109C080919C04843028F010922E041E
:1037000091DE10929C0481E008950895CF93DF9399
:103710008091DD079091DE07892B61F48EE090E0C7
:103720000E94F368EC016AE00E944457D093DE07E0
:10373000C093DD0786E990E0909314028093130212
:103740008091DD079091DE07009709F46BC060E976
:1037500071E00E94C3570E94AB6B7093A604609304
:10376000A5049B012551310923313105F8F46CE2A0
:1037700071E080E090E00E9465697093A40460931A
:10378000A3046F3B71055CF080912B04811107C08D
:1037900081E080932C04DF91CF910C949B0581E014
:1037A00080932B04DF91CF910C94B4056150710983
:1037B0006331710578F56CE271E080E090E00E9481
:1037C00065697093A4046093A3046F3B71058CF04A
:1037D0000E946505CCE2D1E0A8954ADF811122C0A4
:1037E00062E070E080E090E00E94C9622197A1F75A
:1037F00019C00E948005CCE2D1E0A89539DF811183
:1038000011C062E070E080E090E00E94C962219700
:10381000A1F708C010922C0410922B04DF91CF91D5
:103820000C943F05DF91CF9108950F931F930E9451
:103830009A620E94DC6B20E030E04AE754E40E9488
:10384000436B20915F04309160044091610450917A
:1038500062040E94786A60935B0470935C048093B6
:103860005D0490935E0483EE95E03DD180939804CF
:103870000E949A620091330410913404209135041F
:1038800030913604601B710B820B930B693E7340C1
:103890008105910598F00E949A62609333047093B9
:1038A000340480933504909336046091280481E0B9
:1038B0006827609328048DE00E94D164A8958091C8
:1038C0009C0790919D07892B11F00E941A1287E1A5
:1038D00096E00E9491568CE496E00E94915681E811
:1038E00096E00E94915686EB96E00E9491560E94C7
:1038F0008C0C83E695E00E94313183EE94E00E94C7
:1039000031310E949A6200912F041091300420916D
:10391000310430913204601B710B820B930B653FB5
:1039200071408105910590F00E949A6260932F0486
:103930007093300480933104909332048091C704D3
:103940009091C804009711F00E94884411E07DDE38
:1039500080912D04882309F446C0809197049091AA
:103960002E04853559F4911109C0809199048F3F37
:10397000D9F410939C0410932E0416C080939904DC
:10398000992391F0E0919C04E23019F480939B0418
:1039900007C0E33028F090919B04915090939B04D2
:1039A000F0E0ED59FB4F808380919C048F5F84335E
:1039B00018F480939C0404C010929C0410922E046E
:1039C00080912E04882319F280919B048111BFCF2E
:1039D00080919C04843008F4BACF10922E0422DD2A
:1039E00010929C04B4CF8FEE96E00E943445882359
:1039F00021F08FEE96E00E94002586E197E00E947C
:103A000096316093470470934804809349049093DF
:103A10004A0480919D04811128C00E949A620091FD
:103A20003704109138042091390430913A04601B16
:103A3000710B820B930B6B3071058105910508F4B6
:103A40004DC00E949A62609337047093380480934B
:103A5000390490933A0486E197E00E944D3489E559
:103A600097E01F910F910C94F031813079F460E070
:103A700070E083E695E00E94102C60E070E083EE39
:103A800094E00E94102C1F910F9140CE8230A1F43F
:103A900086E197E00E944D3460E070E083E695E0B7
:103AA0000E94102C60E070E083EE94E00E94102CE5
:103AB0001F910F910C948911843081F460E070E0C3
:103AC00083E695E00E94102C60E070E083EE94E0C5
:103AD0000E94102C1F910F910C94F1121F910F91C5
:103AE00008950C941B45CF92DF92EF92FF920F93B3
:103AF0001F93CF93DF93EC010C891D890E949A627A
:103B0000CC80DD80EE80FF809B01AC012C193D094B
:103B10004E095F0969017A0139E0C316D104E10455
:103B2000F104E8F16C837D838E839F83CE010E9434
:103B30008845488559856A857B85452B462B472BCB
:103B400049F4AC01662757FD6095762F488B598B59
:103B50006A8B7B8B488959896A897B89841B950B81
:103B600097FF03C0919581959109449764F44C8522
:103B70005D856E857F854F5F5F4F6F4F7F4F4C87B1
:103B80005D876E877F87488559856A857B854F5F0E
:103B90005F4F6F4F7F4F488759876A877B8788853C
:103BA0009985AA85BB850597A105B105D1F418862D
:103BB00019861A861B868C859D85AE85BF850397E1
:103BC000A105B10540F088899989AA89BB898C0132
:103BD0009D8B8C8B02C00C891D891C861D861E86C0
:103BE0001F86C80164E670E00E941A6F6830710594
:103BF00028F4FB01E45FFC4F808101C080E0DF918D
:103C0000CF911F910F91FF90EF90DF90CF9008958B
:103C10000C941B450F931F93CF93DF93EC01062F5A
:103C200018E060E088850E94D16400FF02C061E076
:103C300001C060E089850E94D164069561E08885B5
:103C40000E94D164115069F760E088850E94D164B8
:103C500061E089850E94D16461E088850E94D16419
:103C600060E089850E94986418EC89850E94066549
:103C7000892B59F01150C9F761E089850E94986439
:103C800060E089850E94D164EFCF61E08985DF9192
:103C9000CF911F910F910C949864CF93DF93EC0117
:103CA00061E088850E94D16461E089850E94D164C9
:103CB00060E089850E94D16460E08885DF91CF91C2
:103CC0000C94D164CF93DF93EC0160E088850E946F
:103CD000D16460E089850E94D16461E088850E949A
:103CE000D16461E08985DF91CF910C94D164CF924A
:103CF000DF92FF920F931F93CF93DF931F92CDB765
:103D0000DEB76C01F62E7983C8DF60E4C60182DF7E
:103D1000C601D8DFC601C1DFF6016581C6017ADFC1
:103D20000F2D7981172F84E0F82EF80161918F0112
:103D3000C60170DFFA94C9F7C601C4DFC601ADDF62
:103D4000F6016681C60166DFC6010F90DF91CF9153
:103D50001F910F91FF90DF90CF90B4CF4F925F9261
:103D60006F927F928F929F92AF92BF92CF92DF928B
:103D7000EF92FF920F931F93CF93DF9300D01F9288
:103D8000CDB7DEB76A017B01890137FD48C0B901B3
:103D90006F5F7F4F882777FD8095982F0E94DE6B9D
:103DA0009B01AC0160E070E080E291E40E94B96D9B
:103DB0004B015C019B01AC01C701B6010E94436B42
:103DC0000E94196C2B013C01B801882777FD809572
:103DD000982F0E94DE6B9B01AC0160E070E080E2F6
:103DE00091E40E94B96D69837A838B839C83A501DA
:103DF0009401C301B2010E94566D9B01AC01C70141
:103E0000B6010E94786A29813A814B815C810E94C7
:103E1000436B0E94196C0E94AB6BCB011FC08824BE
:103E20009924821A930AA12CB12C20E030E040E2C0
:103E300051E4C701B6010E94566D6B017C018FEF02
:103E4000A81AB80AA814B90484F3C701B6010E94DD
:103E5000AB6BCB016AE070E00E941A6F0F900F907D
:103E60000F900F90DF91CF911F910F91FF90EF90E6
:103E7000DF90CF90BF90AF909F908F907F906F908A
:103E80005F904F900895DB0180E090E22C91223208
:103E900008F09C93EC91F0E0E459FD4FE491ED9330
:103EA0008F5F843099F70895EF92FF920F931F93DD
:103EB000CF93DF9300D01F92CDB7DEB78C01DB012B
:103EC000FE013196CE0105967F012D912193E817D1
:103ED000F907D9F7B701C801D6DFB701C80107DF75
:103EE0000F900F900F900F90DF91CF911F910F9136
:103EF000FF90EF900895CF93DF9300D01F92CDB73E
:103F0000DEB720E229832A832B832C83BE016F5FD7
:103F10007F4FCADF0F900F900F900F90DF91CF91DE
:103F20000895CF93DF93EC016A83E62FF0E0EE0F64
:103F3000FF1FED5AFD4F8181898390819883888787
:103F4000998761E00E94986461E089850E94986485
:103F500080E48C8380EC8D838AE88E83CE01DF91B0
:103F6000CF91C9CF8F929F92AF92BF92CF92DF92A3
:103F7000EF92FF920F931F93CF93DF9300D01F9286
:103F8000CDB7DEB75C016A017B0119821A821B8200
:103F90001C8220E030E0A901C701B6010E943F6BFE
:103FA00087FF09C0F7FAF094F7F8F09481E289836B
:103FB0009924939401C0912C03E010E0812C980186
:103FC000B701A601C501CADE181619062CF0002398
:103FD00019F08820B9F00CC001110AC0E1E0F0E04E
:103FE000EC0FFD1FE90DF11D20E1280F208307C014
:103FF000E1E0F0E0EC0FFD1FE90DF11D80839394EB
:104000008824839483E0891530F0015011090C3F16
:104010008FEF1807A1F6BE016F5F7F4FC50144DF28
:104020000F900F900F900F90DF91CF911F910F91F4
:10403000FF90EF90DF90CF90BF90AF909F908F90C8
:1040400008950E941B4588E080932B080895609393
:104050002B0808954F925F926F927F928F929F925A
:10406000AF92BF92CF92DF92EF92FF920F931F9386
:10407000CF93DF93762E6801790160932B089A0124
:1040800040E050E060E472E48FE090E00E944F6F07
:10409000E901590137FF03C08FEFA81AB80A85015B
:1040A0001595079561E0872D0E949864A8EEB3E00E
:1040B000A70196010E94806F2B013C01C12CD12CDD
:1040C00076014E01AA2497FCA094BA2CC414D504FE
:1040D000E604F704B0F461E080912B080E94D164FB
:1040E000C8010E94EE6260E080912B080E94D164BA
:1040F000C8010E94EE62A895C80CD91CEA1CFB1CE2
:10410000E5CFDF91CF911F910F91FF90EF90DF905E
:10411000CF90BF90AF909F908F907F906F905F9067
:104120004F9008954F925F926F927F928F929F92DD
:10413000AF92BF92CF92DF92EF92FF920F931F93B5
:10414000CF93DF9369017A019B0140E050E060E486
:1041500072E48FE090E00E944F6FE901890137FF20
:1041600002C00F5F1F4F1595079561E080912B08E6
:104170000E949864A8EEB3E0A70196010E94806FA8
:104180004B015C01C12CD12C76012E01662457FC19
:104190006094762CC814D904EA04FB04B0F461E0FE
:1041A00080912B080E94D164C8010E94EE6260E0F9
:1041B00080912B080E94D164C8010E94EE62A895EC
:1041C000C40CD51CE61CF71CE5CFDF91CF911F91E5
:1041D0000F91FF90EF90DF90CF90BF90AF909F90A6
:1041E0008F907F906F905F904F900895862F60938F
:1041F0002B0861E00E94986460E080912B080C9489
:10420000D16461E080912B080E94986460E0809105
:104210002B080C94D164CF93DF93EC0160E00E94F3
:1042200024458EE18B871C82DF91CF910895AF9258
:10423000BF92CF92DF92EF92FF920F931F93CF9393
:10424000DF93CDB7DEB76A970FB6F894DEBF0FBE27
:10425000CDBF8C01CE0101967C01C12CD12C5C011B
:10426000C6010E943272F70181937F01FFEFCF1ADE
:10427000DF0A8AE1C816D10499F72D813E814F816A
:10428000588569817A818B819C810E94796A298510
:104290003A854B855C850E94796A2D853E854F85E0
:1042A00058890E94796A29893A894B895C890E94D8
:1042B000796A2D893E894F89588D0E94796A6B01F0
:1042C0007C01698D70E080E090E00E94DE6B9B01D4
:1042D000AC01C701B6010E94796A20E030E04AE2F1
:1042E00053E40E94796A0E94B06B8A8D68130CC0F7
:1042F0008AE1F501D8011D9601900D928A95E1F7AA
:1043000081E0F801848302C0F80114826A960FB636
:10431000F894DEBF0FBECDBFDF91CF911F910F91FB
:10432000FF90EF90DF90CF90BF90AF900895CF9225
:10433000DF92EF92FF920F931F93CF93DF938C0145
:10434000EB012C813D814E815F81688179818A8179
:104350009B810E94796A288539854A855B850E9400
:10436000796A2C853D854E855F850E94796A28890A
:1043700039894A895B890E94796A2C893D894E89ED
:104380005F890E94796A6B017C01688D70E080E032
:1043900090E00E94DE6B9B01AC01C701B6010E9458
:1043A000796A20E030E04AE253E40E94796A0E9490
:1043B000B06B698FE12CF12C6991C7010E943A72B0
:1043C0008FEFE81AF80AEAE1EE16F104A9F781E0A6
:1043D000F8018483DF91CF911F910F91FF90EF90AF
:1043E000DF90CF900895EF92FF921F93CF93DF93CA
:1043F0001F92CDB7DEB7162F7A01FC0163858EE5DB
:104400009AE029830E94805B612F8EE59AE00E94EA
:104410002B5B2981813091F4422F50E0B7018EE56A
:104420009AE00E94FF5A61E08EE59AE00F90DF91DA
:10443000CF911F91FF90EF900C948A5B8FEF0F90BC
:10444000DF91CF911F91FF90EF900895CF93DF936D
:104450001F92CDB7DEB7498321E0AE014F5F5F4FBA
:10446000C2DF0F90DF91CF910895EF92FF920F93EB
:104470001F93CF93DF93EC01F62E8A01E22E6B851A
:104480008EE59AE00E94805B6F2D8EE59AE00E9497
:104490002B5B813001F560E08EE59AE00E948A5B3B
:1044A00081112EC081E090E00E94EE6221E04E2D4D
:1044B0006B858EE59AE00E94725BE80100E010E0F7
:1044C000F12C8EE59AE00E94D45A892B31F00E151A
:1044D0001F0574F002C08FEF13C081E090E00E94CE
:1044E000EE6281E00E151F0509F480E0819508C099
:1044F0000F5F1F4F8EE59AE00E94DC5A8993E1CF4F
:10450000DF91CF911F910F91FF90EF900895CF937E
:10451000DF93EC01AC014B5F5F4F23E06AE0A5DF66
:1045200081110AC08D81883439F48E81843321F45D
:1045300081E09F81933309F080E0DF91CF9108956E
:10454000CF92DF92EF92FF920F931F93CF93DF935F
:10455000EC016B018A0179013BD0AE014B5F5F4FEB
:1045600026E063E0CE0181DF882321F0992787FDD3
:10457000909525C08C85813029F441E062E070E09F
:10458000CE0164DF8D8190E0982F88272E81822BC9
:10459000F60191838083898590E0982F88272A856A
:1045A000822BF801918380838F8190E0982F882758
:1045B0002885822BF7019183808380E090E0DF9152
:1045C000CF911F910F91FF90EF90DF90CF900895C2
:1045D0002F923F924F925F926F927F928F929F9213
:1045E000AF92BF92CF92DF92EF92FF920F931F9301
:1045F000CF93DF93CDB7DEB76C970FB6F894DEBFDD
:104600000FBECDBF8C0162E00E943A458111B5C159
:104610006AE070E080E090E00E94C96262E0C80158
:104620000E943A458111A9C1C80171DF882309F4AC
:10463000A4C10E949A626B017C01712CBB24B394CB
:1046400062E0C8010E943A45811116C00E949A6238
:104650006C197D098E099F09693C710581059105D9
:1046600078F3A8950E949A626B017C017B24672DE8
:10467000C8010E946C45E4CF64E670E080E090E001
:104680000E94C9620E949A624B015C012FEF3FE7D2
:10469000388B2F8740E050E85E874D878FEF9FE78C
:1046A0009C878B87E0E0F0E8FA87E98738872F83DB
:1046B000212C50E8352E662463940E949A626C196E
:1046C0007D098E099F09693C71058105910550F0AE
:1046D000A8950E949A626B017C017624672DC8011F
:1046E0000E946C450E949A62681979098A099B099F
:1046F0006B30710581059105E0F1A8959E012F5F52
:104700003F4FAE014D5F5F4FBE016B5F7F4FC801F2
:1047100017DF8D819E814F815885841795072CF076
:104720002816390624F41C0102C098878F838B81D8
:104730009C81EB85FC858E179F0744F029853A857F
:10474000281739072CF49A87898702C09C878B87A2
:1047500089819A814F8558898417950744F0ED85A2
:10476000FE85E817F9072CF49E878D8702C0988B89
:104770008F8762E0C8010E943A4581119ECF60E0B8
:10478000C8010E946C45B101882777FD8095982F5C
:104790000E94DE6B6B017C012F813885B90188276F
:1047A00077FD8095982F0E94DE6B698B7A8B8B8BBF
:1047B0009C8B9B01AC01C701B6010E94796A90589D
:1047C00020E030E040E05FE30E94566DF80165872D
:1047D00076878787908B29853A85B901882777FD69
:1047E0008095982F0E94DE6B2B013C014B855C85E8
:1047F000BA01882777FD8095982F0E94DE6B6D8B1C
:104800007E8B8F8B988F9B01AC01C301B2010E94FC
:10481000796A905820E030E040E05FE30E94566DF6
:10482000F801618B728B838B948B2D853E85B9014A
:10483000882777FD8095982F0E94DE6B4B015C01E5
:104840004F855889BA01882777FD8095982F0E9457
:10485000DE6B698F7A8F8B8F9C8F9B01AC01C501BA
:10486000B4010E94796A905820E030E040E05FE3B4
:104870000E94566DF801658B768B878B908F80E058
:1048800090E0A0E8BFE3818F928FA38FB48F298936
:104890003A894B895C89C701B6010E94786A6B012D
:1048A0007C012D893E894F89588DC301B2010E9438
:1048B000786AA70196010E94436BF801658F768F95
:1048C000878F90A3298D3A8D4B8D5C8DC501B401E6
:1048D0000E94786AA70196010E94436BF80161A3C8
:1048E00072A383A394A32F813885221A330A37FE3B
:1048F00003C031942194310889859A854B855C8564
:10490000841B950B97FF03C09195819591092D8587
:104910003E85EF85F8892E1B3F0B37FF03C031958D
:1049200021953109821593052CF02215330514F0D9
:1049300081E009C0281639062CF02817390714F031
:1049400082E001C083E0F80185A3B801635F7F4F77
:10495000C801EDDC61E0C8010E946C4562E0C8015D
:104960000E943A45811102C0A895F8CFA89564E647
:1049700070E080E090E00E94C9626C960FB6F894F7
:10498000DEBF0FBECDBFDF91CF911F910F91FF9082
:10499000EF90DF90CF90BF90AF909F908F907F90DF
:1049A0006F905F904F903F902F900895CF93DF933B
:1049B000EC018EE59AE00E94695B61E0CE010E9405
:1049C0006C4540E760E070E0CE0140DD40E261E030
:1049D00070E0CE013BDD81E08C8741E062E070E079
:1049E000CE0134DDCE0123DCCE01DF91CF91F0CDBD
:1049F00060932D0840932C08FC0160834183D6CF3F
:104A00002F923F924F925F926F927F928F929F92DE
:104A1000AF92BF92CF92DF92EF92FF920F931F93CC
:104A2000CF93DF93CDB7DEB762970FB6F894DEBFB2
:104A30000FBECDBF8C01CCDD9E012F5F3F4FAE017D
:104A40004D5F5F4FBE016B5F7F4FC80179DD8823EB
:104A500049F0682F772767FD7095872F972F0E9461
:104A6000DE6BC5C0F80184812D803E802B813C81A6
:104A700038872F83882309F478C045845684678457
:104A80007088818C928CA38CB48CB901882777FDB7
:104A90008095982F0E94DE6BF80121893289438925
:104AA00054890E94796AF801258D368D478D50A171
:104AB0000E94566D0E94AB6B6F83788789879A87B7
:104AC00069817A81882777FD8095982F0E94DE6B17
:104AD000F801258936894789508D0E94796AF80145
:104AE00021A132A143A154A10E94566D0E94AB6B3B
:104AF0006B877C878D879E87F80115A1113041F463
:104B00002B853C85B901882777FD8095982F32C089
:104B1000B101882777FD8095982F0E94DE6BA30155
:104B200092010E94796AA50194010E94566D0E942B
:104B3000AB6B4B015C01123089F42B853C85B901CC
:104B4000882777FD8095982F0E94DE6B9B01AC0132
:104B5000B401882777FD8095982F17C0133019F579
:104B6000882777FD8095982F05C0B101882777FDAC
:104B70008095982F0E94DE6B9B01AC01EF81F88538
:104B8000BF01882777FD8095982F2F87388B498B19
:104B90005A8B0E94DE6B2F85388949895A890E9479
:104BA000EC6A6B017C0120E030E0A901C701B6018D
:104BB0000E943F6B87FF0DC02BED3FE049EC50E4B6
:104BC000C701B6010E94796A20E030E044E353E473
:104BD00006C020E030E044E353E4C701B6010E9480
:104BE000566D2BED3FE049E450E40E94436B629622
:104BF0000FB6F894DEBF0FBECDBFDF91CF911F91EE
:104C00000F91FF90EF90DF90CF90BF90AF909F906B
:104C10008F907F906F905F904F903F902F9008956E
:104C200060E00E94244581E0809380008BE08093C7
:104C3000810083E08093B00084E08093B100089508
:104C4000CF93DF93EC010E94984584EF91E09F831E
:104C50008E83DF91CF9108950F931F93CF93DF93AE
:104C60008C016F3F710519F014F06FEF70E0EB01EC
:104C700061308FEF780714F4C1E0DFEFF80186812F
:104C800097818C179D07C9F0D783C683D7FD06C0CF
:104C900061E0C8010E946C45BE0108C060E0C80127
:104CA0000E946C45662777276C1B7D0BC801DF913E
:104CB000CF911F910F910C949445DF91CF911F914B
:104CC0000F9108954F925F926F927F928F929F9271
:104CD000AF92BF92CF92DF92EF92FF920F931F930A
:104CE000CF93DF9300D01F92CDB7DEB7FC01C9820E
:104CF000DA82EB82FC8295EA90832183C2828A81E8
:104D000083838B8184838C81858346015701CF0106
:104D100006963801C12CD12C7601C814D904EA04B6
:104D2000FB0461F0D3012D913D01DC012D93CD01F8
:104D3000BFEFCB1ADB0AEB0AFB0AEFCF24013501E8
:104D400026E0420E511C611C711CD801C12CD12CD3
:104D5000760180E0C814D904EA04FB0441F09D9177
:104D600089279FEFC91AD90AE90AF90AF3CFDF01A7
:104D7000A40DB51D8C9397018601085F1F4F2F4F1F
:104D80003F4FA7E0CA0ED11CE11CF11CEC0DFD1D2C
:104D90008AE58083401751076207730728F460E0B3
:104DA00070E080E090E002C0B801C9010F900F9060
:104DB0000F900F90DF91CF911F910F91FF90EF9087
:104DC000DF90CF90BF90AF909F908F907F906F902B
:104DD0005F904F9008951F93CF93DF93EC01162FB0
:104DE00060E00E94244511501C8389E08D83DF918F
:104DF000CF911F910895CF93DF93EC0160E00E9463
:104E000024451C8289E08D83DF91CF9108958EE245
:104E100098E00C94E4378EE298E00C940D38AF9251
:104E2000BF92CF92DF92EF92FF920F931F93CF9397
:104E3000DF93EC016B017A0159016D818EE59AE0F7
:104E40000E94805BA501B6018EE59AE00E94FF5AA0
:104E50008EE59AE00E949C5B82E090E00E94EE6208
:104E60006D8170E0A8018EE59AE00E947E5B82E091
:104E700090E00E94EE62C0E08EE59AE00E94D45A73
:104E8000892B51F08EE59AE00E94DC5AF701EC0F75
:104E9000F11D8083CF5FF0CFDF91CF911F910F91F4
:104EA000FF90EF90DF90CF90BF90AF9008956F92FA
:104EB0007F928F929F92AF92BF92CF92DF92EF92AA
:104EC000FF920F931F93CF93DF93CDB7DEB7689711
:104ED0000FB6F894DEBF0FBECDBF3C018AE04E0195
:104EE0002BE0820E911CF401282F11922A95E9F7EC
:104EF000FE0131965F0111928A95E9F7F3018481F1
:104F00008F8B87E0888F82E0C82ED12CE12CF12C8A
:104F10008E01095E1F4F21E04AE050E060E070E042
:104F2000C401D0DE0AE010E02AE030E0A501B401BF
:104F3000C30175DF2AE030E040E050E0B5018EE2C9
:104F400098E00E9446381E8A1D8A22E030E040E048
:104F500050E0BE016B5E7F4F8EE298E00E94553AB2
:104F600081E09E89911101C080E068960FB6F894A7
:104F7000DEBF0FBECDBFDF91CF911F910F91FF908C
:104F8000EF90DF90CF90BF90AF909F908F907F90E9
:104F90006F900895CF93DF93EC018EE59AE00E9425
:104FA000695BCE01DF91CF9182CF6F927F928F921A
:104FB0009F92AF92BF92CF92DF92EF92FF920F93A8
:104FC0001F93CF93DF93CDB7DEB76E970FB6F894EC
:104FD000DEBF0FBECDBF3C016A017B0120E030E0A7
:104FE00048E453E4C701B6010E94066D18168CF020
:104FF00020E030E048E453ECC701B6010E943F6B6B
:1050000087FF0DC0C12CD12C58E4E52E53ECF52EB2
:1050100006C0C12CD12C68E4E62E63E4F62ECE0146
:1050200001964C018EE0F40111928A95E9F75E0138
:10503000FFE0AF0EB11C8AE0F50111928A95E9F705
:105040008E01075E1F4F86E0F80111928A95E9F7FD
:10505000F3018481898F85E08A8FCB8EDC8EED8E83
:10506000FE8E46E0C42ED12CE12CF12C21E04EE046
:1050700050E060E070E0C40125DE0AE010E02EE0C0
:1050800030E0A501B401C301CADE2AE030E040E00F
:1050900050E0B5018EE298E00E9446388EE298E03A
:1050A0000E94E93880E06E960FB6F894DEBF0FBE1E
:1050B000CDBFDF91CF911F910F91FF90EF90DF90C7
:1050C000CF90BF90AF909F908F907F906F900895FA
:1050D0002F923F924F925F926F927F928F929F9208
:1050E000AF92BF92CF92DF92EF92FF920F931F93F6
:1050F000CF93DF93CDB7DEB7A8970FB6F894DEBF96
:105100000FBECDBF4C011A012B016801790120E0CF
:1051100030E048E453E4C701B6010E94066D18165A
:105120008CF020E030E048E453ECC701B6010E9467
:105130003F6B87FF0DC0C12CD12CE8E4EE2EE3ECD1
:10514000FE2E06C0C12CD12CF8E4EF2EF3E4FF2E86
:1051500020E030E0A901C201B1010E943F6B811142
:1051600005C0B701A601C40120DF59C0CE010196D8
:105170003C0182E1F30111928A95E9F78AE05E0130
:10518000FDE1AF0EB11CF501982F11929A95E9F748
:105190008E010D5E1F4FF80111928A95E9F7F40117
:1051A00084818B8B81E18C8B2D8A3E8A4F8A588E2D
:1051B000C98EDA8EEB8EFC8E7AE0C72ED12CE12CD4
:1051C000F12C21E042E150E060E070E0C3017ADDC3
:1051D0000AE010E022E130E0A501B301C4011FDEC6
:1051E0002AE030E040E050E0B5018EE298E00E9415
:1051F00046388EE298E00E94E93818A61FA222E005
:1052000030E040E050E0BE01695D7F4F8EE298E003
:105210000E94553A81E098A5911101C080E0A896BE
:105220000FB6F894DEBF0FBECDBFDF91CF911F91B7
:105230000F91FF90EF90DF90CF90BF90AF909F9035
:105240008F907F906F905F904F903F902F90089538
:105250008E589F4FFC018081089582599F4FFC0119
:1052600080810895FC0146A357A360A771A7089504
:10527000FC0146A157A160A571A54F5F5F4F6F4F1D
:105280007F4F46A357A360A771A70895FC0146A1CD
:1052900057A160A571A5415051096109710946A343
:1052A00057A360A771A70895FC0162857385848563
:1052B0009585089522E0FC0120839B016F3F7105D5
:1052C00019F014F02FEF30E02130FFEF3F0714F416
:1052D00021E03FEFFC01378326830895EF92FF9290
:1052E0000F931F93CF93DF93FC016F3F710519F06C
:1052F00014F06FEF70E0EB0161308FEF780714F47A
:10530000C1E0DFEF808591858C179D0791F1D187F2
:10531000C087D583C483DF01A059BF4FCF018F5809
:105320009F4F7C018F0101591F4FD7FF0EC060E0D6
:105330008C910E94D16461E0F70180810E94D16468
:10534000662777276C1B7D0B0AC061E08C910E9459
:10535000D16460E0F70180810E94D164BE01F80150
:105360008081DF91CF911F910F91FF90EF900C946E
:105370008063DF91CF911F910F91FF90EF9008957F
:105380009F92AF92BF92CF92DF92EF92FF920F93D4
:105390001F93CF93DF93EC01DC01AD58BF4F6C93AB
:1053A00085E0982E969EF0011124EB5CFD4F8081E4
:1053B0008E0103591F4FD8018C935E01BEE6AB0EE0
:1053C000B11C9181D5019C93119692819C936E01A1
:1053D000B0E7CB0ED11C9381D6019C937E01B1E73F
:1053E000EB0EF11C9481F701908362E00E949864B7
:1053F00062E0D5018C910E94986462E0F6018081A0
:105400000E94986462E0D7018C910E9498641EA269
:105410001FA218A619A684EF91E0998788871882A1
:1054200089E090E09B838A8348E651E16DE172E474
:105430004E8B5F8B688F798FF8018081823119F4F0
:10544000359690821AC0833111F484E003C0843110
:1054500031F483E0FE01EE58FF4F80830EC08531AA
:1054600011F482E0F7CF833011F481E0F3CF823082
:1054700021F4FE01EE58FF4F108260E070E0CE0193
:105480002DDF1EA21FA218A619A60E949A62CA5852
:10549000DF4F688379838A839B83DF91CF911F914C
:1054A0000F91FF90EF90DF90CF90BF90AF909F90C3
:1054B00008952F923F924F925F926F927F928F92B8
:1054C0009F92AF92BF92CF92DF92EF92FF920F9393
:1054D0001F93CF93DF9300D000D0CDB7DEB79E836C
:1054E0008D830E949A620D811E810A581F4FF80118
:1054F000C080D180E280F3806C197D098E099F09FC
:10550000653171058105910508F465C00E949A62B4
:1055100069837A838B839C83ED81FE81C6A0D7A0AB
:10552000E0A4F1A482A193A1A4A1B5A1228033801B
:1055300046885788608C718CA7019601281B390B0F
:105540004A0B5B0BCA01B9010E94DE6B4B015C0187
:10555000F8018081918169817A81681B790B80E0F3
:1055600090E00E94DC6B9B01AC0160E070E08AE798
:1055700094E40E94436B9B01AC01C501B4010E94FD
:10558000566D20E030E040E752E40E94566D4B013A
:105590005C01B101882777FD8095982F0E94DE6B12
:1055A000A30192010E94566D9B01AC01C501B4019B
:1055B0000E94436BED81FE816287738784879587A4
:1055C000C2A2D3A2E4A2F5A20E949A62F80160836B
:1055D00071838283938326960FB6F894DEBF0FBE45
:1055E000CDBFDF91CF911F910F91FF90EF90DF9092
:1055F000CF90BF90AF909F908F907F906F905F9073
:105600004F903F902F900895AF92BF92CF92DF922C
:10561000EF92FF920F931F93CF93DF9300D01F92CF
:10562000CDB7DEB75C01FC0166A177A180A591A58D
:105630000281138126893789408D518D29833A83D0
:105640004B835C830E94DE6B6B017C01B801882771
:1056500077FD8095982F0E94DE6B29813A814B81DE
:105660005C810E94566D9B01AC01C701B6010E948E
:10567000436B20E030E044EB53E40E94566D0E94FF
:10568000AB6BF501628F738F848F958F0F900F90A6
:105690000F900F90DF91CF911F910F91FF90EF909E
:1056A000DF90CF90BF90AF900895FC01628D738D15
:1056B000848D958D0895FC0181E0808381834687E8
:1056C0005787608B718BE659FF4F10820895CF92F8
:1056D000DF92EF920F931F93FC0106871787208BB1
:1056E000318BDC01A459BF4FEC9212971C9281E0E0
:1056F00080831182468F578F60A371A35496CD92F9
:10570000DC92468D578D60A171A1028D138D248D81
:10571000358D401B510B620B730BE559FF4F14166F
:1057200015061606170614F4808301C010821F9117
:105730000F91EF90DF90CF9008958F929F92AF924C
:10574000BF92CF92DF92EF92FF920F931F93FC01D3
:10575000828C938CA48CB58C840E951EA61EB71ECD
:10576000868E978EA0A2B1A2468D578D60A171A1A1
:10577000AEDF1F910F91FF90EF90DF90CF90BF9021
:10578000AF909F908F900895CF92DF92EF92FF920B
:105790000F931F93FC0142A753A764A775A706A701
:1057A00017A720AB31ABC2AAD3AAE4AAF5AA1F91CE
:1057B0000F91FF90EF90DF90CF900895CF92DF92FE
:1057C000EF92FF920F931F93FC01E65BFF4F408324
:1057D00051836283738334960083118322833383DE
:1057E0003496C082D182E282F3821F910F91FF90A2
:1057F000EF90DF90CF900895FC017383628308954A
:10580000CF93DF93EC01882777FD8095982F0E9436
:10581000DE6B6E8B7F8B888F998FDF91CF91089590
:10582000FC01608308952F923F924F925F926F9296
:105830007F928F929F92AF92BF92CF92DF92EF9220
:10584000FF920F931F93CF93DF9300D01F92CDB79A
:10585000DEB71C01DC015E966D917D918D919C916E
:1058600091975A960D911D912D913C915D97601BDA
:10587000710B820B930B0E94DE6B6B017C0151015B
:10588000BAE6AB0EB11CF501808181010C581F4FA7
:105890008111ABC13196808120E030E0A9018823DD
:1058A00039F0C701B6010E943F6B87FF32C006C0C6
:1058B000C701B6010E94066D18165CF5D1011A9653
:1058C0002D913D914D915C911D97F101EE5AFF4F45
:1058D00060817181828193810E94566DDC01CB01D0
:1058E000B058F101E65AFF4F80839183A283B383BE
:1058F00060817181828193810E94AB6BF801718319
:10590000608321E0D5012C93F10175836483CB0181
:10591000B7C220E030E0A901C701B6010E94066DC0
:1059200026013701181624F077FA709477F87094EE
:10593000D1011E966D917D918D919C91519720E0A2
:1059400030E040EC50E40E94566D9B01AC01C30175
:10595000B2010E94066D87FFE5C120E030E0A90199
:10596000C701B6010E94066D18165CF420E030E015
:1059700040E251E4C701B6010E94066D18165CF0C2
:1059800034C120E030E040E251ECC701B6010E9492
:105990003F6B87FF2AC1F101468457846088718874
:1059A00020E030E040E251E4C701B6010E94786A8D
:1059B0004B015C0120E030E040EC50E4C301B20157
:1059C0000E94566DA50194010E94566D20E030E0C2
:1059D000A9010E94066D181694F4D1011E966D91CE
:1059E0007D918D919C91519720E030E040EC50E406
:1059F0000E94566DA50194010E94566D10C0F101E0
:105A0000668577858089918920E030E040EC50E41C
:105A10000E94566DA50194010E94566D90580E94F7
:105A2000096E20E030E040EC50E40E94436B2B0113
:105A30003C01D1011A968D909D90AD90BC901D9720
:105A400020E030E0A901C701B6010E94066DA70160
:105A5000960118160CF05058B1016E5A7F4FDB01B9
:105A60008D919D910D90BC91A02D89839A83AB83DC
:105A7000BC83C701B6010E94436B9B01AC01C3010B
:105A8000B2010E94566D9B01AC01C501B4010E9498
:105A9000786A9B01AC0169817A818B819C810E942B
:105AA000566D4B015C0120E030E040EA51EC0E9471
:105AB0003F6B87FD11C020E030E040EA51E4C501B2
:105AC000B4010E94066D18166CF4812C912C50EADA
:105AD000A52E51E4B52E06C0812C912C40EAA42EAF
