:100000000C9445020C946D020C946D020C946D02DC
:100010000C946D020C946D020C946D020C942D09DD
:100020000C946D020C946D020C946D020C94FB0701
:100030000C946D020C946D020C946D020C946D0284
:100040000C94D2060C946D020C942A050C940405B1
:100050000C946D020C946D020C946D020C946D0264
:100060000C94E3090C946D0253201D1BCA1B771CD2
:10007000771C8C1C2020771CAA20AA20AA20AA204A
:10008000AA20B91CD01C081DAA201D1DFD1CAA20D9
:10009000AA20471D9620091FD01FF31F941DAA20D8
:1000A000AA20AA205F206720AA20AA20AA207A1DC1
:1000B000AA20AA20AA20AA20AA20AA20AA20AA20F0
:1000C000AA20AA20AA20AA20AA20AA207B20862033
:1000D000084AD73B3BCE016E84BCBFFDC12F3D6CAF
:1000E00074319ABD56833DDA3D00C77F11BED9E415
:1000F000BB4C3E916BAAAABE000000803F07634242
:1001000036B79BD8A71A39685618AEBAAB558C1DAE
:100110003CB7CC5763BD6DEDFD753EF6177231BF30
:10012000000000803F08000000BE922449123EAB50
:10013000AAAA2ABECDCCCC4C3E00000080BEABAA01
:10014000AAAA3E00000000BF000000803F0000009F
:100150000000084178D3BB4387D1133D190E3CC33F
:10016000BD4282AD2B3E68EC8276BED98FE1A93EBE
:100170004C80EFFFBE01C4FF7F3F00000000000085
:10018000000000002300260029000E000F001000D0
:1001900011001200130014001500200000000000E0
:1001A0000030007C82827C00310042FE020000327E
:1001B00000468A92620033004492926C0034001C24
:1001C00064FE04003500F292928C0036007C92921C
:1001D0004C003700C08E90E00038006C92926C00AA
:1001E00039006492927C006100042A2A1E00620099
:1001F000FE12120C0063000C1212120064000C12AA
:1002000012FE0065001C2A2A18006600103E50509D
:100210000067000815151E006800FE101E0000692A
:1002200000002E0000006A0002012E00006B00FE9C
:10023000081412006C0000FE0200006D001E100E7B
:10024000100E6E001E10100E006F000C12120C002B
:1002500070001F12120C0071000C12121F007200AD
:100260001E08101000730012292512007400103EA1
:1002700012000075001C02021E0076180402041809
:10028000007718061C0618007800120C0C12007972
:10029000001805051E007A0012161A120041007E91
:1002A00088887E004200FE92926C0043007C82822D
:1002B00044004400FE82827C004500FE929282004F
:1002C0004600FE9090800047007C82925C004800CF
:1002D000FE1010FE00490082FE8200004A000C025F
:1002E00002FC004B00FE1028C6004C00FE02020279
:1002F000004D00FE403040FE4E00FE403008FE4FF4
:10030000007C8282827C5000FE9090600051007CD4
:10031000828A847A5200FE9894620053006492921A
:100320004C00540080FE8080005500FC0202FC005E
:100330005600F00C020CF05700FE043804FE580082
:10034000C63838C60059C0201E20C0005A00869A00
:10035000B2C2002C00010E0C00002E0000060600A8
:1003600000257254781E2A4E2100007A0000003FBA
:1003700000204A3000002D0010101010002B08083B
:100380003E0808002F00020C3040002A22140814F6
:1003900022003A0000140000002200C000C000004B
:1003A0002328FE28FE28002800007C820000290067
:1003B00000827C00003B0002240000007E004080A0
:1003C0004080003B0002240000003D00282828282F
:1003D000007C0000FE0000003E0082442810003C2B
:1003E000001028448200400000000000007C447C93
:1003F000007C005C547454547C70107C74545C7C9D
:10040000545C40407C7C547C74547C00040020206C
:100410002000000000000000240027002A00000047
:1004200000080002010000030407000000000000B3
:1004300000003F065B4F666D7D077F6F777C395EFE
:100440007971BF86DBCFE6EDFD87FFEFF7FCB9DE04
:10045000F9F1004000000000250028002B000404F2
:10046000040404040404020202020202030303035C
:100470000303010204081020408001020408102038
:100480000102040810200729F12811241FBECFEF14
:10049000D8E0DEBFCDBF11E0A0E0B1E0E8E2F5E6D4
:1004A00002C005900D92A838B107D9F726E0A8E858
:1004B000B1E001C01D92A33AB207E1F712E0C4E433
:1004C000D2E004C02197FE010E94C52AC334D1079F
:1004D000C9F70E940D170C9487320C940000CF923C
:1004E000DF92EF92FF920F931F93CF93DF936C01F4
:1004F0007A018B01C0E0D0E0CE15DF0589F0D8018C
:100500006D918D01D601ED91FC910190F081E02D6E
:10051000C6010995892B11F47E0102C02196ECCF0A
:10052000C701DF91CF911F910F91FF90EF90DF9066
:10053000CF900895FC01918D828D981761F0828D86
:10054000DF01A80FB11D5D968C91928D9F5F9F7307
:10055000928F90E008958FEF9FEF0895FC01918DA9
:10056000828D981731F0828DE80FF11D858D90E016
:1005700008958FEF9FEF0895FC01918D228D892FB3
:1005800090E0805C9F4F821B91098F73992708959B
:1005900083EE92E00E94BC0221E0892B09F420E066
:1005A000822F0895FC01848DDF01A80FB11DA35A8D
:1005B000BF4F2C91848D90E001968F739927848F83
:1005C000A689B7892C93A089B1898C9180648C937A
:1005D000938D848D981306C00288F389E02D808165
:1005E0008F7D80830895EF92FF920F931F93CF9397
:1005F000DF93EC0181E0888F9B8D8C8D981305C073
:10060000E889F989808185FD24C0F62E0B8D10E0E4
:100610000F5F1F4F0F731127E02E8C8DE8120CC057
:100620000FB607FCFACFE889F989808185FFF5CFFD
:10063000CE010E94D202F1CF8B8DFE01E80FF11D99
:10064000E35AFF4FF0820B8FEA89FB898081806239
:1006500007C0EE89FF896083E889F9898081806419
:10066000808381E090E0DF91CF911F910F91FF9007
:10067000EF900895CF93DF93EC01888D8823C9F024
:10068000EA89FB89808185FD05C0A889B9898C919B
:1006900086FD0FC00FB607FCF5CF808185FFF2CF36
:1006A000A889B9898C9185FFEDCFCE010E94D20235
:1006B000E7CFDF91CF91089580E090E0892B29F07A
:1006C0000E94C80281110C9400000895833081F0CB
:1006D00028F4813099F08230A1F008958730A9F094
:1006E0008830B9F08430D1F4809180008F7D03C0D0
:1006F000809180008F7780938000089584B58F77F4
:1007000002C084B58F7D84BD08958091B0008F773D
:1007100003C08091B0008F7D8093B000089585ED77
:100720008093BC008091BC0084FDFCCF1092DD0260
:10073000089540914302262F30E0240F311D2132CD
:100740003105DCF42091DD022430C9F4FC0180E0A5
:1007500090E0861758F4309143022191DC01AF5D9F
:10076000BD4FA30FB11D2C930196F3CF809143028F
:10077000680F6093430280E0089581E0089582E06D
:1007800008950895E091720280917302E81730F4A1
:10079000F0E0E956FD4F808190E008958FEF9FEFE4
:1007A00008959091720280917302981750F4E92F86
:1007B000F0E0E956FD4F208130E09F5F9093720298
:1007C00002C02FEF3FEFC90108958091730290E0BE
:1007D00020917202821B91090895CF92DF92EF92CD
:1007E000FF920F931F93CF93DF937C01262F972FB8
:1007F0008A0180917402882391F0C62FD72F6E0151
:10080000C40ED51ECC15DD0571F06991D701ED91AF
:10081000FC910190F081E02DC7010995F3CF642F81
:10082000822F0E949903C801DF91CF911F910F91F0
:10083000FF90EF90DF90CF900895CF93DF931F92BA
:10084000CDB7DEB76983209174022223D1F02091C5
:100850009602203240F021E030E0FC013383228315
:1008600080E090E015C080917502E82FF0E0EA5832
:10087000FD4F998190838F5F8093750280939602DC
:1008800005C061E0CE0101960E94990381E090E0ED
:100890000F90DF91CF9108950E946E300F931F93B8
:1008A000CF93DF93EC0188819981009729F02A8109
:1008B0003B812617370788F48B016F5F7F4F0E94BB
:1008C000A42F009761F0998388831B830A832C816E
:1008D0003D81232B11F4FC01108281E001C080E0F6
:1008E000DF91CF911F910F910895EF92FF920F9397
:1008F0001F93CF93DF9300D0CDB7DEB78C01698310
:100900001A82FC01E480F580FFEFEF1AFF0AB701BD
:100910000E944E04882381F0F80120813181848176
:100920009581BE016F5F7F4F820F931F0E947C30C5
:10093000F801F582E48281E00F900F90DF91CF9172
:100940001F910F91FF90EF900895EF92FF920F93F8
:100950001F93CF93DF93EC017B018A01BA010E94C0
:100960004E042881398181110DC02115310519F0FE
:10097000C9010E940C2F198218821D821C821B82C1
:100980001A8206C01D830C83B701C9010E947C3006
:10099000CE01DF91CF911F910F91FF90EF900895BD
:1009A000FC01808191810C940C2FFB01DC011196DC
:1009B0001C921E9213961C921E92129715961C92D0
:1009C0001E9214978617970749F06081718161150F
:1009D000710521F0448155810C94A5040895FC0112
:1009E00011821082138212821582148261157105A0
:1009F00051F0FB0101900020E9F73197AF01461B50
:100A0000570B0C94A50408951F920F920FB60F92E6
:100A100011242F933F934F935F936F937F938F9303
:100A20009F93AF93BF93EF93FF9383EE92E00E9467
:100A3000D202FF91EF91BF91AF919F918F917F91E2
:100A40006F915F914F913F912F910F900FBE0F903B
:100A50001F9018951F920F920FB60F9211242F938B
:100A60008F939F93EF93FF93E091F302F091F40241
:100A70008081E091F902F091FA0282FD12C090812A
:100A80008091FC028F5F8F732091FD02821751F0DD
:100A9000E091FC02F0E0ED51FD4F958F8093FC0258
:100AA00001C08081FF91EF919F918F912F910F90C5
:100AB0000FBE0F901F901895CF93DF93282F30E033
:100AC000F901E25EFB4F8491F901EE58FB4FD4919E
:100AD000F901E25AFB4FC491CC2391F081110E949D
:100AE0006603EC2FF0E0EE0FFF1FE058FE4FA591DC
:100AF000B491EC91ED2381E090E021F480E002C01C
:100B000080E090E0DF91CF9108951F93CF93DF9322
:100B1000282F30E0F901E25EFB4F8491F901EE5895
:100B2000FB4FD491F901E25AFB4FC491CC23C9F099
:100B3000162F81110E946603EC2FF0E0EE0FFF1FCD
:100B4000EC5AFB4FA591B4918FB7F894111105C0E1
:100B50009C91ED2FE095E92302C0EC91ED2BEC93F5
:100B60008FBFDF91CF911F910895CF93DF9390E0D6
:100B7000FC01EE58FB4F2491FC01E25AFB4F84919B
:100B8000882361F190E0880F991FFC01EC5EFB4F18
:100B9000C591D491FC01EC5AFB4FA591B491611120
:100BA00009C09FB7F8948881209582238883EC91AF
:100BB0002E230BC0623061F49FB7F8943881822FE6
:100BC000809583238883EC912E2B2C939FBF06C0A6
:100BD0008FB7F894E8812E2B28838FBFDF91CF91B8
:100BE00008951F93CF93DF93182FEB0161E00E94CC
:100BF000B505209711F460E004C0CF3FD10539F46A
:100C000061E0812FDF91CF911F910C948505E12F39
:100C1000F0E0E25EFB4FE491E330F9F048F4E130BC
:100C2000B9F0E230A1F584B5806284BDC8BD34C09E
:100C3000E730E9F0E83019F1E43049F580918000BF
:100C4000806280938000D0938B00C0938A0024C080
:100C500084B5806884BDC7BD1FC080918000806856
:100C600080938000D0938900C093880015C0809144
:100C7000B00080688093B000C093B3000DC0809135
:100C8000B00080628093B000C093B40005C0C0384B
:100C9000D1050CF0B5CFAFCFDF91CF911F91089563
:100CA0008E3008F08E508770806480937C00809135
:100CB0007A00806480937A0080917A0086FDFCCF70
:100CC000809178002091790090E0922B08953FB7B1
:100CD000F89480916E0290916F02A0917002B09191
:100CE000710226B5A89B05C02F3F19F00196A11DE2
:100CF000B11D3FBFBA2FA92F982F8827820F911DB2
:100D0000A11DB11DBC01CD0142E0660F771F881FF8
:100D1000991F4A95D1F708958F929F92AF92BF92F3
:100D2000CF92DF92EF92FF926B017C010E946706E7
:100D30004B015C01C114D104E104F104F1F00E9403
:100D40006706DC01CB0188199909AA09BB09883E0D
:100D50009340A105B10570F321E0C21AD108E10862
:100D6000F10888EE880E83E0981EA11CB11CC11406
:100D7000D104E104F10419F7DDCFFF90EF90DF908B
:100D8000CF90BF90AF909F908F9008952FB7F89419
:100D900060916A0270916B0280916C0290916D0279
:100DA0002FBF08951F920F920FB60F9211242F9309
:100DB0003F938F939F93AF93BF9380916A029091DB
:100DC0006B02A0916C02B0916D023091690223E038
:100DD000230F2D3720F40196A11DB11D05C026E873
:100DE000230F0296A11DB11D2093690280936A0210
:100DF00090936B02A0936C02B0936D0280916E028F
:100E000090916F02A0917002B09171020196A11DA4
:100E1000B11D80936E0290936F02A0937002B09305
:100E20007102BF91AF919F918F913F912F910F9040
:100E30000FBE0F901F901895CF92DF92EF92FF9206
:100E4000CF93DF93EC01603282E078070CF03DC075
:100E500077FD06C0653B71052CF064EB70E002C0C5
:100E600060E070E0898128E830E06901C81AD108A3
:100E700087FDD394CC0CDD1CCC0CDD1C0D2C000CA0
:100E8000EE08FF088A8128E532E0281B310987FD3A
:100E90003395220F331F220F331FC901330FAA0BC3
:100EA000BB0B9C01AD012C193D094E095F09DB010B
:100EB0000E94173224EB30E040E050E00E94ED3118
:100EC000C20ED31EE41EF51EB60188818C3080F55B
:100ED000998148E850E0491B510997FD5395440F0B
:100EE000551F440F551F6417750784F09A8128E534
:100EF00032E0291B310997FD3395220F331F220F52
:100F0000331FAB01261737070CF4A90142505109D2
:100F1000440F551F2FB7F89490E0FC01EE0FFF1F10
:100F20008E0F9F1FFC01E750FC4F528341832FBF60
:100F3000DF91CF91FF90EF90DF90CF9008951F93B6
:100F4000CF93DF93EC01162F88818C3008F04EC0D0
:100F500061E0812F0E94B5058881E82FF0E09F01B4
:100F6000220F331FE20FF31FE750FC4F1F779081D2
:100F70009078192B108319821A826CE00E94912AB2
:100F80009CE0899FB001112440E050E09A01260FB7
:100F9000371FF901EE0FFF1F2E0F3F1FF901E7501A
:100FA000FC4F908197FD16C04F5F5F4F4C3051054D
:100FB00069F781110FC01092800082E08093810058
:100FC0001092850010928400B19A80916F00826027
:100FD00080936F00E881F0E0CF01880F991FE80F40
:100FE000F91FE750FC4F8081806880838881DF9102
:100FF000CF911F9108951F920F920FB60F92112457
:101000002F933F934F935F936F937F938F939F9310
:10101000AF93BF93EF93FF938091680287FF05C062
:1010200010928500109284001BC020916802022E4D
:10103000000C330B80911D0490E02817390784F4CD
:1010400080916802082E000C990BFC01EE0FFF1F27
:101050008E0F9F1FFC01E750FC4F808187FD15C05C
:10106000809168028F5F8093680220916802022E4F
:10107000000C330B80911D0490E028173907C4F44D
:10108000809168028C3064F113C080916802082E50
:10109000000C990BFC01EE0FFF1F8E0F9F1FFC0130
:1010A000E750FC4F808160E08F770E948505D8CFA4
:1010B0008091840090918500049680349C4918F4B6
:1010C00080E49CE905C0809184009091850004969D
:1010D00090938900809388008FEF809368023BC0D3
:1010E000209184003091850080916802082E000CC8
:1010F000990BFC01EE0FFF1F8E0F9F1FFC01E750A5
:10110000FC4F81819281820F931F9093890080937D
:10111000880080916802082E000C990BFC01EE0FEC
:10112000FF1F8E0F9F1FFC01E750FC4F808187FF40
:1011300012C080916802082E000C990BFC01EE0F82
:10114000FF1F8E0F9F1FFC01E750FC4F808161E065
:101150008F770E948505FF91EF91BF91AF919F918D
:101160008F917F916F915F914F913F912F910F9050
:101170000FBE0F901F901895DC01E62FF0E0EE0FE8
:10118000FF1FEE5EFE4F80818C93818111968C93C0
:10119000119712966C930895CF93DF93EC0160E062
:1011A00089810E94B5058981DF91CF910C94500609
:1011B000CF93DF93EC0160E088810E94B5058881C0
:1011C000DF91CF910C9450061F93CF93DF93EC01E6
:1011D000162F61E089810E94B505612F8981DF9119
:1011E000CF911F910C948505CF93DF93EC018881FB
:1011F0000E94B50588810E945C0521E0892B09F4D5
:1012000020E0822FDF91CF910895DC01E62FF0E0FE
:10121000EE0FFF1FEE5EFE4F80818C938181119651
:101220008C93119712966C930895FC011082118291
:1012300012820895F89482E08093B0008093B10008
:1012400094E69093B3001092B2008093700078946B
:101250001092F80380938D0308951F920F920FB69A
:101260000F9211240F931F932F933F934F935F93EC
:101270006F937F938F939F93AF93BF93CF93EF938E
:10128000FF9382E00E945C05C82F809192039091A9
:101290009303019690939303809392038091F803B4
:1012A000843618F085E080938D0390918D03933000
:1012B00079F018F4923039F072C0943011F1953011
:1012C00009F44AC06CC0C1116AC01092F80329C069
:1012D000C13009F064C0E091F80381E08E0F809383
:1012E000F803F0E08091920390919303E457FC4F50
:1012F0008087109293031092920384E080938D0371
:101300004EC0C11114C0E091F80381E08E0F8093AC
:10131000F803F0E08091920390919303E457FC4F1F
:101320008087109293031092920383E0E7CF80911D
:101330009203909193038536910588F185E080931F
:101340008D030E94C60660938E0370938F03809373
:1013500090039093910323C00E94C60600918E03D0
:1013600010918F032091900330919103DC01CB0108
:10137000801B910BA20BB30B893C9105A105B10514
:1013800040F01092F803109293031092920382E0BF
:10139000B5CFC11104C01092930310929203FF9134
:1013A000EF91CF91BF91AF919F918F917F916F916D
:1013B0005F914F913F912F911F910F910F900FBE11
:1013C0000F901F9018951F920F920FB60F92112435
:1013D0002F933F934F935F936F937F938F939F933D
:1013E000AF93BF93EF93FF938091B900887F8036CE
:1013F00009F49CC068F5883209F45BC090F4803130
:1014000009F454C038F4882309F4F6C0883009F48C
:101410004DC0F6C0883109F44CC0803209F45DC07B
:10142000EFC0803409F468C048F4803309F455C033
:10143000883309F0E5C08093DB02D8C0803509F419
:101440004FC0883509F45DC0883409F0D9C0D6C0D2
:10145000883909F4C7C0A8F4883709F467C038F49C
:10146000883609F463C0803709F460C0C9C0883881
:1014700009F4B8C0803909F45FC0803809F0C0C0F1
:101480005BC0803B09F486C038F4803A09F466C03A
:10149000883A09F47FC0B4C0803C09F4A7C0883CF6
:1014A00009F4A4C0883B09F48AC0AAC08091D8027C
:1014B00010C09091DA028091D902981770F5E091EE
:1014C000DA0281E08E0F8093DA02F0E0E954FD4FFA
:1014D00080818093BB0085EC86C08093DB028EC048
:1014E000E091DA0281E08E0F8093DA028091BB00F6
:1014F000F0E0E954FD4F80839091DA028091D902A7
:101500006EC0E091DA0281E08E0F8093DA02809162
:10151000BB00F0E0E954FD4F80838091DC02811133
:101520006DC081E08093D70284EA61C083E080933C
:10153000DD0210926702CFCF80916702803208F0FF
:1015400051C0E091670281E08E0F80936702809125
:10155000BB00F0E0E95BFD4F8083BDCF85EC80935D
:10156000BC001092DD0280916702803230F4E0917D
:101570006702F0E0E95BFD4F10826091670270E066
:10158000E0914502F091460287E492E009951092BD
:10159000670236C084E08093DD021092440210920C
:1015A0004302E0914102F091420209958091430289
:1015B000811105C081E08093430210922102E091E5
:1015C000440281E08E0F80934402F0E0EF5DFD4F16
:1015D00080818093BB0090914402809143029817D0
:1015E00008F479CF85E88093BC000AC085EC80932D
:1015F000BC001092DD0204C01092DB020E948F0337
:10160000FF91EF91BF91AF919F918F917F916F91DA
:101610005F914F913F912F910F900FBE0F901F90B0
:1016200018951092DD0281E08093DC021092D702BF
:1016300061E082E10E94850561E083E10E94850509
:10164000E9EBF0E080818E7F808380818D7F8083D5
:1016500088E48093B80085E48093BC000895EFE1AE
:10166000F2E0DC01A457BE4F8C91808311968C91DF
:10167000818380911F02909120020895682F83EE4C
:1016800092E00C94F302CF92DF92EF92FF92CF930D
:10169000DF936B017C0183E00E943E0BC701B60122
:1016A0000E941C2C862F262F372F30932002209348
:1016B0001F02CFE1D2E00E943E0B89810E943E0BC7
:1016C0008A810E943E0B8B81DF91CF91FF90EF903A
:1016D000DF90CF900C943E0BCF92DF92FF920F934E
:1016E0001F93CF93DF931F92CDB7DEB7162FF72E40
:1016F000082F82E099830E943E0B88E8C82E81E083
:10170000D82E412F5F2D602F9981792FF6014083CC
:10171000518362837383812F0E943E0BF601818186
:101720000E943E0BF60182810E943E0BF6018381EE
:101730000F90DF91CF911F910F91FF90DF90CF908D
:101740000C943E0BEF92FF920F931F93CF93DF9376
:101750008C01FC01C481EC2EF58084E00E943E0BDC
:101760008C2F0E943E0BC0E0D0E0CE15DF05A4F424
:10177000F80184819581C817D90748F48081918147
:10178000009729F0FC01EC0FFD1F808101C080E073
:101790000E943E0B2196E9CFDF91CF911F910F91CF
:1017A000FF90EF900895CF93C82F81E00E943E0BE9
:1017B0008C2FCF910C943E0B8FEF0E943E0B85E552
:1017C0000E943E0B8EE591E00C9481138FEF0E94F6
:1017D0003E0B85E50C943E0B9091DD029111FCCF00
:1017E00091E09093DD029093DC022FEF2093DB02D7
:1017F0001092DA02260F2093D9029093D80290918A
:10180000D802880F892B8093D8028091D70281302B
:1018100061F41092D7028091D8028093BB0080912E
:10182000BC0083FDF8CF85EC01C085EE8093BC0041
:101830008091DD028130E1F38091DA02861710F4A5
:101840006091DA02A7EBB2E027E932E0F9018E2FCE
:10185000821B861718F48D918193F9CF862F0895F6
:10186000382F209196029091E202213208F049C06F
:101870008091DD028111FCCF42E04093DD02309384
:10188000DC023FEF3093DB021092DA022093D902A0
:10189000A6E7B2E047EB52E0FA013E2F341B3217C5
:1018A00018F43D913193F9CF1092D8022091D802CB
:1018B000990F922B9093D8029091D702913061F4B6
:1018C0001092D7029091D8029093BB009091BC00E7
:1018D00093FDF8CF95EC01C095EE9093BC009091EC
:1018E000DD029230E1F39091DB029F3F79F080912D
:1018F000DB02803241F08091DB02803331F084E002
:1019000005C081E003C082E001C083E0109275024F
:1019100010929602109274020895CF93DF93C5E25D
:10192000D5E061E088850E94850561E089850E9497
:10193000850560E089850E94850560E08885DF91E6
:10194000CF910C948505CF93DF9300D000D0CDB715
:10195000DEB79C01DE011196AD0194E09A0FF9010A
:1019600081919F01FA018193AF019E13F8CF80E22C
:101970002C91223208F08C93EC91F0E0EE5CFB4F5E
:10198000E491ED939A13F4CF0E948D0C80E40E94B1
:1019900082150E946C150E948D0C80912A050E9470
:1019A000821589810E9482158A810E9482158B810D
:1019B0000E9482158C810E9482150E946C150E94E3
:1019C0008D0C80912B050E9482150F900F900F9027
:1019D0000F90DF91CF910C946C15A0914505B091BB
:1019E0004605209149058091410590914205AC0141
:1019F000440F551F840F951F709143056091440556
:101A00005FB7F8944C91322F30953423242BE72F75
:101A1000F62F8E0F9F1FE817F90781F0419168E0BC
:101A20002C9300C047FF3C93440F00C000C000C08F
:101A300008F43C9300C06A9599F7EDCF5FBF61E071
:101A400070E080E090E00C948C06E0E0F0E0209103
:101A5000410530914205E217F30710F5DF01BB277E
:101A6000A217B307D8F42E2F220F2E0F30E0A0912B
:101A70004305B0914405A20FB31F6C93A091430599
:101A8000B0914405A20FB31F11968C93A09143050A
:101A9000B0914405A20FB31F12964C933196D7CF45
:101AA00081E00895CF93DF938F3F910519F014F0F3
:101AB0008FEF90E0EC01C1308FEFD80714F4C1E054
:101AC000DFEF80916305909164058C179D07E1F02D
:101AD000D0936405C0936305D7FD07C061E08DE531
:101AE00095E00E94E408BE0109C060E08DE595E044
:101AF0000E94E408662777276C1B7D0B80915D05AB
:101B0000DF91CF910C94F105DF91CF910895EF9281
:101B1000FF920F931F93CF93DF93162FD72FC42FCE
:101B20009091C70421E0209374029093E2021092F6
:101B3000750210929602682F80E893E00E941D04BF
:101B4000813049F580E00E94300C81112CC06C2F4F
:101B5000C13208F060E28091C7040E94EC0B109241
:101B6000720280937302E12EFD2E00E010E0D0E0BF
:101B70009091730280917202981779F00C171D07EB
:101B800064F40F5F1F4F80E893E00E94D103F701D8
:101B900081937F01EDCF8FEF06C081E00C171D0709
:101BA00009F480E08195DF91CF911F910F91FF9013
:101BB000EF900895CF93DF93EB019091C70421E05C
:101BC000209374029093E202109275021092960292
:101BD000682F80E893E00E941D04813061F441E0A9
:101BE00050E0BE0180E893E00E94ED0381E0DF91C8
:101BF000CF910C94300C8FEFDF91CF910895CF935C
:101C0000DF93EC0160E089810E94B50589810E9423
:101C10005C0521E0892B09F420E0822FDF91CF9130
:101C200008954F925F926F927F928F929F92AF92A0
:101C3000BF92CF92DF92EF92FF920F931F93CF93B9
:101C4000DF93CDB7DEB72C970FB6F894DEBF0FBE8B
:101C5000CDBF4EE069EB74E08BE30E94870D8111EC
:101C60004CC2A090B904B12CBA2CAA248091BA0419
:101C70008501082B1093A8040093A704E090BB04EF
:101C8000F12CFE2CEE248091BC04E82AF092AA04E8
:101C9000E092A9048090BD04912C982C8824809116
:101CA000BE04882A9092AC048092AB0440908B04CE
:101CB00050908C0460908D0470908E046091C104EB
:101CC00070E0762F66278091C204682B072E000CE7
:101CD000880B990B0E94BA302091AD043091AE046C
:101CE0004091AF045091B0040E94CB2AA30192010D
:101CF0000E94AA2B60939B0470939C0480939D0484
:101D000090939E046091C30470E0762F66278091C3
:101D1000C404682B072E000C880B990B0E94BA3064
:101D20002091B1043091B2044091B3045091B404B5
:101D30000E94CB2AA30192010E94AA2B60939F04C8
:101D40007093A0048093A1049093A2046091C504B1
:101D500070E0762F66278091C604682B072E000C52
:101D6000880B990B0E94BA302091B5043091B604CB
:101D70004091B7045091B8040E94CB2AA30192016C
:101D80000E94AA2B6093A3047093A4048093A504DB
:101D90009093A604B701FF0C880B990B0E94BA30F0
:101DA0006B017C01B401990C880B990B0E94BA302D
:101DB0009B01AC010E9419314B015C01A701960106
:101DC000C701B6010E941931A50194010E94CC2AD5
:101DD0000E94342D9B01AC01B801110F880B990BA7
:101DE00029873A874B875C870E94BA302B013C01D8
:101DF00029853A854B855C850E944B2B20E030E09D
:101E000044E353E40E9419312AED3FE049E450E4F1
:101E10000E94AA2B69837A838B839C83A3019201FE
:101E2000C301B2010E941931A50194010E94CC2A7C
:101E30000E94342D9B01AC01C701B6010E944B2BBF
:101E400020E030E044E353E40E9419312AED3FE002
:101E500049E450E40E94AA2B6D837E838F83988788
:101E60000E94C606C090DE02D090DF02E090E00241
:101E7000F090E1026C197D098E099F090E94B8302B
:101E800020E030E04AE754E40E94AA2B6B017C0179
:101E90000E94C6066093DE027093DF028093E00228
:101EA0009093E1028091AB049091AC0420919F0447
:101EB0003091A0044091A1045091A2041816190673
:101EC0008CF5C701B6010E9419319B01AC016091EC
:101ED0008F047091900480919104909192040E94DB
:101EE000CB2A60938F047093900480939104909315
:101EF000920420919B0430919C0440919D04509148
:101F00009E04C701B6010E9419319B01AC0160918A
:101F100093047091940480919504909196040E948A
:101F2000CC2A30C0C701B6010E9419319B01AC0117
:101F300060918F047091900480919104909192042B
:101F40000E94CC2A60938F04709390048093910434
:101F50009093920420919B0430919C0440919D04A5
:101F600050919E04C701B6010E9419319B01AC013A
:101F700060919304709194048091950490919604DB
:101F80000E94CB2A609393047093940480939504E9
:101F9000909396042091A3043091A4044091A50449
:101FA0005091A604C701B6010E94193120919704EF
:101FB000309198044091990450919A040E94CC2A3F
:101FC0002B013C0120E030E044EB53E40E94AA2BBB
:101FD0000E94522C20E030E044EB53E40E9419317F
:101FE0009B01AC01C301B2010E94CB2A2B013C0131
:101FF00020E030E044E353E40E94D12C18164CF06A
:1020000040929704509298046092990470929A04B6
:1020100010C020E030E044EB53E4C301B2010E9461
:10202000CB2A6093970470939804809399049093BB
:102030009A0420E030E040E05FE3C701B6010E946F
:10204000CC2A9B01AC0160E070E080E09FE30E943D
:10205000AA2B6B017C019B01AC0160E070E080E881
:102060009FE30E94CB2A4B015C0120918F043091A9
:1020700090044091910450919204C701B6010E94CE
:1020800019312B013C01A501940169817A818B8171
:102090009C810E9419319B01AC01C301B2010E94D5
:1020A000CC2A60938F047093900480939104909352
:1020B000920420919304309194044091950450919E
:1020C0009604C701B6010E9419316B017C01A5017C
:1020D00094016D817E818F8198850E9419319B01C9
:1020E000AC01C701B6010E94CC2A6093930470939F
:1020F000940480939504909396042C960FB6F894CC
:10210000DEBF0FBECDBFDF91CF911F910F91FF902A
:10211000EF90DF90CF90BF90AF909F908F907F9087
:102120006F905F904F900895CF93DF93EB01909164
:10213000650421E0209374029093E20210927502EC
:1021400010929602682F80E893E00E941D0481306F
:1021500061F441E050E0BE0180E893E00E94ED03AD
:1021600081E0DF91CF910C94300C8FEFDF91CF9114
:102170000895EF92FF920F931F93CF93DF93162F43
:10218000D72FC42F9091650421E02093740290937F
:10219000E2021092750210929602682F80E893E096
:1021A0000E941D04813049F580E00E94300C8111AD
:1021B0002CC06C2FC13208F060E2809165040E944F
:1021C000EC0B1092720280937302E12EFD2E00E060
:1021D00010E0D0E09091730280917202981779F02C
:1021E0000C171D0764F40F5F1F4F80E893E00E94F7
:1021F000D103F70181937F01EDCF8FEF06C081E01E
:102200000C171D0709F480E08195DF91CF911F9194
:102210000F91FF90EF9008952F923F924F925F920F
:102220006F927F928F929F92AF92BF92CF92DF92E6
:10223000EF92FF920F931F93CF93DF93CDB7DEB74B
:10224000A6970FB6F894DEBF0FBECDBF62E08AE559
:1022500094E00E94F40881112FC26AE070E080E0EF
:1022600090E00E948C0662E08AE594E00E94F40807
:10227000811122C243E06FE574E08AE00E94B91048
:1022800081111AC280915F04883409F015C28091CF
:102290006004843309F010C280916104833309F033
:1022A0000BC20E94C6064B015C01F12C11E062E0FA
:1022B0008AE594E00E94F408811119C00E94C606C4
:1022C000DC01CB0188199909AA09BB09893C910550
:1022D000A105B10560F3A8950E94C6064B015C01FB
:1022E000F1266F2D8AE594E00E94E408E0CF64E6D1
:1022F00070E080E090E00E948C060E94C6062B01F0
:102300003C012FEF3FE73C872B8740E050E85E879A
:102310004D878FEF9FE798878F83A0E0B0E8BA875B
:10232000A98722242A948FE7382E00E010E8EE24B3
:10233000E3940E94C606DC01CB0188199909AA0919
:10234000BB09893C9105A105B10558F0A8950E94EB
:10235000C6064B015C01FE246F2D8AE594E00E94C5
:10236000E4080E94C606DC01CB0184199509A60980
:10237000B7090B97A105B105C0F1A895AE014F5F54
:102380005F4FBE016D5F7F4FCE0105960E94CB155A
:102390008D819E81821593052CF0081719071CF476
:1023A0008C0101C01C018B819C812F813885821793
:1023B000930744F049855A85481759072CF49A87A2
:1023C000898702C098878F8389819A81AB85BC8574
:1023D0008A179B0744F02D853E85281739072CF472
:1023E0009E878D8702C09C878B8762E08AE594E098
:1023F0000E94F40881119DCF60E08AE594E00E947C
:10240000E408B801012E000C880B990B0E94BA3029
:102410004B015C01B101032C000C880B990B0E944D
:10242000BA306F87788B898B9A8B9B01AC01C50181
:10243000B4010E94CC2A905820E030E040E05FE3F5
:102440000E9419316B8B7C8B8D8B9E8B6093670404
:10245000709368048093690490936A0449855A854F
:10246000BA01550F880B990B0E94BA306B017C01A1
:10247000AF81B885BD01BB0F880B990B0E94BA30A4
:102480006F8B788F898F9A8F9B01AC01C701B60142
:102490000E94CC2A905820E030E040E05FE30E94A8
:1024A00019316B8F7C8F8D8F9E8F60936B0470932F
:1024B0006C0480936D0490936E042D853E85B90164
:1024C000330F880B990B0E94BA302B013C014B85CE
:1024D0005C85BA01550F880B990B0E94BA306F8F3B
:1024E00078A389A39AA39B01AC01C301B2010E9406
:1024F000CC2A905820E030E040E05FE30E941931A0
:102500006BA37CA38DA39EA360936F047093700450
:10251000809371049093720480E090E0A0E8BFE3A0
:102520008093730490937404A0937504B09376041D
:102530002F85388949895A89C501B4010E94CB2A5F
:102540004B015C012F89388D498D5A8DC701B60129
:102550000E94CB2AA50194010E94AA2B6B017C0149
:1025600060937704709378048093790490937A044D
:102570002F8D38A149A15AA1C301B2010E94CB2AD3
:10258000A50194010E94AA2B4B015C0160937B047E
:1025900070937C0480937D0490937E040219130948
:1025A00017FF03C011950195110989859A85AF819F
:1025B000B8858A1B9B0B97FF03C091958195910964
:1025C0002D853E854B855C85241B350B37FF03C06D
:1025D000319521953109801791072CF0201731078B
:1025E00014F081E009C0081719072CF028173907E3
:1025F00014F082E001C083E080937F042B8D3C8D3A
:102600004D8D5E8D6B897C898D899E890E94CC2A37
:102610002BA13CA14DA15EA10E94CC2A20E030E07C
:1026200040E85FE30E94CC2AA70196010E94CC2AD1
:10263000A50194010E94CC2A6B017C0180917F044A
:10264000682F70E080E090E00E94BA309B01AC01FE
:10265000C701B6010E94CC2A20E030E04AE253E4F0
:102660000E94CC2A0E94232C6093800400E010E09A
:10267000F801E65AFB4F6585C8010E94DF310F5F04
:102680001F4F0A311105A1F781E080935E0461E0DC
:102690008AE594E00E94E40862E08AE594E00E9402
:1026A000F408811102C0A895F7CFA89564E670E000
:1026B00080E090E00E948C06A6960FB6F894DEBFEC
:1026C0000FBECDBFDF91CF911F910F91FF90EF9083
:1026D000DF90CF90BF90AF909F908F907F906F9042
:1026E0005F904F903F902F900895CF93C0917D05BC
:1026F00061E08C2F0E94B50560E08C2FCF910C9487
:102700008505009769F0FC0101900020E9F73197F9
:10271000AF01481B590BBC0183EE92E00C946F0291
:1027200080E090E008953F924F925F926F927F9287
:102730008F929F92AF92BF92CF92DF92EF92FF92D1
:102740000F931F93CF93DF934A015B019C0140E0FD
:1027500050E060E472E48FE090E00E94ED316901A6
:102760007A0130907D0561E0832D0E94B505A8EEC9
:10277000B3E0A50194010E940C322B013C01E6015B
:10278000D7FC2196D595C7958E01000F111F000F1C
:10279000111F055011090D2C000CEE08FF08812CAB
:1027A000912C540184149504A604B704D0F461E07C
:1027B000832D0E948505C230D10518F0C80101970C
:1027C000F1F760E0832D0E948505C230D10518F035
:1027D000C8010197F1F7A8958C0C9D1CAE1CBF1C7D
:1027E000E1CFDF91CF911F910F91FF90EF90DF909C
:1027F000CF90BF90AF909F908F907F906F905F90A1
:102800004F903F900895CF93DF93EC0140E050E06C
:1028100060E671E00E94A504CE01DF91CF9108959A
:102820004F925F926F927F928F929F92AF92BF92E0
:10283000CF92DF92EF92FF920F931F93CF93DF938C
:102840007C016AE00E947504C0E0D0E04424439417
:10285000F9E05F2EA2ED6A2EB6E47B2E1BE9C12EB5
:102860001CE8D12E0BE4A02E06E4B02E0BEB18E0F2
:102870008BEF882E88E1982EF70184819581C81707
:10288000D90708F06EC0F70180819181009729F087
:10289000FC01EC0FFD1F808101C080E0482F4095B6
:1028A00050E060E070E0762F652F542F4427480FEA
:1028B000511D611D711DBA01552744274F6F10929C
:1028C00070004092B0005092B1006092B3007092DC
:1028D000B4008091B00080628093B000C60101977F
:1028E000F1F78091B0008F7D8093B000C501019712
:1028F000F1F780E290E02091B00020622093B000D8
:10290000F80140FF09C03197F1F72091B0002F7D09
:102910002093B000F40108C03197F1F72091B00086
:102920002F7D2093B000F8013197F1F776956795E8
:10293000579547950197F9F68091B0008062809392
:10294000B000C8010197F1F78091B0008F7D8093AE
:10295000B00064E170E080E090E00E948C06219677
:102960008BCFF89482E08093B0008093B10094E61E
:102970009093B3001092B20080937000789480938B
:102980008D031092F80380918C0360E0DF91CF916A
:102990001F910F91FF90EF90DF90CF90BF90AF907D
:1029A0009F908F907F906F905F904F900C94B505A3
:1029B000EF92FF920F931F93CF93DF938C0161E00F
:1029C0008091F4040E94850560E08091F5040E94E6
:1029D0008505C8E0D0EC60E08091F4040E94850594
:1029E0006D2F61708091F5040E94850561E08091F2
:1029F000F4040E948505D695C15069F7E801780175
:102A000080E1E80EF11C099118E060E08091F40487
:102A10000E948505602F60788091F5040E948505ED
:102A200061E08091F4040E948505000F115069F760
:102A3000CE15DF0541F760E08091F4040E94850522
:102A400060E08091F5040E94850561E08091F404C6
:102A50000E94850561E08091F504DF91CF911F917F
:102A60000F91FF90EF900C948505CF93DF93D82FB3
:102A700061E08091F4040E94850560E08091F50496
:102A80000E948505C8E060E08091F4040E948505FD
:102A90006D2F61708091F5040E94850561E0809141
:102AA000F4040E948505D695C15069F760E08091D5
:102AB000F4040E94850560E08091F5040E9485057C
:102AC00061E08091F4040E94850561E08091F50445
:102AD000DF91CF910C948505CF93DF93C5E2D5E0CC
:102AE00060E088850E94850560E089850E948505F3
:102AF00061E088850E94850561E08985DF91CF913D
:102B00000C948505CF93DF93D82FC8E060E08091C7
:102B10002D050E948505D0FF02C061E001C060E084
:102B200080912E050E948505D69561E080912D0546
:102B30000E948505C15051F760E080912D050E94EB
:102B4000850561E080912E050E94850561E08091F8
:102B50002D050E94850560E080912E050E94B50537
:102B6000C8EC80912E050E945C05892B69F0C1504C
:102B7000C1F761E080912E050E94B50560E080916B
:102B80002E050E948505ECCF61E080912E05DF9136
:102B9000CF910C94B505CF92DF92EF92FF920F93F5
:102BA0001F93CF93DF931F92CDB7DEB76C017B01EC
:102BB0008A010E940C1146E06FE574E083E00E94F8
:102BC000B910882321F0082E000C990B2EC080919B
:102BD0006604813039F48983BE016F5F7F4F82E0E4
:102BE0000E94941020915F0430E0322F22278091C0
:102BF0006004282BF601318320838091630490E0E8
:102C0000982F882720916404822BF7019183808379
:102C10008091610490E0982F882720916204822B94
:102C2000F8019183808380E090E00F90DF91CF9155
:102C30001F910F91FF90EF90DF90CF900895CF926A
:102C4000DF92EF92FF920F931F93CF93DF9328E0D1
:102C500030E041E06FEF70E09FE0C92ED12CC3E27D
:102C6000D0E007ED10E090914E05E0914F05F09116
:102C70005005592F5095F42EF82281F0F894F280E7
:102C80005F2152835181592B5183DE011197F1F756
:102C90005281952B92837894F8010FC0F894F280BA
:102CA0005F2152835181592B5183DB011197F1F739
:102CB0005281952B92837894F6013197F1F7440F66
:102CC0002150310981F6F894E0914F05F0915005BB
:102CD000918180914E05809589238183E0914F05F4
:102CE000F0915005928180914E05892B8283E0916D
:102CF0004F05F0915005928180914E058095892372
:102D000082837894DF91CF911F910F91FF90EF9084
:102D1000DF90CF90089590914E05E0914F05F0918E
:102D20005005F8948181292F209582238183828107
:102D3000892B828378948DE743E050E0815039F10C
:102D4000DA011197F1F730813923C1F3F8948281C8
:102D5000822382838181892B81837894ABE7B7E0DA
:102D60001197F1F7F8948181282321838281892B9F
:102D70008283A3E1B1E01197F1F78081982381E08C
:102D800009F080E07894E3E6F6E03197F1F70895F2
:102D9000CF92DF92EF92FF920F931F93E82FF92FBC
:102DA00005C0015011092109310961F19081962373
:102DB0009417B9F305C0015011092109310911F126
:102DC000908196239413F7CFC12CD12CE12CF12CB8
:102DD0000AC08FEFC81AD80AE80AF80A0C151D05B0
:102DE0002E053F0579F080818623841791F36C2DA1
:102DF0007D2D8E2D9F2D1F910F91FF90EF90DF90D5
:102E0000CF90089560E070E080E090E01F910F9116
:102E1000FF90EF90DF90CF900895CF93DF93CDB7E1
:102E2000DEB7E9970FB6F894DEBF0FBECDBF78943A
:102E300084B5826084BD84B5816084BD85B58260BF
:102E400085BD85B5816085BD80916E008160809370
:102E50006E001092810080918100826080938100D9
:102E600080918100816080938100809180008160E9
:102E7000809380008091B10084608093B100809144
:102E8000B00081608093B00080917A00846080936C
:102E90007A0080917A00826080937A0080917A0033
:102EA000816080937A0080917A00806880937A00B4
:102EB0001092C10061E08DE00E94B50561E08DE0F7
:102EC0000E9485056CE271E080E090E00E948C0633
:102ED00060E08DE00E948505E091F302F091F4023C
:102EE00082E08083E091EF02F091F0021082E091A5
:102EF000F102F091F20280E180831092FB02E091F6
:102F0000F702F091F80286E08083E091F502F091FB
:102F1000F602808180618083E091F502F091F602F3
:102F2000808188608083E091F502F091F6028081D3
:102F300080688083E091F502F091F60280818F7DB8
:102F4000808364EF71E080E090E00E948C0642E3B1
:102F500050E060E070E084EF91E00E94931362E340
:102F600070E080E090E00E948C060E94751388EC6F
:102F700094E00E941A09EFE7F4E0E491E093490538
:102F8000EBE6F4E0E491F0E0EE0FFF1FEC5AFB4FAC
:102F900085919491909346058093450561E08DE07D
:102FA0000E94B50540E060E080E00E94250D0E948F
:102FB000ED0C80E090E0A3E8B2E480938B04909362
:102FC0008C04A0938D04B0938E0410928F04109201
:102FD0009004109291041092920410929304109213
:102FE00094041092950410929604109297041092F3
:102FF00098041092990410929A0410929B041092D3
:103000009C0410929D0410929E0410929F041092B2
:10301000A0041092A1041092A2041092A304109292
:10302000A4041092A5041092A6041092A804109271
:10303000A7041092AA041092A9041092AC04109252
:10304000AB041092AD041092AE041092AF04109233
:10305000B0041092B1041092B2041092B304109212
:10306000B4041092B5041092B6041092B7041092F2
:10307000B8041092720210927302109275021092AC
:1030800096020E94110B60E273E080E090E00E94E3
:103090008C0618A6BE01685D7F4F8BE60E94DA0D94
:1030A00081E08FA3BE01695D7F4F8AE10E94DA0D46
:1030B00088E08EA3BE016A5D7F4F8BE10E94DA0D2E
:1030C00004EF11E0812C912C5401412C512C320140
:1030D00019A61AA61BA61CA646E069EB74E083E4B9
:1030E0000E94870D8091B90490E0982F8827209145
:1030F000BA04822B092E000CAA0BBB0B29A53AA5FA
:103100004BA55CA5280F391F4A1F5B1F29A73AA7AB
:103110004BA75CA78091BB0490E0982F8827209153
:10312000BC04822B092E000CAA0BBB0B480E591EA7
:103130006A1E7B1E8091BD0490E0982F8827209105
:10314000BE04822B092E000CAA0BBB0B880E991E05
:10315000AA1EBB1E0150110909F0BECF04EFC02EFC
:10316000DD24D394E12CF12C69A57AA58BA59CA52F
:10317000A70196010E94ED31CA01B9010E94BA303F
:103180006093AD047093AE048093AF049093B00449
:10319000C301B201A70196010E94ED31CA01B90134
:1031A0000E94BA306093B1047093B2048093B30468
:1031B0009093B404C501B401A70196010E94ED31BA
:1031C000CA01B9010E94BA306093B5047093B60485
:1031D0008093B7049093B80484E591E00E94811332
:1031E0004091280450912904609124047091250491
:1031F00083EE92E00E946F028EE591E00E948113BF
:103200008DE80E94351581E08093F604AE014F5F92
:103210005F4F1A0155E0520D5DABE8E9F1E0149102
:1032200060E0812F0E94B505812F0E94500611E0B9
:103230000B970CF010E08091C601811771F010938C
:10324000C6010E94E60B80E80E943E0B812F0E947F
:10325000D30B8EE591E00E94811300913E04109102
:103260003F040E94C606C0902E04D0902F04E09028
:103270003004F09031049B01AC012C193D094E093A
:103280005F0969017A0139E0C316D104E104F10450
:1032900008F45CC060932E0470932F048093300474
:1032A000909331048AE294E00E94CC084091320469
:1032B000509133046091340470913504452B462BB2
:1032C000472B69F4AC01092E000C660B770B409379
:1032D0003A0450933B0460933C0470933D04409146
:1032E0003A0450913B0460913C0470913D04841B6E
:1032F000950B97FF03C091958195910944979CF494
:103300008091360490913704A0913804B09139042B
:103310000196A11DB11D8093360490933704A093AC
:103320003804B09339048091320490913304A09111
:103330003404B09135040196A11DB11D809332046F
:1033400090933304A0933404B093350480913204F5
:1033500090913304A0913404B09135040597A105F0
:10336000B10571F5109232041092330410923404B6
:10337000109235048091360490913704A09138045E
:10338000B09139040397A105B10570F080913A041A
:1033900090913B04A0913C04B0913D048C0190932A
:1033A0003F0480933E0404C000913E0410913F040A
:1033B0001092360410923704109238041092390497
:1033C000C80164E670E00E94B12A6830710528F4F3
:1033D000FB01E65FFE4F808101C080E08093140214
:1033E0000E94C6060E94B83020E030E04AE754E46C
:1033F0000E94AA2B209110023091110240911202DA
:10340000509113020E94CB2A60930C0270930D021C
:1034100080930E0290930F0284E993E09093CF047F
:103420008093CE048091F80390E09093D104809330
:10343000D00420918D03253009F058C020919403C9
:1034400026582D3540F48330910551F48091950331
:1034500081528931D0F088EC94E00E941A0946C06C
:1034600083349105C4F38091950383548F3298F788
:1034700080E090E0DC0122E030E0F901E457FC4F0D
:1034800040854850473050F0E6CF809196038850F1
:10349000873008F71092CD040C94A028F901E35767
:1034A000FC4F408547514331B8F4B695A7959795A1
:1034B0008795B0682E5F3F4F22343105F1F620E248
:1034C0002093CD048093C9049093CA04A093CB04A5
:1034D000B093CC040C94A02840854850473008F0A5
:1034E000BACFB695A79597958795E4CF80910202BC
:1034F000909103020196909303028093020220911F
:103500000B0212164CF48938934134F010920B02DE
:1035100010920302109202021092010283EE92E0D6
:103520000E94BC02181619064CF481E08093010237
:1035300083EE92E00E949A02809300028091010241
:10354000882311F40C946128809100029091FF016E
:10355000853561F491110AC08091FE018F3FE1F43D
:1035600081E08093FD018093FF0116C08093FE01EE
:10357000992391F0E091FD01E23019F48093FC0170
:1035800007C0E33028F09091FC0191509093FC012A
:10359000F0E0E457FE4F80838091FD018F5F84331C
:1035A00018F48093FD0104C01092FD011092FF01F8
:1035B0008091FF01882311F40C9461288091FC0113
:1035C00081110C9461288091FD01843010F40C94D9
:1035D00061281092FF0180918F018093FB0140913F
:1035E000910190919001923009F4BAC520F4913084
:1035F00061F00C945F28943011F40C943F289530BE
:1036000011F40C945D280C945F28413041F049AFCF
:103610008EAB0E94E60B8EA90E943E0B49AD109125
:103620009201212F30E050E04433510508F092C55B
:10363000FA01EC5CFF4F0C94C52A8091310590E0B3
:103640008217930729F0612F8FE295E00E94BC0852
:103650000E94C60600913505109136052091370568
:1036600030913805DC01CB01801B910BA20BB30B11
:103670004897A105B10518F081E080933405809149
:103680003405882309F460C00E94C606609335059E
:103690007093360580933705909338051092340562
:1036A00060E08FE295E00E94E40883E090E00197FB
:1036B000F1F761E08FE295E00E94E40883E290E098
:1036C0000197F1F760E08FE295E00E94E40860E086
:1036D000809130050E94B5058091300590E0FC0195
:1036E000EE58FB4F6491FC01E25AFB4FE491F0E08D
:1036F000EE0FFF1FE058FE4F8591949108EB16E501
:1037000020E030E0462F0E94C81661157105810542
:10371000910551F06B017C015FEFC51AD50AE50AEE
:10372000F50A8FE0F82203C0C12CD12C7601C70125
:10373000B6010E94BA306093390570933A058093C0
:103740003B0590933C050CC06091390570913A059A
:1037500080913B0590913C050E941C2C6B017C01E3
:10376000C114D104E104F10431F4B0EACB2EBAE57E
:10377000DB2EE12CF12C0E94E60B8091FB010E94D4
:103780003E0BC701B6010E94BA3020E030E048E6A7
:1037900052E43CC34091930180914C0590E0821724
:1037A000930741F480914D0590E0642F70E08617F7
:1037B000970741F1220F331FF901EE5EFE4F908112
:1037C00090934A05818180934B0510934C0540935B
:1037D0004D05423009F0892F90E0FC01EE58FB4F77
:1037E000E491E0934E05FC01E25AFB4FE491F0E0D6
:1037F000EE0FFF1FE058FE4F859194919093500576
:1038000080934F050E948B168CEC0E941F1684E457
:103810000E941F160E94C6066B017C0120914E0576
:10382000E0914F05F09150058181922F9095892369
:1038300081838281822B828383E290E00197F1F77A
:103840008081282311F40C9465280E948B168CEC3F
:103850000E941F168EEB0E941F1671014FEC50E064
:1038600088E090E011E070E060914E05E0914F0536
:10387000F0915005F8942181262B21832281062F77
:1038800000952023228327E030E0D9011197F1F73A
:103890002181202321832281262B228323E230E0F1
:1038A000D9011197F1F720817894FA013197F1F756
:1038B000622309F0712B110F0197B1F6F701719393
:1038C0007F01FDA9FE11CCCF6A8170E0762F6627BB
:1038D0008981682B072E000C880B990B0E94BA3047
:1038E00020E030E040E85DE30E9419310CC4809193
:1038F000230590E08217930751F0612F81E295E054
:103900000E94BC0860E0809122050E94B50581E21A
:1039100095E00E94CC08E8C3009193018091830454
:1039200090E08217930729F0612F81E894E00E94CC
:10393000BC08013059F481E894E00E94D808209135
:10394000C0013091C1018A5E91400CC0023071F417
:1039500081E894E00E94CC088A5E91402091C201E7
:103960003091C301BC01620F731F8CC060E070E036
:1039700089C080910402882309F4ECC36EE174E0ED
:10398000C1010E94D504C1010E94A20BC1010E9485
:10399000D004109204028EE194E00E940314DAC372
:1039A000109193010E94C6060E94B83020E030E0DA
:1039B0004AE754E40E94AA2B2091070230910802A2
:1039C0004091090250910A020E94CB2A2DEC3CEC56
:1039D0004CE45EE30E94D12C18165CF040910B027F
:1039E000042E000C550B212F30E081E042175307C5
:1039F00009F080E00E94D30B06C080910B020E9468
:103A0000D30B10920B021092060210920502A2C371
:103A10008091230590E08217930751F0612F81E296
:103A200095E00E94BC0860E0809122050E94B505E7
:103A300081E295E00E94FF0D56C08091230590E041
:103A40008217930779F0612F81E295E00E94BC080C
:103A500060E0809121050E94B50560E0809122051B
:103A60000E94B50560E081E295E00E94F408182FFD
:103A700081E295E00E94FF0D612F70E0660F771FD5
:103A8000680F711D072E000C880B990B31C3009134
:103A900093018091230590E08217930711F00C9415
:103AA00076288091240590E0402F50E084179507F8
:103AB00011F00C94762862E0013059F480912105D0
:103AC0000E94B50560E081E295E00E94F40880273D
:103AD0000AC0809122050E94B50581E295E00E940E
:103AE000FF0D61E08627682F70E080E090E00E9483
:103AF000B83009C3F901EE0FFF1FE657FE4F1491CE
:103B00000091930160E0812F0E94B505812F0E94F2
:103B1000500611E00B970CF010E0812F80270E94D7
:103B2000D30B1093C60116C380915C0490E08217FA
:103B3000930709F48FC0612F8AE594E00E94BC08C6
:103B400080915B0490915A049093C5018093C401C5
:103B500010927202109273021092750210929602E5
:103B60000E94110B61E08AE594E00E94E40880E77E
:103B70008DA3BE016B5D7F4F80E00E94941080E2B8
:103B80008CA3BE016C5D7F4F81E00E94941081E0A8
:103B9000809366048BA3BE016D5D7F4F82E00E941F
:103BA0009410710100E010E0C8010E94D731D701E4
:103BB0008D937D010F5F1F4F0A311105A9F72D81EC
:103BC0003E814F81588569817A818B819C810E94D9
:103BD000CC2A29853A854B855C850E94CC2A2D8587
:103BE0003E854F8558890E94CC2A29893A894B897C
:103BF0005C890E94CC2A2D893E894F89588D0E946C
:103C0000CC2A6B017C01698D70E080E090E00E941D
:103C1000BA309B01AC01C701B6010E94CC2A20E05A
:103C200030E04AE253E40E94CC2A0E94232C8A8D81
:103C300068130CC08AE1F101A7E6B4E001900D928F
:103C40008A95E1F781E080935E0402C010925E04E1
:103C50000E940C110E940C11A101BE01655E7F4FF4
:103C6000CE0181960E94CB15882331F0682F880FF2
:103C7000770B880B990B3CC280915E0469A17AA1F5
:103C80000B8D1C8D882309F481C0072E000C880B36
:103C9000990B0E94BA3020916704309168044091DA
:103CA000690450916A040E94CC2A209173043091D7
:103CB000740440917504509176040E9419310E9459
:103CC0001C2C6B017C01B801110F880B990B0E9411
:103CD000BA3020916B0430916C0440916D04509186
:103CE0006E040E94CC2A2091770430917804409190
:103CF000790450917A040E9419310E941C2C4B01C6
:103D00005C0169817A81072E000C880B990B0E9457
:103D1000BA3020916F043091700440917104509139
:103D200072040E94CC2A20917B0430917C04409143
:103D30007D0450917E040E9419310E941C2C209118
:103D40007F04213029F4072E000C880B990B15C035
:103D5000223069F4072E000C880B990B0E94BA30B0
:103D60009B01AC01B601DD0C880B990B1BC0233005
:103D700041F5B601DD0C880B990B0E94BA309B010E
:103D8000AC01B401990C880B990B0CC0072E000CE8
:103D9000880B990B0E94BA309B01AC01B801110F3E
:103DA000880B990B2EAB3FAB49AF58AF0E94BA308E
:103DB0002EA93FA949AD58AD0E944B2B6B017C0148
:103DC00003C0C12CD12C760120E030E0A901C7014D
:103DD000B6010E94B33087FF0DC02BED3FE049ECE8
:103DE00050E4C701B6010E94CC2A20E030E044E351
:103DF00053E406C020E030E044E353E4C701B601D9
:103E00000E9419312BED3FE049E450E40E94AA2BB7
:103E10007AC1F09093018091550490E08217930746
:103E200029F0612F83E594E00E94BC0885E0F10150
:103E300011928A95E9F760E083E594E00E94E40836
:103E400064E170E080E090E00E948C0661E083E530
:103E500094E00E94E4088BE990E00197F1F760E0BC
:103E600083E594E00E94E4080E94C6064B015C01D1
:103E700083E594E00E94FF0D811110C00E94C606E8
:103E8000DC01CB0188199909AA09BB090397A1058F
:103E9000B10570F310925704109258040E94C606A0
:103EA0004B015C0183E594E00E94FF0D882361F0E3
:103EB0000E94C606DC01CB0188199909AA09BB0931
:103EC0000397A105B10570F300E010E00E94C6065B
:103ED0004B015C0183E594E00E94FF0D81110CC051
:103EE0000E94C606DC01CB0188199909AA09BB0901
:103EF0000397A105B10570F30E9467064B015C01B1
:103F00000E94C6062B013C0183E594E00E94FF0D50
:103F1000882361F00E94C606DC01CB018419950953
:103F2000A609B7090397A105B10570F30E946706BA
:103F3000DC01CB0188199909AA09BB09F80153E0F2
:103F4000F595E7955A95E1F78997A105B10530F008
:103F5000E20DF31D8081880F816004C0E20DF31D26
:103F60008081880F80830F5F1F4F0832110509F091
:103F7000ADCF59814B81242F30E0250F311D8D812C
:103F800090E02817390721F45093570440935804C0
:103F9000F11003C080915704DBC080915804D8C051
:103FA00080914F0490E082179307D1F0612F8DE448
:103FB00094E00E94BC0880914D0490914E0490932F
:103FC0005104809352048091510460E00E94B50531
:103FD0008091520480934D048091510480934E044B
:103FE0008DE494E022C08091490490E08217930709
:103FF000D1F0612F87E494E00E94BC0880914704CF
:104000009091480490934B0480934C0480914B040E
:1040100060E00E94B50580914C0480934704809134
:104020004B048093480487E494E00E94D808BC01C4
:10403000990F880B990B0E94BA300E94430B8AC0DB
:10404000109193010E94110E0E94110E113049F43B
:1040500020918F04309190044091910450919204EA
:1040600019C0123069F48091930490919404A09146
:104070009504B091960489AB9AABABABBCAB0EC0C8
:10408000133061F420919704309198044091990481
:1040900050919A0429AB3AAB4BAB5CAB69A97AA9B6
:1040A0008BA99CA930C064E274E0C1010E94D504D0
:1040B000C1010E94A20BC1010E94D0044BC060E06C
:1040C000812F0E94B505812F0E945C050DC0F9016A
:1040D000EE0FFF1FE657FE4F149160E0812F0E9404
:1040E000B505812F0E945006BC01990F880B990BD2
:1040F0000E94BA3008C060910C0270910D0280914C
:104100000E0290910F020E946C0B24C08091430418
:1041100090E08217930729F0612F81E494E00E94D8
:10412000BC0881E494E00E94FF0D12C080912C0431
:1041300090E08217930729F0612F8AE294E00E94B1
:10414000BC0881E02091140290919301291380E032
:104150000E94D30B8EE591E00E9481130C945F289E
:10416000D09092010D2D10E04D3009F4B5C6A8F5A0
:10417000483009F464C048F5433009F49AC6453024
:1041800011F00C945D2886E090E00E942F0B7C01DA
:1041900069E08DE595E00E94BC0804EF11E0109302
:1041A000640500936305C7010E94520D88E090E00A
:1041B0000E942F0B7C016AE08DE595E00E94BC080F
:1041C000109364050093630536C04A30F1F008F49B
:1041D000F4C04B3009F4A6C070C7413209F4F8C6E8
:1041E00050F44E3109F4CAC6403209F4D1C6443104
:1041F00009F063C7A3C6493209F4DFC1423309F4A9
:104200002BC7423209F059C7CEC687E090E00E9422
:104210002F0B7C0180915F0590E08017910759F08A
:104220006D2D8DE595E00E94BC0884EF91E09093A0
:10423000640580936305C7010E94520D3EC74091FB
:104240009301F0909401E0909501C0909601B09098
:10425000970180913F0590E08017910741F480918C
:10426000400590E0242F30E08217930759F1D09257
:104270003F05000F111FF801EE5EFE4F91819093F4
:104280003E05808180933D05423009F040C7292FCB
:1042900030E0F901EE58FB4FE491E0934905F90154
:1042A000E25AFB4FE491F0E0EE0FFF1FEC5AFB4F98
:1042B00025913491309346052093450561E0892F7F
:1042C0000E94B505FF2031F1FA942F2D30E0809146
:1042D0004105909142052817390708F58F2D880F61
:1042E000F80E8F2D90E0E0914305F0914405E80F22
:1042F000F91FC082E0914305F0914405E80FF91FD2
:10430000E1822091430530914405F901E80FF91F3E
:10431000B28205C04B2D6C2D8E2D0E94250D0E9462
:10432000ED0CCBC680919301000F111FF801EE5EDA
:10433000FE4F813011F4608101C0618170E0109105
:104340009401EBEEF1E080E090E0219131912617AD
:10435000370781F0232B41F4FC01EE0FFF1FE551DD
:10436000FE4F7183608306C001968830910569F71E
:1043700080E090E0FC01EE0FFF1F8E0F9F1FFC01FD
:10438000EB59FA4F80819181A28189839A83AB8313
:10439000153B08F092C6898190E0FC01EE0FFF1FEB
:1043A0008E0F9F1FFC01E750FC4F808187FD03C0EB
:1043B000C1010E949F07612F4AC68091270590E0A6
:1043C0008017910751F1D0922705000F111FF801B6
:1043D000EE5EFE4F818180932605908190932505A6
:1043E00080932D0590932E0561E00E94B50561E054
:1043F00080912E050E94B50580E48093290580EC0C
:1044000080932A058AE880932B0580E289838A833A
:104410008B838C83C1010E94A30C809193018093B4
:104420008801809194018093890180919501809306
:104430008A018091960180938B0140908801509071
:10444000890160908A0170908B0119821A821B8207
:104450001C8220E030E0A901C301B2010E94B33008
:1044600087FF08C077FA709477F8709481E28983A7
:1044700011E001C010E06DEF862E99249A9473E04C
:10448000A72EB12C00E0B7FC4CC0B5016F5F7F4F89
:10449000072E000C880B990B0E94BA309B01AC01CF
:1044A00060E070E080E291E40E94DE2C6B017C0110
:1044B0009B01AC01C301B2010E94AA2B0E94522CA5
:1044C00069A77AA78BA79CA7B5010B2C000C880BBA
:1044D000990B0E94BA309B01AC0160E070E080E271
:1044E00091E40E94DE2C6DA77EA78FA798ABA70151
:1044F000960169A57AA58BA59CA50E9419319B01FF
:10450000AC01C301B2010E94CB2A2DA53EA54FA547
:1045100058A90E94AA2B0E94522C0E941C2CCB014D
:1045200023C020E030E040E251E4C301B2010E9428
:10453000193132E08316910484F020E030E040E24B
:1045400051E40E94193142E08416910431F020E0D8
:1045500030E040E251E40E9419310E941C2CCB0152
:104560006AE070E00E94B12A181619062CF0AA2001
:1045700019F0002381F009C0A11007C0F101E10F7B
:10458000F11D60E1680F608304C0F101E10FF11DCE
:1045900080831F5F01E0143060F451E0A51AB10878
:1045A0008FEF881A980A9CEFA9169FEFB90609F0B9
:1045B0006ACFC1010E94A30C80C58091F20490E0F3
:1045C00080179107A9F1000F111FF801EE5EFE4F51
:1045D00080818093F40491819093F504D092F20449
:1045E00061E00E94B50561E08091F5040E94B50587
:1045F00061E08091F4040E94850561E08091F504FA
:104600000E94850580E40E9435158CE80E943515CE
:10461000E8EFF4E080E18E0F11928E13FDCF81E080
:104620008093F6041092F70488EF94E00E94D81467
:1046300080919301282F30E0813009F069C1009109
:104640009401002E000C110B209195018091960190
:1046500090E0A7E9B1E0E7ECF1E0AF01475C514041
:10466000481759071CF43D913193F7CFFC01E953EA
:10467000FE4F108281E08093F704E12CF12CF701CA
:10468000E953FE4F8081F701E051FB4F882321F071
:10469000A3E1EA16F10481F4F0920C05E0920B0517
:1046A000158E3AEFA7013403C001359F900D1124F8
:1046B0000817190764F005C0858F5FEFE51AF50A42
:1046C000DECF0131110524F000E110E001C08C01C2
:1046D000109309050093080520310CF02FE027FD09
:1046E0002FEF20930A05101611060CF069C040E068
:1046F00050E0842F4017510759F04F5F5F4F413111
:10470000510509F4D0C0FA01E051FB4F1782F1CFF7
:10471000403109F4C8C090E037E040E2B42E492FA0
:1047200050E04E155F050CF042C0A12C8A01035FDA
:104730001A4F3A9DD0011124BD0166567E4FFB01F0
:10474000D490F0E4DF1629F1FB019490F801C080C9
:104750000C2C000CDD08E92DF0E0CE16DF06B9F4D4
:1047600000E010E01196FD01E00FF11FE656FE4F4C
:10477000D490E82FF0E0E051FB4FD0868F5F80317E
:1047800041F00F5F1F4F0630110569F702C0A39477
:10479000D0CFFB016491603429F4FA01E051FB4F62
:1047A000B58E91509F5F803109F0B9CF7CC0E82F62
:1047B000F0E0E051FB4F10868F5F8031C1F773C08E
:1047C0000817190741F4E8EFF4E080E18E0F119229
:1047D0008E13FDCF68C0EE27FF27E01BF10BCF0142
:1047E00066E070E00E94B12AB82EF0930905E093CC
:1047F0000805AB0130E087E0982E90E2892E4E1537
:104800005F050CF047C0A12CCA01835F9A4F9A9CA8
:10481000D0011124BD0166567E4FFB01D490F0E417
:10482000DF1621F1FB017490FC01C0800C2C000C00
:10483000DD08E72DF0E0CE16DF06A9F4FD01EB0D53
:10484000F11DB7FCFA95E556FE4F8491E32FF0E099
:10485000E051FB4F80873F5F303138F4B394F6E08E
:10486000BF12ECCF02C0A394D2CFB12CFB01649154
:10487000603431F4FA01E051FB4F858E415051090B
:104880004F5F5F4F303108F4BACF109309050093A2
:10489000080509C0E32FF0E0E051FB4F10863F5FB1
:1048A0003031C1F7F2CF022E000C330B47E050E05D
:1048B000421B530BE8EFF4E057FD14C090E19E0F4C
:1048C0008081042E01C0880F0A94EAF781939E1319
:1048D000F7CF8091F6048111DDC2E8EFF4E090E1BA
:1048E0009E0F10C02750310940E14E0F808190E0AB
:1048F000022E02C0959587950A94E2F781934E1394
:10490000F5CFE7CF8081809581939E13FBCFC2C204
:10491000823009F08BC02091940100919501A6E9A5
:10492000B1E0EBEDF1E08D91819331E0EB3EF307E7
:10493000D1F720310CF0C1C308300CF0BEC3809118
:10494000F604402F002E000C550B022E000C330BEA
:104950006BED71E010E1160F882399F188E090E08B
:10496000841B950B6FEFF62E01C0FF0C8A95EAF7BA
:10497000D901A850BB4FEBEDF1E02B5D314066272C
:104980007727641B750BC9018E0F9F1F97FD14C0FD
:10499000EC90EF208081101644F490E0042E02C0C9
:1049A000959587950A94E2F705C0062E01C0880FF9
:1049B0000A94EAF78E298C93119631961E13E3CF51
:1049C00069C288E090E0841B950B6FEFF62E01C062
:1049D000FF0C8A95EAF7D901A850BB4FEBEDF1E047
:1049E0002B5D314066277727641B750BC9018E0F3D
:1049F0009F1F97FD16C0EC90EF20808190E080957E
:104A0000909510163CF4042E02C0959587950A9453
:104A1000E2F705C0062E01C0880F0A94EAF78E2936
:104A20008C93119631961E13E1CF34C22330310599
:104A300009F094C0209194018091950140919601D4
:104A40003AE0632F0E94912A592F682F70E0FB01F2
:104A5000EE0FFF1FCF01860F971FFC01E351FC4FA4
:104A6000E491E093F804FC01E251FC4FE491E093FF
:104A7000F904FC01E151FC4FE491E093FA04109237
:104A8000FB04E52FF0E0CF01880F991F8E0F9F1FC9
:104A9000FC01E351FC4FE491E093FC04FC01E25182
:104AA000FC4FE491E093FD04FC01E151FC4FE491E3
:104AB000E093FE04842F632F0E94912A392F482F00
:104AC00050E0FA01EE0FFF1FCF01840F951FFC018C
:104AD000E351FC4FE491E0930105FC01E251FC4FEE
:104AE000E491E0930205FC01E151FC4FE491E09375
:104AF000030510920405E32FF0E0CF01880F991F02
:104B00008E0F9F1FFC01E351FC4FE491E0930505DC
:104B1000FC01E251FC4FE491E0930605FC01E151F8
:104B2000FC4FE491E0930705222331F088E2809363
:104B3000FF048093000504C01092FF04109200054A
:104B40008091F6048111A6C1E8EFF4E090E19E0F98
:104B50008081809581939E13FBCF9CC124303105C9
:104B600009F0ABC2809194018093880180919501F6
:104B7000809389018091960180938A0180919701A9
:104B800080938B01C0908801D0908901E0908A01C8
:104B9000F0908B012601370177FA709477F87094C2
:104BA00020E030E0A901C701B6010E94B33087FFC1
:104BB00005C049A65DA6962C872C04C0C9A6DDA613
:104BC0009E2C8F2C13E020E03EE34CE156E4C7011D
:104BD000B6010E94D12C87FD03C089E08B8F0DC0E8
:104BE00020E030EE49E754ECC701B6010E94B33033
:104BF00018163CF08BE08B8F89E08C8F8D8F8E8F19
:104C0000D9C020E030E0A901C701B6010E94B3304D
:104C1000A82EAA1CAA24AA1C00E060E070E080E094
:104C20009FE3011741F020E030E040E251E40E94B0
:104C3000AA2B0F5FF6CF9B01AC0169A57DA5892D3D
:104C4000982D0E94CC2A2B013C010E94232CFB01B1
:104C50009B0100E0C9016AE070E00E949D2AD10139
:104C6000A00FB11D4AE0649F201911242C930F5FFF
:104C70009B01672B79F7802F8A0DB82EB10E54E077
:104C80005B1518F414E0181B9ECFF02E8CE08B8F70
:104C90008C8F8D8F8E8FBF0180E090E00E94B830A6
:104CA0009B01AC01C301B2010E94CB2A2B013C0144
:104CB00084E08B19AA2039F0FE01E80FF11D8BE08A
:104CC000838F85E08B19080F802F8F19FF2069F0E3
:104CD000EBE1F0E0EC0FFD1FE80FF11DDE01AF0D81
:104CE000B11D8C918083FA94EFCF112309F462C037
:104CF000033071F420E030E040E251E4C301B2013E
:104D00000E9419310E941C2C672B11F58CE077CF83
:104D1000023071F420E030E048EC52E4C301B2010B
:104D20000E9419310E941C2C672B91F48CE066CFF5
:104D3000013071F420E030E04AE754E4C301B201ED
:104D40000E9419310E941C2C672B11F48CE055CF66
:104D5000FF24F394F00EEBE1F0E0EC0FFD1FE00F09
:104D6000F11D8AE08083115028F120E030E040E21C
:104D700051E4C301B2010E9419314B015C010E9450
:104D80001C2C01E00F0DEBE1F0E0EC0FFD1FEF0D2F
:104D9000F11D6083072E000C880B990B0E94BA301E
:104DA0009B01AC01C501B4010E94CB2A2B013C013F
:104DB000F02ED9CF8B8D90E0FC01EE0FFF1F8E0FF0
:104DC0009F1FFC01E351FC4FE491E093F804FC01C8
:104DD000E251FC4FE491E093F904FC01E151FC4FF6
:104DE000E491E093FA041092FB048C8D90E0FC01B6
:104DF000EE0FFF1F8E0F9F1FFC01E351FC4FE4914C
:104E0000E093FC04FC01E251FC4FE491E093FD04CB
:104E1000FC01E151FC4FE491E093FE041092FF0489
:104E20008D8D90E0FC01EE0FFF1F8E0F9F1FFC0188
:104E3000E351FC4FE491E0930005FC01E251FC4F8B
:104E4000E491E0930105FC01E151FC4FE491E09312
:104E50000205109203058E8D90E0FC01EE0FFF1FFE
:104E60008E0F9F1FFC01E351FC4FE491E09304057A
:104E7000FC01E251FC4FE491E0930505FC01E15196
:104E8000FC4FE491E0930605109207058091F6042B
:104E9000882329F088EF94E00E94D8140EC1E8EF2F
:104EA000F4E090E19E0F8081809581939E13FBCF6B
:104EB000F1CF8091230590E08017910729F06D2DA7
:104EC00081E295E00E94BC0811E08091930181117C
:104ED00001C010E061E042C060E671E0CE014B9697
:104EE0000E94EF0480918E0190E08C010350110923
:104EF000E12CF12CE016F10664F4F701E457FE4FC3
:104F00006681CE014B960E9475048FEFE81AF80A6D
:104F1000F1CFBE01655E7F4FC1010E94D504C10182
:104F20000E941014C1010E94D004CE014B960E9431
:104F30000314CE014B960E94D004BFC0809123057C
:104F400090E08017910729F06D2D81E295E00E9495
:104F5000BC081091930161E0123040F4809121056A
:104F60000E94B505612F809121050FC0123009F410
:104F700060E081E295E00E94E4089FC061E08D2D31
:104F80000E94B505609193018D2D0E94850595C005
:104F900061E08D2D0E94B5056091930170E08D2D2B
:104FA0000E94F1058AC086E090E00E942F0B8C01E0
:104FB00088E090E00E942F0B101611060CF07BC0C9
:104FC000AC01990F660B770BC8010E94931375C053
:104FD000F0909301EBEEF1E080E090E021913191CF
:104FE0002017310781F0232B41F4FC01EE0FFF1F46
:104FF000E551FE4F1183008306C00196883091056C
:1050000069F780E090E0FC01EE0FFF1F8E0F9F1FFD
:10501000FC01EB59FA4F80819181A28189839A83A7
:10502000AB8394EB9F1508F448C0898190E0FC01A4
:10503000EE0FFF1F8E0F9F1FFC01E750FC4F80817A
:1050400087FD04C0B801C1010E949F076F2D70E069
:10505000C1010E941C0731C00E94C6060E94B830E0
:1050600020E030E04AE754E40E94AA2B609310024B
:105070007093110280931202909313021EC069E094
:105080008DE595E00E94BC0804EF11E010936405E3
:105090000093630580E090E00E94520D6AE08DE588
:1050A00095E00E94BC08109364050093630580E0BE
:1050B00090E00E94520D0E9475130E94DC0B10922A
:1050C000FD010E945C030C940D190E94C606DC01D0
:1050D000CB018C199D09AE09BF098E3E9240A105F6
:1050E000B10510F40C940E1C0C94251C220F331FD8
:1050F000F901EE5EFE4F80818093210581818093CE
:10510000220510932305009324050C945B1D282F82
:1051100030E0F901EE58FB4FE491E0934905F901C5
:10512000E25AFB4FE491F0E0EE0FFF1FEC5AFB4F09
:1051300025913491309346052093450561E0C0C820
:1051400081E08093C80488EC94E00E941A09C09022
:10515000C904D090CA04E090CB04F090CC0467015D
:10516000EE24FF241C2DC0920B020E94C6060E9452
:10517000B83020E030E04AE754E40E94AA2B609364
:105180000702709308028093090290930A021A3072
:1051900011F01D3049F4109206021092050281E0D0
:1051A000809304020C94881A6C2D8EE194E00E9486
:1051B0007504809105029091060201968134910553
:1051C00034F490930602809305020C94881A10928E
:1051D0000602109205028EE194E00E9403140C94E2
:1051E000881A8EE194E00E94D00484E294E00E9448
:1051F000D00482EE94E00E94D0048CED94E00E94F2
:10520000D00480914305909144050C940C2F10928A
:10521000E6021092E50288EE93E0A0E0B0E0809311
:10522000E7029093E802A093E902B093EA0228E330
:1052300031E03093E4022093E30225EC30E0309338
:10524000F0022093EF0224EC30E03093F20220933E
:10525000F10220EC30E03093F4022093F30221ECD1
:1052600030E03093F6022093F50222EC30E03093E8
:10527000F8022093F70226EC30E03093FA022093F4
:10528000F9021092FC021092FD021092FE0210929E
:10529000FF0221E030E030937F0520937E051092DD
:1052A0008006109281061092820610928306109258
:1052B0008406109285061092860610928706109238
:1052C00088061092890610928A0610928B06109218
:1052D0008C0610928D0610928F0610928E061092F8
:1052E00090061092910610929206109293061092D8
:1052F00094061092950610929606109297061092B8
:1053000098061092830310928203809384039093F3
:105310008503A0938603B093870388E491E090937C
:1053200081038093800380911D04A5E6B5E09FEF83
:1053300048EB5BE08C3078F48C93282F30E0F90157
:10534000EE0FFF1F2E0F3F1FF901E750FC4F528356
:1053500041838F5F01C09C93139625E0AD37B20760
:1053600049F780931D0460E08DE595E00E940509F2
:105370008AE495E00E94150960E08DE395E00E94C3
:10538000050980913E05282F30E0F901EE58FB4FCA
:10539000E491E0934905F901E25AFB4FE491F0E012
:1053A000EE0FFF1FEC5AFB4F2591349130934605C9
:1053B0002093450561E00E94B5058EE190E0909351
:1053C0004205809341058AE590E00E94772E9093F4
:1053D000440580934305892B21F481E691E00E94E6
:1053E000833020E030E08091410590914205AC018E
:1053F000440F551F840F951F2817390750F4E0916B
:105400004305F0914405E20FF31F10822F5F3F4FD9
:10541000EACF60E08FE295E00E94050985E295E021
:105420000E94150981E295E00E94150980EF94E041
:105430000E9415098CEE94E00E94150988E0809383
:105440007D0560E671E08CED94E00E94EF0460E67B
:1054500071E082EE94E00E94EF0460E082E00E943E
:10546000B50582E080938C031092E8041092E90461
:105470001092EA041092EB041092D3041092D2041A
:105480001092D4041092DA048CED94E00E9403147C
:105490001092DB0488EC94E00E941A0961E083E03A
:1054A0000E94B50560E083E00E94850560E085E824
:1054B00094E00E94050988E68093C70460E081E8D3
:1054C00094E00E94050960E08AE594E00E940509E5
:1054D0008EE18093650410925E0460E083E594E0C1
:1054E0000E94050960E08DE494E00E94050960E0F7
:1054F00087E494E00E94050960E081E494E00E9462
:1055000005098AE294E00E9415096DE771E084E2E2
:1055100094E00E94EF0460E671E08EE194E00C9468
:10552000EF04991B79E004C0991F961708F0961BA9
:10553000881F7A95C9F780950895AA1BBB1B51E176
:1055400007C0AA1FBB1FA617B70710F0A61BB70BF3
:10555000881F991F5A95A9F780959095BC01CD0198
:10556000089597FB072E16F4009407D077FD09D015
:105570000E949D2A07FC05D03EF4909581959F4F8F
:105580000895709561957F4F0895EE0FFF1F059068
:10559000F491E02D09945058BB27AA270E94E32AD2
:1055A0000C949D310E948F3138F00E94963120F08A
:1055B00039F49F3F19F426F40C948C310EF4E095E5
:1055C000E7FB0C948631E92F0E94AE3158F3BA17ED
:1055D000620773078407950720F079F4A6F50C9409
:1055E000D0310EF4E0950B2EBA2FA02D0B01B9018E
:1055F00090010C01CA01A0011124FF27591B99F049
:10560000593F50F4503E68F11A16F040A22F232F54
:10561000342F4427585FF3CF469537952795A795A4
:10562000F0405395C9F77EF41F16BA0B620B730B4B
:10563000840BBAF09150A1F0FF0FBB1F661F771FBC
:10564000881FC2F70EC0BA0F621F731F841F48F471
:10565000879577956795B795F7959E3F08F0B0CFFA
:105660009395880F08F09927EE0F979587950895E1
:105670000E948F3160F080E891E009F49EEF0E9473
:10568000963128F040E851E071F45EEF0CC00C94C4
:105690008C310C94D031E92FE0780E94AE3140F388
:1056A000092E052AB1F3261737074807590738F09E
:1056B0000E2E07F8E02569F0E025E0640AC0EF63EC
:1056C00007F8009407FADB01B9019D01DC01CA016A
:1056D000AD01EF930E94C12B0E949D310E947B2B54
:1056E0005F91552339F02BED3FE049E450FD49EC43
:1056F0000C94CC2A0895DF93DD27B92FBF7740E8BB
:105700005FE31616170648075B0718F4D92F0E94A7
:10571000D62C9F938F937F936F930E94742DE0ED0F
:10572000F0E00E94922C0E949D312F913F914F9169
:105730005F910E942C31DD2351F09058A2EA2AEDAE
:105740003FE049EC5FE3D0785D270E94E32ADF91D8
:105750000C949D310E94BE2B0C949D310E94963179
:1057600058F00E948F3140F029F45F3F29F00C94EB
:10577000863151110C94D1310C948C310E94AE3190
:1057800068F39923B1F3552391F3951B550BBB2770
:10579000AA2762177307840738F09F5F5F4F220FB5
:1057A000331F441FAA1FA9F335D00E2E3AF0E0E8AC
:1057B00032D091505040E695001CCAF72BD0FE2FF6
:1057C00029D0660F771F881FBB1F2617370748078A
:1057D000AB07B0E809F0BB0B802DBF01FF27935842
:1057E0005F4F3AF09E3F510578F00C9486310C944F
:1057F000D1315F3FE4F3983ED4F386957795679572
:10580000B795F7959F5FC9F7880F911D9695879576
:1058100097F90895E1E0660F771F881FBB1F621795
:1058200073078407BA0720F0621B730B840BBA0B53
:10583000EE1F88F7E09508950E94232C6894B1111B
:105840000C94D13108950E94B63188F09F5798F09A
:10585000B92F9927B751B0F0E1F0660F771F881F75
:10586000991F1AF0BA95C9F714C0B13091F00E948F
:10587000D031B1E008950C94D031672F782F88276C
:10588000B85F39F0B93FCCF3869577956795B395B6
:10589000D9F73EF490958095709561957F4F8F4F25
:1058A0009F4F08950E94B92C90F09F3748F49111B2
:1058B00016F00C94D13160E070E080E89FEB089521
:1058C00026F41B16611D711D811D0C94692C0C940E
:1058D000842C882371F4772321F09850872B762F1E
:1058E00007C0662311F499270DC09051862B70E0F4
:1058F00060E02AF09A95660F771F881FDAF7880F05
:105900009695879597F908959F3F31F0915020F42F
:10591000879577956795B795880F911D969587958B
:1059200097F90895DF93CF931F930F93FF92EF9210
:10593000DF927B018C01689406C0DA2EEF010E9491
:105940002C31FE01E894A591259135914591559111
:10595000A6F3EF010E94E32AFE019701A801DA9461
:1059600069F7DF90EF90FF900F911F91CF91DF913A
:1059700008950E94B631A0F0BEE7B91788F4BB279E
:105980009F3860F41616B11D672F782F8827985F0F
:10599000F7CF869577956795B11D93959639C8F39E
:1059A00008950E94F53008F48FEF08959B01AC0133
:1059B00060E070E080E89FE30C94AA2BFA01EE0F00
:1059C000FF1F309621053105A1F16115710561F4C4
:1059D0008038BFE39B0749F168949038810561F0F6
:1059E0008038BFEF9B0741F099234AF5FF3FE1055F
:1059F0003105210519F1E8940894E795D901AA2306
:105A000029F4AB2FBE2FF85FD0F310C0FF5F70F406
:105A1000A695E0F7F73950F019F0FF3A38F49F7780
:105A20009F930DD00F9007FC9058089546F00C946A
:105A30008C3160E070E080E89FE308954FE79F7746
:105A40005F934F933F932F930E94FB2D2F913F9194
:105A50004F915F910E9419310C94802D19F416F426
:105A60000C948C310C94842C0E94B631B8F3992399
:105A7000C9F3B6F39F57550B87FF0E94B22D002440
:105A8000A0E640EA900180585695979528F4805CEE
:105A9000660F771F881F20F026173707480730F456
:105AA000621B730B840B202931294A2BA69517946E
:105AB0000794202531254A2758F7660F771F881F3E
:105AC00020F026173707480730F4620B730B840B5E
:105AD000200D311D411DA09581F7B901842F9158EA
